{"contracts/DickBets.sol":{"DickBets":{"abi":[{"inputs":[],"stateMutability":"nonpayable","type":"constructor"},{"anonymous":false,"inputs":[{"indexed":true,"internalType":"address","name":"owner","type":"address"},{"indexed":true,"internalType":"address","name":"spender","type":"address"},{"indexed":false,"internalType":"uint256","name":"value","type":"uint256"}],"name":"Approval","type":"event"},{"anonymous":false,"inputs":[],"name":"AutoNukeLP","type":"event"},{"anonymous":false,"inputs":[{"indexed":true,"internalType":"address","name":"sniper","type":"address"}],"name":"BoughtEarly","type":"event"},{"anonymous":false,"inputs":[{"indexed":true,"internalType":"address","name":"account","type":"address"},{"indexed":false,"internalType":"bool","name":"isExcluded","type":"bool"}],"name":"ExcludeFromFees","type":"event"},{"anonymous":false,"inputs":[],"name":"ManualNukeLP","type":"event"},{"anonymous":false,"inputs":[{"indexed":true,"internalType":"address","name":"pair","type":"address"},{"indexed":true,"internalType":"bool","name":"value","type":"bool"}],"name":"SetAutomatedMarketMakerPair","type":"event"},{"anonymous":false,"inputs":[{"indexed":false,"internalType":"uint256","name":"tokensSwapped","type":"uint256"},{"indexed":false,"internalType":"uint256","name":"ethReceived","type":"uint256"},{"indexed":false,"internalType":"uint256","name":"tokensIntoLiquidity","type":"uint256"}],"name":"SwapAndLiquify","type":"event"},{"anonymous":false,"inputs":[{"indexed":true,"internalType":"address","name":"from","type":"address"},{"indexed":true,"internalType":"address","name":"to","type":"address"},{"indexed":false,"internalType":"uint256","name":"value","type":"uint256"}],"name":"Transfer","type":"event"},{"anonymous":false,"inputs":[{"indexed":true,"internalType":"address","name":"newAddress","type":"address"},{"indexed":true,"internalType":"address","name":"oldAddress","type":"address"}],"name":"UpdateUniswapV2Router","type":"event"},{"anonymous":false,"inputs":[{"indexed":true,"internalType":"address","name":"newWallet","type":"address"},{"indexed":true,"internalType":"address","name":"oldWallet","type":"address"}],"name":"developmentWalletUpdated","type":"event"},{"anonymous":false,"inputs":[{"indexed":true,"internalType":"address","name":"newWallet","type":"address"},{"indexed":true,"internalType":"address","name":"oldWallet","type":"address"}],"name":"marketingWalletUpdated","type":"event"},{"inputs":[{"internalType":"address","name":"","type":"address"}],"name":"_isExcludedMaxTransactionAmount","outputs":[{"internalType":"bool","name":"","type":"bool"}],"stateMutability":"view","type":"function"},{"inputs":[{"internalType":"address","name":"owner","type":"address"},{"internalType":"address","name":"spender","type":"address"}],"name":"allowance","outputs":[{"internalType":"uint256","name":"","type":"uint256"}],"stateMutability":"view","type":"function"},{"inputs":[{"internalType":"address","name":"spender","type":"address"},{"internalType":"uint256","name":"amount","type":"uint256"}],"name":"approve","outputs":[{"internalType":"bool","name":"","type":"bool"}],"stateMutability":"nonpayable","type":"function"},{"inputs":[{"internalType":"address","name":"","type":"address"}],"name":"automatedMarketMakerPairs","outputs":[{"internalType":"bool","name":"","type":"bool"}],"stateMutability":"view","type":"function"},{"inputs":[{"internalType":"address","name":"account","type":"address"}],"name":"balanceOf","outputs":[{"internalType":"uint256","name":"","type":"uint256"}],"stateMutability":"view","type":"function"},{"inputs":[{"internalType":"address","name":"account","type":"address"},{"internalType":"bool","name":"blacklist","type":"bool"}],"name":"blacklistAddress","outputs":[],"stateMutability":"nonpayable","type":"function"},{"inputs":[{"internalType":"address[]","name":"accounts","type":"address[]"}],"name":"blacklistAddressMultiple","outputs":[],"stateMutability":"nonpayable","type":"function"},{"inputs":[],"name":"buyDevelopmentFee","outputs":[{"internalType":"uint256","name":"","type":"uint256"}],"stateMutability":"view","type":"function"},{"inputs":[],"name":"buyLiquidityFee","outputs":[{"internalType":"uint256","name":"","type":"uint256"}],"stateMutability":"view","type":"function"},{"inputs":[],"name":"buyMarketingFee","outputs":[{"internalType":"uint256","name":"","type":"uint256"}],"stateMutability":"view","type":"function"},{"inputs":[],"name":"buyTotalFees","outputs":[{"internalType":"uint256","name":"","type":"uint256"}],"stateMutability":"view","type":"function"},{"inputs":[],"name":"deadAddress","outputs":[{"internalType":"address","name":"","type":"address"}],"stateMutability":"view","type":"function"},{"inputs":[],"name":"decimals","outputs":[{"internalType":"uint8","name":"","type":"uint8"}],"stateMutability":"view","type":"function"},{"inputs":[{"internalType":"address","name":"spender","type":"address"},{"internalType":"uint256","name":"subtractedValue","type":"uint256"}],"name":"decreaseAllowance","outputs":[{"internalType":"bool","name":"","type":"bool"}],"stateMutability":"nonpayable","type":"function"},{"inputs":[],"name":"disableTransferDelay","outputs":[{"internalType":"bool","name":"","type":"bool"}],"stateMutability":"nonpayable","type":"function"},{"inputs":[],"name":"enableTrading","outputs":[],"stateMutability":"nonpayable","type":"function"},{"inputs":[{"internalType":"address","name":"account","type":"address"},{"internalType":"bool","name":"excluded","type":"bool"}],"name":"excludeFromFees","outputs":[],"stateMutability":"nonpayable","type":"function"},{"inputs":[{"internalType":"address","name":"updAds","type":"address"},{"internalType":"bool","name":"isEx","type":"bool"}],"name":"excludeFromMaxTransaction","outputs":[],"stateMutability":"nonpayable","type":"function"},{"inputs":[{"internalType":"address","name":"spender","type":"address"},{"internalType":"uint256","name":"addedValue","type":"uint256"}],"name":"increaseAllowance","outputs":[{"internalType":"bool","name":"","type":"bool"}],"stateMutability":"nonpayable","type":"function"},{"inputs":[{"internalType":"address","name":"account","type":"address"}],"name":"isExcludedFromFees","outputs":[{"internalType":"bool","name":"","type":"bool"}],"stateMutability":"view","type":"function"},{"inputs":[],"name":"lastLpBurnTime","outputs":[{"internalType":"uint256","name":"","type":"uint256"}],"stateMutability":"view","type":"function"},{"inputs":[],"name":"lastManualLpBurnTime","outputs":[{"internalType":"uint256","name":"","type":"uint256"}],"stateMutability":"view","type":"function"},{"inputs":[],"name":"limitsInEffect","outputs":[{"internalType":"bool","name":"","type":"bool"}],"stateMutability":"view","type":"function"},{"inputs":[],"name":"lpBurnEnabled","outputs":[{"internalType":"bool","name":"","type":"bool"}],"stateMutability":"view","type":"function"},{"inputs":[],"name":"lpBurnFrequency","outputs":[{"internalType":"uint256","name":"","type":"uint256"}],"stateMutability":"view","type":"function"},{"inputs":[],"name":"manualBurnFrequency","outputs":[{"internalType":"uint256","name":"","type":"uint256"}],"stateMutability":"view","type":"function"},{"inputs":[{"internalType":"uint256","name":"percent","type":"uint256"}],"name":"manualBurnLiquidityPairTokens","outputs":[{"internalType":"bool","name":"","type":"bool"}],"stateMutability":"nonpayable","type":"function"},{"inputs":[],"name":"maxTransactionAmount","outputs":[{"internalType":"uint256","name":"","type":"uint256"}],"stateMutability":"view","type":"function"},{"inputs":[],"name":"maxWallet","outputs":[{"internalType":"uint256","name":"","type":"uint256"}],"stateMutability":"view","type":"function"},{"inputs":[],"name":"name","outputs":[{"internalType":"string","name":"","type":"string"}],"stateMutability":"view","type":"function"},{"inputs":[],"name":"owner","outputs":[{"internalType":"address payable","name":"","type":"address"}],"stateMutability":"view","type":"function"},{"inputs":[],"name":"percentForLPBurn","outputs":[{"internalType":"uint256","name":"","type":"uint256"}],"stateMutability":"view","type":"function"},{"inputs":[],"name":"removeLimits","outputs":[{"internalType":"bool","name":"","type":"bool"}],"stateMutability":"nonpayable","type":"function"},{"inputs":[],"name":"sellDevelopmentFee","outputs":[{"internalType":"uint256","name":"","type":"uint256"}],"stateMutability":"view","type":"function"},{"inputs":[],"name":"sellLiquidityFee","outputs":[{"internalType":"uint256","name":"","type":"uint256"}],"stateMutability":"view","type":"function"},{"inputs":[],"name":"sellMarketingFee","outputs":[{"internalType":"uint256","name":"","type":"uint256"}],"stateMutability":"view","type":"function"},{"inputs":[],"name":"sellTotalFees","outputs":[{"internalType":"uint256","name":"","type":"uint256"}],"stateMutability":"view","type":"function"},{"inputs":[{"internalType":"uint256","name":"_frequencyInSeconds","type":"uint256"},{"internalType":"uint256","name":"_percent","type":"uint256"},{"internalType":"bool","name":"_Enabled","type":"bool"}],"name":"setAutoLPBurnSettings","outputs":[],"stateMutability":"nonpayable","type":"function"},{"inputs":[{"internalType":"address","name":"pair","type":"address"},{"internalType":"bool","name":"value","type":"bool"}],"name":"setAutomatedMarketMakerPair","outputs":[],"stateMutability":"nonpayable","type":"function"},{"inputs":[],"name":"swapEnabled","outputs":[{"internalType":"bool","name":"","type":"bool"}],"stateMutability":"view","type":"function"},{"inputs":[],"name":"swapTokensAtAmount","outputs":[{"internalType":"uint256","name":"","type":"uint256"}],"stateMutability":"view","type":"function"},{"inputs":[],"name":"symbol","outputs":[{"internalType":"string","name":"","type":"string"}],"stateMutability":"view","type":"function"},{"inputs":[],"name":"tokensForDev","outputs":[{"internalType":"uint256","name":"","type":"uint256"}],"stateMutability":"view","type":"function"},{"inputs":[],"name":"tokensForLiquidity","outputs":[{"internalType":"uint256","name":"","type":"uint256"}],"stateMutability":"view","type":"function"},{"inputs":[],"name":"tokensForMarketing","outputs":[{"internalType":"uint256","name":"","type":"uint256"}],"stateMutability":"view","type":"function"},{"inputs":[],"name":"totalSupply","outputs":[{"internalType":"uint256","name":"","type":"uint256"}],"stateMutability":"view","type":"function"},{"inputs":[],"name":"tradingActive","outputs":[{"internalType":"bool","name":"","type":"bool"}],"stateMutability":"view","type":"function"},{"inputs":[{"internalType":"address","name":"to","type":"address"},{"internalType":"uint256","name":"amount","type":"uint256"}],"name":"transfer","outputs":[{"internalType":"bool","name":"","type":"bool"}],"stateMutability":"nonpayable","type":"function"},{"inputs":[],"name":"transferDelayEnabled","outputs":[{"internalType":"bool","name":"","type":"bool"}],"stateMutability":"view","type":"function"},{"inputs":[{"internalType":"address","name":"from","type":"address"},{"internalType":"address","name":"to","type":"address"},{"internalType":"uint256","name":"amount","type":"uint256"}],"name":"transferFrom","outputs":[{"internalType":"bool","name":"","type":"bool"}],"stateMutability":"nonpayable","type":"function"},{"inputs":[],"name":"uniswapV2Pair","outputs":[{"internalType":"address","name":"","type":"address"}],"stateMutability":"view","type":"function"},{"inputs":[],"name":"uniswapV2Router","outputs":[{"internalType":"contract IUniswapV2Router02","name":"","type":"address"}],"stateMutability":"view","type":"function"},{"inputs":[{"internalType":"uint256","name":"_marketingFee","type":"uint256"},{"internalType":"uint256","name":"_liquidityFee","type":"uint256"},{"internalType":"uint256","name":"_developmentFee","type":"uint256"}],"name":"updateBuyFees","outputs":[],"stateMutability":"nonpayable","type":"function"},{"inputs":[{"internalType":"address","name":"newWallet","type":"address"}],"name":"updateDevelopmentWalletInfo","outputs":[],"stateMutability":"nonpayable","type":"function"},{"inputs":[{"internalType":"address","name":"newMarketingWallet","type":"address"}],"name":"updateMarketingWalletInfo","outputs":[],"stateMutability":"nonpayable","type":"function"},{"inputs":[{"internalType":"uint256","name":"newNum","type":"uint256"}],"name":"updateMaxTxnAmount","outputs":[],"stateMutability":"nonpayable","type":"function"},{"inputs":[{"internalType":"uint256","name":"newNum","type":"uint256"}],"name":"updateMaxWalletAmount","outputs":[],"stateMutability":"nonpayable","type":"function"},{"inputs":[{"internalType":"uint256","name":"_marketingFee","type":"uint256"},{"internalType":"uint256","name":"_liquidityFee","type":"uint256"},{"internalType":"uint256","name":"_developmentFee","type":"uint256"}],"name":"updateSellFees","outputs":[],"stateMutability":"nonpayable","type":"function"},{"inputs":[{"internalType":"bool","name":"enabled","type":"bool"}],"name":"updateSwapEnabled","outputs":[],"stateMutability":"nonpayable","type":"function"},{"inputs":[{"internalType":"uint256","name":"newAmount","type":"uint256"}],"name":"updateSwapTokensAtAmount","outputs":[{"internalType":"bool","name":"","type":"bool"}],"stateMutability":"nonpayable","type":"function"},{"stateMutability":"payable","type":"receive"}],"evm":{"bytecode":{"linkReferences":{},"object":"60c06040526000600b556000600c60006101000a81548160ff021916908315150217905550610e10600d55610708600f556001601160006101000a81548160ff0219169083151502179055506000601160016101000a81548160ff0219169083151502179055506001601160026101000a81548160ff0219169083151502179055506001601360006101000a81548160ff021916908315150217905550348015620000a957600080fd5b506040518060400160405280600881526020017f4469636b426574730000000000000000000000000000000000000000000000008152506040518060400160405280600681526020017f244449434b530000000000000000000000000000000000000000000000000000815250816003908162000127919062000cbe565b50806004908162000139919062000cbe565b50505033600560006101000a81548173ffffffffffffffffffffffffffffffffffffffff021916908373ffffffffffffffffffffffffffffffffffffffff1602179055506000737a250d5630b4cf539739df2c5dacb4c659f2488d9050620001a98160016200060060201b60201c565b8073ffffffffffffffffffffffffffffffffffffffff1660808173ffffffffffffffffffffffffffffffffffffffff16815250508073ffffffffffffffffffffffffffffffffffffffff1663c45a01556040518163ffffffff1660e01b8152600401602060405180830381865afa15801562000229573d6000803e3d6000fd5b505050506040513d601f19601f820116820180604052508101906200024f919062000e0f565b73ffffffffffffffffffffffffffffffffffffffff1663c9c65396308373ffffffffffffffffffffffffffffffffffffffff1663ad5c46486040518163ffffffff1660e01b8152600401602060405180830381865afa158015620002b7573d6000803e3d6000fd5b505050506040513d601f19601f82011682018060405250810190620002dd919062000e0f565b6040518363ffffffff1660e01b8152600401620002fc92919062000e52565b6020604051808303816000875af11580156200031c573d6000803e3d6000fd5b505050506040513d601f19601f8201168201806040525081019062000342919062000e0f565b73ffffffffffffffffffffffffffffffffffffffff1660a08173ffffffffffffffffffffffffffffffffffffffff16815250506200038a60a05160016200060060201b60201c565b6200039f60a0516001620006ee60201b60201c565b6000600590506000806000600f90506000806000678ac7230489e800009050692a5a058fc295ed000000600881905550692a5a058fc295ed000000600a81905550612710600a82620003f2919062000eae565b620003fe919062000f28565b6009819055508660158190555085601681905550846017819055506017546016546015546200042e919062000f60565b6200043a919062000f60565b6014819055508360198190555082601a8190555081601b81905550601b54601a546019546200046a919062000f60565b62000476919062000f60565b601881905550738441d739fde0e6b3faacffd5f2c590ff7391309a600660006101000a81548173ffffffffffffffffffffffffffffffffffffffff021916908373ffffffffffffffffffffffffffffffffffffffff160217905550738441d739fde0e6b3faacffd5f2c590ff7391309a600760006101000a81548173ffffffffffffffffffffffffffffffffffffffff021916908373ffffffffffffffffffffffffffffffffffffffff1602179055506200055b600560009054906101000a900473ffffffffffffffffffffffffffffffffffffffff1660016200078f60201b60201c565b6200056e3060016200078f60201b60201c565b6200058361dead60016200078f60201b60201c565b620005b8600560009054906101000a900473ffffffffffffffffffffffffffffffffffffffff1660016200060060201b60201c565b620005cb3060016200060060201b60201c565b620005e061dead60016200060060201b60201c565b620005f23382620008cd60201b60201c565b50505050505050506200111e565b600560009054906101000a900473ffffffffffffffffffffffffffffffffffffffff1673ffffffffffffffffffffffffffffffffffffffff163373ffffffffffffffffffffffffffffffffffffffff161462000693576040517f08c379a00000000000000000000000000000000000000000000000000000000081526004016200068a9062001022565b60405180910390fd5b80602160008473ffffffffffffffffffffffffffffffffffffffff1673ffffffffffffffffffffffffffffffffffffffff16815260200190815260200160002060006101000a81548160ff0219169083151502179055505050565b80602260008473ffffffffffffffffffffffffffffffffffffffff1673ffffffffffffffffffffffffffffffffffffffff16815260200190815260200160002060006101000a81548160ff0219169083151502179055508015158273ffffffffffffffffffffffffffffffffffffffff167fffa9187bf1f18bf477bd0ea1bcbb64e93b6a98132473929edfce215cd9b16fab60405160405180910390a35050565b600560009054906101000a900473ffffffffffffffffffffffffffffffffffffffff1673ffffffffffffffffffffffffffffffffffffffff163373ffffffffffffffffffffffffffffffffffffffff161462000822576040517f08c379a0000000000000000000000000000000000000000000000000000000008152600401620008199062001022565b60405180910390fd5b80602060008473ffffffffffffffffffffffffffffffffffffffff1673ffffffffffffffffffffffffffffffffffffffff16815260200190815260200160002060006101000a81548160ff0219169083151502179055508173ffffffffffffffffffffffffffffffffffffffff167f9d8f7706ea1113d1a167b526eca956215946dd36cc7df39eb16180222d8b5df782604051620008c1919062001061565b60405180910390a25050565b600073ffffffffffffffffffffffffffffffffffffffff168273ffffffffffffffffffffffffffffffffffffffff16036200093f576040517f08c379a00000000000000000000000000000000000000000000000000000000081526004016200093690620010ce565b60405180910390fd5b620009536000838362000a3a60201b60201c565b806002600082825462000967919062000f60565b92505081905550806000808473ffffffffffffffffffffffffffffffffffffffff1673ffffffffffffffffffffffffffffffffffffffff168152602001908152602001600020600082825401925050819055508173ffffffffffffffffffffffffffffffffffffffff16600073ffffffffffffffffffffffffffffffffffffffff167fddf252ad1be2c89b69c2b068fc378daa952ba7f163c4a11628f55a4df523b3ef8360405162000a1a919062001101565b60405180910390a362000a366000838362000a3f60201b60201c565b5050565b505050565b505050565b600081519050919050565b7f4e487b7100000000000000000000000000000000000000000000000000000000600052604160045260246000fd5b7f4e487b7100000000000000000000000000000000000000000000000000000000600052602260045260246000fd5b6000600282049050600182168062000ac657607f821691505b60208210810362000adc5762000adb62000a7e565b5b50919050565b60008190508160005260206000209050919050565b60006020601f8301049050919050565b600082821b905092915050565b60006008830262000b467fffffffffffffffffffffffffffffffffffffffffffffffffffffffffffffffff8262000b07565b62000b52868362000b07565b95508019841693508086168417925050509392505050565b6000819050919050565b6000819050919050565b600062000b9f62000b9962000b938462000b6a565b62000b74565b62000b6a565b9050919050565b6000819050919050565b62000bbb8362000b7e565b62000bd362000bca8262000ba6565b84845462000b14565b825550505050565b600090565b62000bea62000bdb565b62000bf781848462000bb0565b505050565b5b8181101562000c1f5762000c1360008262000be0565b60018101905062000bfd565b5050565b601f82111562000c6e5762000c388162000ae2565b62000c438462000af7565b8101602085101562000c53578190505b62000c6b62000c628562000af7565b83018262000bfc565b50505b505050565b600082821c905092915050565b600062000c936000198460080262000c73565b1980831691505092915050565b600062000cae838362000c80565b9150826002028217905092915050565b62000cc98262000a44565b67ffffffffffffffff81111562000ce55762000ce462000a4f565b5b62000cf1825462000aad565b62000cfe82828562000c23565b600060209050601f83116001811462000d36576000841562000d21578287015190505b62000d2d858262000ca0565b86555062000d9d565b601f19841662000d468662000ae2565b60005b8281101562000d705784890151825560018201915060208501945060208101905062000d49565b8683101562000d90578489015162000d8c601f89168262000c80565b8355505b6001600288020188555050505b505050505050565b600080fd5b600073ffffffffffffffffffffffffffffffffffffffff82169050919050565b600062000dd78262000daa565b9050919050565b62000de98162000dca565b811462000df557600080fd5b50565b60008151905062000e098162000dde565b92915050565b60006020828403121562000e285762000e2762000da5565b5b600062000e388482850162000df8565b91505092915050565b62000e4c8162000dca565b82525050565b600060408201905062000e69600083018562000e41565b62000e78602083018462000e41565b9392505050565b7f4e487b7100000000000000000000000000000000000000000000000000000000600052601160045260246000fd5b600062000ebb8262000b6a565b915062000ec88362000b6a565b925082820262000ed88162000b6a565b9150828204841483151762000ef25762000ef162000e7f565b5b5092915050565b7f4e487b7100000000000000000000000000000000000000000000000000000000600052601260045260246000fd5b600062000f358262000b6a565b915062000f428362000b6a565b92508262000f555762000f5462000ef9565b5b828204905092915050565b600062000f6d8262000b6a565b915062000f7a8362000b6a565b925082820190508082111562000f955762000f9462000e7f565b5b92915050565b600082825260208201905092915050565b7f4f6e6c7920746865206f776e65722063616e2063616c6c20746869732066756e60008201527f6374696f6e2e0000000000000000000000000000000000000000000000000000602082015250565b60006200100a60268362000f9b565b9150620010178262000fac565b604082019050919050565b600060208201905081810360008301526200103d8162000ffb565b9050919050565b60008115159050919050565b6200105b8162001044565b82525050565b600060208201905062001078600083018462001050565b92915050565b7f45524332303a206d696e7420746f20746865207a65726f206164647265737300600082015250565b6000620010b6601f8362000f9b565b9150620010c3826200107e565b602082019050919050565b60006020820190508181036000830152620010e981620010a7565b9050919050565b620010fb8162000b6a565b82525050565b6000602082019050620011186000830184620010f0565b92915050565b60805160a051615f1a620011a66000396000818161122401528181611c88015281816126c50152818161277c015281816127a901528181612fdf01528181614012015281816140cb01526140f8015260008181610f3c01528181612f870152818161426e0152818161434f015281816143760152818161441201526144390152615f1a6000f3fe60806040526004361061039b5760003560e01c80638095d564116101dc578063c024666811610102578063d85ba063116100a0578063f11a24d31161006f578063f11a24d314610da7578063f637434214610dd2578063f8b45b0514610dfd578063fe72b27a14610e28576103a2565b8063d85ba06314610ce9578063dd62ed3e14610d14578063e2f4560514610d51578063e884f26014610d7c576103a2565b8063c876d0b9116100dc578063c876d0b914610c2d578063c8c8ebe414610c58578063cbf24c0614610c83578063d257b34f14610cac576103a2565b8063c024666814610bb2578063c17b5b8c14610bdb578063c18bc19514610c04576103a2565b80639ec22c0e1161017a578063a9059cbb11610149578063a9059cbb14610ae2578063b204141114610b1f578063b62496f514610b4a578063bbc0c74214610b87576103a2565b80639ec22c0e14610a245780639fccce3214610a4f578063a457c2d714610a7a578063a4c82a0014610ab7576103a2565b806392136913116101b6578063921369131461097c578063924de9b7146109a757806395d89b41146109d05780639a7a23d6146109fb576103a2565b80638095d564146109115780638a8c523c1461093a5780638da5cb5b14610951576103a2565b8063313ce567116102c15780636a486a8e1161025f578063751039fc1161022e578063751039fc146108695780637571336a146108945780637bce5a04146108bd5780637d831a8b146108e8576103a2565b80636a486a8e146107ad5780636ddd1713146107d857806370a0823114610803578063730c188814610840576103a2565b806349bd5a5e1161029b57806349bd5a5e146106f15780634a62bb651461071c5780634fbee19314610747578063535e02d814610784576103a2565b8063313ce56714610660578063395093511461068b578063455a4396146106c8576103a2565b8063199ffc721161033957806323b872dd1161030857806323b872dd146105a257806327c8f835146105df5780632c3e486c1461060a5780632e82f1a014610635576103a2565b8063199ffc72146104f85780631a8145bb146105235780631f3fed8f1461054e578063203e727e14610579576103a2565b80631694505e116103755780631694505e1461044c57806318160ddd14610477578063184c16c5146104a257806318a94cf1146104cd576103a2565b806306fdde03146103a7578063095ea7b3146103d257806310d5de531461040f576103a2565b366103a257005b600080fd5b3480156103b357600080fd5b506103bc610e65565b6040516103c99190614578565b60405180910390f35b3480156103de57600080fd5b506103f960048036038101906103f49190614642565b610ef7565b604051610406919061469d565b60405180910390f35b34801561041b57600080fd5b50610436600480360381019061043191906146b8565b610f1a565b604051610443919061469d565b60405180910390f35b34801561045857600080fd5b50610461610f3a565b60405161046e9190614744565b60405180910390f35b34801561048357600080fd5b5061048c610f5e565b604051610499919061476e565b60405180910390f35b3480156104ae57600080fd5b506104b7610f68565b6040516104c4919061476e565b60405180910390f35b3480156104d957600080fd5b506104e2610f6e565b6040516104ef919061476e565b60405180910390f35b34801561050457600080fd5b5061050d610f74565b60405161051a919061476e565b60405180910390f35b34801561052f57600080fd5b50610538610f7a565b604051610545919061476e565b60405180910390f35b34801561055a57600080fd5b50610563610f80565b604051610570919061476e565b60405180910390f35b34801561058557600080fd5b506105a0600480360381019061059b9190614789565b610f86565b005b3480156105ae57600080fd5b506105c960048036038101906105c491906147b6565b6110a9565b6040516105d6919061469d565b60405180910390f35b3480156105eb57600080fd5b506105f46110d8565b6040516106019190614818565b60405180910390f35b34801561061657600080fd5b5061061f6110de565b60405161062c919061476e565b60405180910390f35b34801561064157600080fd5b5061064a6110e4565b604051610657919061469d565b60405180910390f35b34801561066c57600080fd5b506106756110f7565b604051610682919061484f565b60405180910390f35b34801561069757600080fd5b506106b260048036038101906106ad9190614642565b611100565b6040516106bf919061469d565b60405180910390f35b3480156106d457600080fd5b506106ef60048036038101906106ea9190614896565b611137565b005b3480156106fd57600080fd5b50610706611222565b6040516107139190614818565b60405180910390f35b34801561072857600080fd5b50610731611246565b60405161073e919061469d565b60405180910390f35b34801561075357600080fd5b5061076e600480360381019061076991906146b8565b611259565b60405161077b919061469d565b60405180910390f35b34801561079057600080fd5b506107ab60048036038101906107a691906146b8565b6112af565b005b3480156107b957600080fd5b506107c26113ff565b6040516107cf919061476e565b60405180910390f35b3480156107e457600080fd5b506107ed611405565b6040516107fa919061469d565b60405180910390f35b34801561080f57600080fd5b5061082a600480360381019061082591906146b8565b611418565b604051610837919061476e565b60405180910390f35b34801561084c57600080fd5b50610867600480360381019061086291906148d6565b611460565b005b34801561087557600080fd5b5061087e6115b4565b60405161088b919061469d565b60405180910390f35b3480156108a057600080fd5b506108bb60048036038101906108b69190614896565b611668565b005b3480156108c957600080fd5b506108d2611753565b6040516108df919061476e565b60405180910390f35b3480156108f457600080fd5b5061090f600480360381019061090a91906146b8565b611759565b005b34801561091d57600080fd5b5061093860048036038101906109339190614929565b6118a9565b005b34801561094657600080fd5b5061094f6119bc565b005b34801561095d57600080fd5b50610966611a8b565b604051610973919061499d565b60405180910390f35b34801561098857600080fd5b50610991611ab1565b60405161099e919061476e565b60405180910390f35b3480156109b357600080fd5b506109ce60048036038101906109c991906149b8565b611ab7565b005b3480156109dc57600080fd5b506109e5611b64565b6040516109f29190614578565b60405180910390f35b348015610a0757600080fd5b50610a226004803603810190610a1d9190614896565b611bf6565b005b348015610a3057600080fd5b50610a39611d22565b604051610a46919061476e565b60405180910390f35b348015610a5b57600080fd5b50610a64611d28565b604051610a71919061476e565b60405180910390f35b348015610a8657600080fd5b50610aa16004803603810190610a9c9190614642565b611d2e565b604051610aae919061469d565b60405180910390f35b348015610ac357600080fd5b50610acc611da5565b604051610ad9919061476e565b60405180910390f35b348015610aee57600080fd5b50610b096004803603810190610b049190614642565b611dab565b604051610b16919061469d565b60405180910390f35b348015610b2b57600080fd5b50610b34611dce565b604051610b41919061476e565b60405180910390f35b348015610b5657600080fd5b50610b716004803603810190610b6c91906146b8565b611dd4565b604051610b7e919061469d565b60405180910390f35b348015610b9357600080fd5b50610b9c611df4565b604051610ba9919061469d565b60405180910390f35b348015610bbe57600080fd5b50610bd96004803603810190610bd49190614896565b611e07565b005b348015610be757600080fd5b50610c026004803603810190610bfd9190614929565b611f40565b005b348015610c1057600080fd5b50610c2b6004803603810190610c269190614789565b612053565b005b348015610c3957600080fd5b50610c42612176565b604051610c4f919061469d565b60405180910390f35b348015610c6457600080fd5b50610c6d612189565b604051610c7a919061476e565b60405180910390f35b348015610c8f57600080fd5b50610caa6004803603810190610ca59190614b2d565b61218f565b005b348015610cb857600080fd5b50610cd36004803603810190610cce9190614789565b6122b4565b604051610ce0919061469d565b60405180910390f35b348015610cf557600080fd5b50610cfe61241d565b604051610d0b919061476e565b60405180910390f35b348015610d2057600080fd5b50610d3b6004803603810190610d369190614b76565b612423565b604051610d48919061476e565b60405180910390f35b348015610d5d57600080fd5b50610d666124aa565b604051610d73919061476e565b60405180910390f35b348015610d8857600080fd5b50610d916124b0565b604051610d9e919061469d565b60405180910390f35b348015610db357600080fd5b50610dbc612564565b604051610dc9919061476e565b60405180910390f35b348015610dde57600080fd5b50610de761256a565b604051610df4919061476e565b60405180910390f35b348015610e0957600080fd5b50610e12612570565b604051610e1f919061476e565b60405180910390f35b348015610e3457600080fd5b50610e4f6004803603810190610e4a9190614789565b612576565b604051610e5c919061469d565b60405180910390f35b606060038054610e7490614be5565b80601f0160208091040260200160405190810160405280929190818152602001828054610ea090614be5565b8015610eed5780601f10610ec257610100808354040283529160200191610eed565b820191906000526020600020905b815481529060010190602001808311610ed057829003601f168201915b5050505050905090565b600080610f02612862565b9050610f0f81858561286a565b600191505092915050565b60216020528060005260406000206000915054906101000a900460ff1681565b7f000000000000000000000000000000000000000000000000000000000000000081565b6000600254905090565b600f5481565b601b5481565b600b5481565b601d5481565b601c5481565b600560009054906101000a900473ffffffffffffffffffffffffffffffffffffffff1673ffffffffffffffffffffffffffffffffffffffff163373ffffffffffffffffffffffffffffffffffffffff1614611016576040517f08c379a000000000000000000000000000000000000000000000000000000000815260040161100d90614c88565b60405180910390fd5b670de0b6b3a76400006103e8600161102c610f5e565b6110369190614cd7565b6110409190614d48565b61104a9190614d48565b81101561108c576040517f08c379a000000000000000000000000000000000000000000000000000000000815260040161108390614deb565b60405180910390fd5b670de0b6b3a7640000816110a09190614cd7565b60088190555050565b6000806110b4612862565b90506110c1858285612a33565b6110cc858585612abf565b60019150509392505050565b61dead81565b600d5481565b600c60009054906101000a900460ff1681565b60006012905090565b60008061110b612862565b905061112c81858561111d8589612423565b6111279190614e0b565b61286a565b600191505092915050565b600560009054906101000a900473ffffffffffffffffffffffffffffffffffffffff1673ffffffffffffffffffffffffffffffffffffffff163373ffffffffffffffffffffffffffffffffffffffff16146111c7576040517f08c379a00000000000000000000000000000000000000000000000000000000081526004016111be90614c88565b60405180910390fd5b80601f60008473ffffffffffffffffffffffffffffffffffffffff1673ffffffffffffffffffffffffffffffffffffffff16815260200190815260200160002060006101000a81548160ff0219169083151502179055505050565b7f000000000000000000000000000000000000000000000000000000000000000081565b601160009054906101000a900460ff1681565b6000602060008373ffffffffffffffffffffffffffffffffffffffff1673ffffffffffffffffffffffffffffffffffffffff16815260200190815260200160002060009054906101000a900460ff169050919050565b600560009054906101000a900473ffffffffffffffffffffffffffffffffffffffff1673ffffffffffffffffffffffffffffffffffffffff163373ffffffffffffffffffffffffffffffffffffffff161461133f576040517f08c379a000000000000000000000000000000000000000000000000000000000815260040161133690614c88565b60405180910390fd5b600760009054906101000a900473ffffffffffffffffffffffffffffffffffffffff1673ffffffffffffffffffffffffffffffffffffffff168173ffffffffffffffffffffffffffffffffffffffff167ffaf1b77ed79f6e898c44dd8ab36b330c7b2fd39bcaab05ed6362480df870396560405160405180910390a380600760006101000a81548173ffffffffffffffffffffffffffffffffffffffff021916908373ffffffffffffffffffffffffffffffffffffffff16021790555050565b60185481565b601160029054906101000a900460ff1681565b60008060008373ffffffffffffffffffffffffffffffffffffffff1673ffffffffffffffffffffffffffffffffffffffff168152602001908152602001600020549050919050565b600560009054906101000a900473ffffffffffffffffffffffffffffffffffffffff1673ffffffffffffffffffffffffffffffffffffffff163373ffffffffffffffffffffffffffffffffffffffff16146114f0576040517f08c379a00000000000000000000000000000000000000000000000000000000081526004016114e790614c88565b60405180910390fd5b610258831015611535576040517f08c379a000000000000000000000000000000000000000000000000000000000815260040161152c90614eb1565b60405180910390fd5b6103e88211158015611548575060008210155b611587576040517f08c379a000000000000000000000000000000000000000000000000000000000815260040161157e90614f43565b60405180910390fd5b82600d8190555081600b8190555080600c60006101000a81548160ff021916908315150217905550505050565b6000600560009054906101000a900473ffffffffffffffffffffffffffffffffffffffff1673ffffffffffffffffffffffffffffffffffffffff163373ffffffffffffffffffffffffffffffffffffffff1614611646576040517f08c379a000000000000000000000000000000000000000000000000000000000815260040161163d90614c88565b60405180910390fd5b6000601160006101000a81548160ff0219169083151502179055506001905090565b600560009054906101000a900473ffffffffffffffffffffffffffffffffffffffff1673ffffffffffffffffffffffffffffffffffffffff163373ffffffffffffffffffffffffffffffffffffffff16146116f8576040517f08c379a00000000000000000000000000000000000000000000000000000000081526004016116ef90614c88565b60405180910390fd5b80602160008473ffffffffffffffffffffffffffffffffffffffff1673ffffffffffffffffffffffffffffffffffffffff16815260200190815260200160002060006101000a81548160ff0219169083151502179055505050565b60155481565b600560009054906101000a900473ffffffffffffffffffffffffffffffffffffffff1673ffffffffffffffffffffffffffffffffffffffff163373ffffffffffffffffffffffffffffffffffffffff16146117e9576040517f08c379a00000000000000000000000000000000000000000000000000000000081526004016117e090614c88565b60405180910390fd5b600660009054906101000a900473ffffffffffffffffffffffffffffffffffffffff1673ffffffffffffffffffffffffffffffffffffffff168173ffffffffffffffffffffffffffffffffffffffff167fa751787977eeb3902e30e1d19ca00c6ad274a1f622c31a206e32366700b0567460405160405180910390a380600660006101000a81548173ffffffffffffffffffffffffffffffffffffffff021916908373ffffffffffffffffffffffffffffffffffffffff16021790555050565b600560009054906101000a900473ffffffffffffffffffffffffffffffffffffffff1673ffffffffffffffffffffffffffffffffffffffff163373ffffffffffffffffffffffffffffffffffffffff1614611939576040517f08c379a000000000000000000000000000000000000000000000000000000000815260040161193090614c88565b60405180910390fd5b8260158190555081601681905550806017819055506017546016546015546119619190614e0b565b61196b9190614e0b565b601481905550602360145411156119b7576040517f08c379a00000000000000000000000000000000000000000000000000000000081526004016119ae90614faf565b60405180910390fd5b505050565b600560009054906101000a900473ffffffffffffffffffffffffffffffffffffffff1673ffffffffffffffffffffffffffffffffffffffff163373ffffffffffffffffffffffffffffffffffffffff1614611a4c576040517f08c379a0000000000000000000000000000000000000000000000000000000008152600401611a4390614c88565b60405180910390fd5b6001601160016101000a81548160ff0219169083151502179055506001601160026101000a81548160ff02191690831515021790555042600e81905550565b600560009054906101000a900473ffffffffffffffffffffffffffffffffffffffff1681565b60195481565b600560009054906101000a900473ffffffffffffffffffffffffffffffffffffffff1673ffffffffffffffffffffffffffffffffffffffff163373ffffffffffffffffffffffffffffffffffffffff1614611b47576040517f08c379a0000000000000000000000000000000000000000000000000000000008152600401611b3e90614c88565b60405180910390fd5b80601160026101000a81548160ff02191690831515021790555050565b606060048054611b7390614be5565b80601f0160208091040260200160405190810160405280929190818152602001828054611b9f90614be5565b8015611bec5780601f10611bc157610100808354040283529160200191611bec565b820191906000526020600020905b815481529060010190602001808311611bcf57829003601f168201915b5050505050905090565b600560009054906101000a900473ffffffffffffffffffffffffffffffffffffffff1673ffffffffffffffffffffffffffffffffffffffff163373ffffffffffffffffffffffffffffffffffffffff1614611c86576040517f08c379a0000000000000000000000000000000000000000000000000000000008152600401611c7d90614c88565b60405180910390fd5b7f000000000000000000000000000000000000000000000000000000000000000073ffffffffffffffffffffffffffffffffffffffff168273ffffffffffffffffffffffffffffffffffffffff1603611d14576040517f08c379a0000000000000000000000000000000000000000000000000000000008152600401611d0b90615041565b60405180910390fd5b611d1e82826139bf565b5050565b60105481565b601e5481565b600080611d39612862565b90506000611d478286612423565b905083811015611d8c576040517f08c379a0000000000000000000000000000000000000000000000000000000008152600401611d83906150d3565b60405180910390fd5b611d99828686840361286a565b60019250505092915050565b600e5481565b600080611db6612862565b9050611dc3818585612abf565b600191505092915050565b60175481565b60226020528060005260406000206000915054906101000a900460ff1681565b601160019054906101000a900460ff1681565b600560009054906101000a900473ffffffffffffffffffffffffffffffffffffffff1673ffffffffffffffffffffffffffffffffffffffff163373ffffffffffffffffffffffffffffffffffffffff1614611e97576040517f08c379a0000000000000000000000000000000000000000000000000000000008152600401611e8e90614c88565b60405180910390fd5b80602060008473ffffffffffffffffffffffffffffffffffffffff1673ffffffffffffffffffffffffffffffffffffffff16815260200190815260200160002060006101000a81548160ff0219169083151502179055508173ffffffffffffffffffffffffffffffffffffffff167f9d8f7706ea1113d1a167b526eca956215946dd36cc7df39eb16180222d8b5df782604051611f34919061469d565b60405180910390a25050565b600560009054906101000a900473ffffffffffffffffffffffffffffffffffffffff1673ffffffffffffffffffffffffffffffffffffffff163373ffffffffffffffffffffffffffffffffffffffff1614611fd0576040517f08c379a0000000000000000000000000000000000000000000000000000000008152600401611fc790614c88565b60405180910390fd5b8260198190555081601a8190555080601b81905550601b54601a54601954611ff89190614e0b565b6120029190614e0b565b6018819055506028601854111561204e576040517f08c379a00000000000000000000000000000000000000000000000000000000081526004016120459061513f565b60405180910390fd5b505050565b600560009054906101000a900473ffffffffffffffffffffffffffffffffffffffff1673ffffffffffffffffffffffffffffffffffffffff163373ffffffffffffffffffffffffffffffffffffffff16146120e3576040517f08c379a00000000000000000000000000000000000000000000000000000000081526004016120da90614c88565b60405180910390fd5b670de0b6b3a76400006103e860056120f9610f5e565b6121039190614cd7565b61210d9190614d48565b6121179190614d48565b811015612159576040517f08c379a0000000000000000000000000000000000000000000000000000000008152600401612150906151d1565b60405180910390fd5b670de0b6b3a76400008161216d9190614cd7565b600a8190555050565b601360009054906101000a900460ff1681565b60085481565b600560009054906101000a900473ffffffffffffffffffffffffffffffffffffffff1673ffffffffffffffffffffffffffffffffffffffff163373ffffffffffffffffffffffffffffffffffffffff161461221f576040517f08c379a000000000000000000000000000000000000000000000000000000000815260040161221690614c88565b60405180910390fd5b60005b81518110156122b0576001601f6000848481518110612244576122436151f1565b5b602002602001015173ffffffffffffffffffffffffffffffffffffffff1673ffffffffffffffffffffffffffffffffffffffff16815260200190815260200160002060006101000a81548160ff02191690831515021790555080806122a890615220565b915050612222565b5050565b6000600560009054906101000a900473ffffffffffffffffffffffffffffffffffffffff1673ffffffffffffffffffffffffffffffffffffffff163373ffffffffffffffffffffffffffffffffffffffff1614612346576040517f08c379a000000000000000000000000000000000000000000000000000000000815260040161233d90614c88565b60405180910390fd5b620186a06001612354610f5e565b61235e9190614cd7565b6123689190614d48565b8210156123aa576040517f08c379a00000000000000000000000000000000000000000000000000000000081526004016123a1906152da565b60405180910390fd5b6103e860056123b7610f5e565b6123c19190614cd7565b6123cb9190614d48565b82111561240d576040517f08c379a00000000000000000000000000000000000000000000000000000000081526004016124049061536c565b60405180910390fd5b8160098190555060019050919050565b60145481565b6000600160008473ffffffffffffffffffffffffffffffffffffffff1673ffffffffffffffffffffffffffffffffffffffff16815260200190815260200160002060008373ffffffffffffffffffffffffffffffffffffffff1673ffffffffffffffffffffffffffffffffffffffff16815260200190815260200160002054905092915050565b60095481565b6000600560009054906101000a900473ffffffffffffffffffffffffffffffffffffffff1673ffffffffffffffffffffffffffffffffffffffff163373ffffffffffffffffffffffffffffffffffffffff1614612542576040517f08c379a000000000000000000000000000000000000000000000000000000000815260040161253990614c88565b60405180910390fd5b6000601360006101000a81548160ff0219169083151502179055506001905090565b60165481565b601a5481565b600a5481565b6000600560009054906101000a900473ffffffffffffffffffffffffffffffffffffffff1673ffffffffffffffffffffffffffffffffffffffff163373ffffffffffffffffffffffffffffffffffffffff1614612608576040517f08c379a00000000000000000000000000000000000000000000000000000000081526004016125ff90614c88565b60405180910390fd5b600f546010546126189190614e0b565b4211612659576040517f08c379a0000000000000000000000000000000000000000000000000000000008152600401612650906153d8565b60405180910390fd5b6103e882111561269e576040517f08c379a00000000000000000000000000000000000000000000000000000000081526004016126959061546a565b60405180910390fd5b4260108190555060003073ffffffffffffffffffffffffffffffffffffffff166370a082317f00000000000000000000000000000000000000000000000000000000000000006040518263ffffffff1660e01b81526004016127009190614818565b602060405180830381865afa15801561271d573d6000803e3d6000fd5b505050506040513d601f19601f82011682018060405250810190612741919061549f565b9050600061276c61271061275e8685613a6090919063ffffffff16565b613a7690919063ffffffff16565b905060008111156127a5576127a47f000000000000000000000000000000000000000000000000000000000000000061dead83613a8c565b5b60007f000000000000000000000000000000000000000000000000000000000000000090508073ffffffffffffffffffffffffffffffffffffffff1663fff6cae96040518163ffffffff1660e01b8152600401600060405180830381600087803b15801561281257600080fd5b505af1158015612826573d6000803e3d6000fd5b505050507f8462566617872a3fbab94534675218431ff9e204063ee3f4f43d965626a39abb60405160405180910390a160019350505050919050565b600033905090565b600073ffffffffffffffffffffffffffffffffffffffff168373ffffffffffffffffffffffffffffffffffffffff16036128d9576040517f08c379a00000000000000000000000000000000000000000000000000000000081526004016128d09061553e565b60405180910390fd5b600073ffffffffffffffffffffffffffffffffffffffff168273ffffffffffffffffffffffffffffffffffffffff1603612948576040517f08c379a000000000000000000000000000000000000000000000000000000000815260040161293f906155d0565b60405180910390fd5b80600160008573ffffffffffffffffffffffffffffffffffffffff1673ffffffffffffffffffffffffffffffffffffffff16815260200190815260200160002060008473ffffffffffffffffffffffffffffffffffffffff1673ffffffffffffffffffffffffffffffffffffffff168152602001908152602001600020819055508173ffffffffffffffffffffffffffffffffffffffff168373ffffffffffffffffffffffffffffffffffffffff167f8c5be1e5ebec7d5bd14f71427d1e84f3dd0314c0f7b2291e5b200ac8c7c3b92583604051612a26919061476e565b60405180910390a3505050565b6000612a3f8484612423565b90507fffffffffffffffffffffffffffffffffffffffffffffffffffffffffffffffff8114612ab95781811015612aab576040517f08c379a0000000000000000000000000000000000000000000000000000000008152600401612aa29061563c565b60405180910390fd5b612ab8848484840361286a565b5b50505050565b600073ffffffffffffffffffffffffffffffffffffffff168373ffffffffffffffffffffffffffffffffffffffff1603612b2e576040517f08c379a0000000000000000000000000000000000000000000000000000000008152600401612b25906156ce565b60405180910390fd5b600073ffffffffffffffffffffffffffffffffffffffff168273ffffffffffffffffffffffffffffffffffffffff1603612b9d576040517f08c379a0000000000000000000000000000000000000000000000000000000008152600401612b94906156ce565b60405180910390fd5b601f60008373ffffffffffffffffffffffffffffffffffffffff1673ffffffffffffffffffffffffffffffffffffffff16815260200190815260200160002060009054906101000a900460ff1615612c2a576040517f08c379a0000000000000000000000000000000000000000000000000000000008152600401612c2190615760565b60405180910390fd5b601f60008473ffffffffffffffffffffffffffffffffffffffff1673ffffffffffffffffffffffffffffffffffffffff16815260200190815260200160002060009054906101000a900460ff1615612cb7576040517f08c379a0000000000000000000000000000000000000000000000000000000008152600401612cae906157f2565b60405180910390fd5b60008103612cd057612ccb83836000613a8c565b6139ba565b601160009054906101000a900460ff16156133e457600560009054906101000a900473ffffffffffffffffffffffffffffffffffffffff1673ffffffffffffffffffffffffffffffffffffffff168373ffffffffffffffffffffffffffffffffffffffff1614158015612d915750600560009054906101000a900473ffffffffffffffffffffffffffffffffffffffff1673ffffffffffffffffffffffffffffffffffffffff168273ffffffffffffffffffffffffffffffffffffffff1614155b8015612dca5750600073ffffffffffffffffffffffffffffffffffffffff168273ffffffffffffffffffffffffffffffffffffffff1614155b8015612e04575061dead73ffffffffffffffffffffffffffffffffffffffff168273ffffffffffffffffffffffffffffffffffffffff1614155b8015612e1d5750600560149054906101000a900460ff16155b156133e357601160019054906101000a900460ff16612f1757602060008473ffffffffffffffffffffffffffffffffffffffff1673ffffffffffffffffffffffffffffffffffffffff16815260200190815260200160002060009054906101000a900460ff1680612ed75750602060008373ffffffffffffffffffffffffffffffffffffffff1673ffffffffffffffffffffffffffffffffffffffff16815260200190815260200160002060009054906101000a900460ff165b612f16576040517f08c379a0000000000000000000000000000000000000000000000000000000008152600401612f0d9061585e565b60405180910390fd5b5b601360009054906101000a900460ff16156130fa57600560009054906101000a900473ffffffffffffffffffffffffffffffffffffffff1673ffffffffffffffffffffffffffffffffffffffff168273ffffffffffffffffffffffffffffffffffffffff1614158015612fd657507f000000000000000000000000000000000000000000000000000000000000000073ffffffffffffffffffffffffffffffffffffffff168273ffffffffffffffffffffffffffffffffffffffff1614155b801561302e57507f000000000000000000000000000000000000000000000000000000000000000073ffffffffffffffffffffffffffffffffffffffff168273ffffffffffffffffffffffffffffffffffffffff1614155b156130f95743601260003273ffffffffffffffffffffffffffffffffffffffff1673ffffffffffffffffffffffffffffffffffffffff16815260200190815260200160002054106130b4576040517f08c379a00000000000000000000000000000000000000000000000000000000081526004016130ab90615916565b60405180910390fd5b43601260003273ffffffffffffffffffffffffffffffffffffffff1673ffffffffffffffffffffffffffffffffffffffff168152602001908152602001600020819055505b5b602260008473ffffffffffffffffffffffffffffffffffffffff1673ffffffffffffffffffffffffffffffffffffffff16815260200190815260200160002060009054906101000a900460ff16801561319d5750602160008373ffffffffffffffffffffffffffffffffffffffff1673ffffffffffffffffffffffffffffffffffffffff16815260200190815260200160002060009054906101000a900460ff16155b15613244576008548111156131e7576040517f08c379a00000000000000000000000000000000000000000000000000000000081526004016131de906159a8565b60405180910390fd5b600a546131f383611418565b826131fe9190614e0b565b111561323f576040517f08c379a000000000000000000000000000000000000000000000000000000000815260040161323690615a14565b60405180910390fd5b6133e2565b602260008373ffffffffffffffffffffffffffffffffffffffff1673ffffffffffffffffffffffffffffffffffffffff16815260200190815260200160002060009054906101000a900460ff1680156132e75750602160008473ffffffffffffffffffffffffffffffffffffffff1673ffffffffffffffffffffffffffffffffffffffff16815260200190815260200160002060009054906101000a900460ff16155b1561333657600854811115613331576040517f08c379a000000000000000000000000000000000000000000000000000000000815260040161332890615aa6565b60405180910390fd5b6133e1565b602160008373ffffffffffffffffffffffffffffffffffffffff1673ffffffffffffffffffffffffffffffffffffffff16815260200190815260200160002060009054906101000a900460ff166133e057600a5461339383611418565b8261339e9190614e0b565b11156133df576040517f08c379a00000000000000000000000000000000000000000000000000000000081526004016133d690615a14565b60405180910390fd5b5b5b5b5b5b60006133ef30611418565b9050600060095482101590508080156134145750601160029054906101000a900460ff165b801561342d5750600560149054906101000a900460ff16155b80156134835750602260008673ffffffffffffffffffffffffffffffffffffffff1673ffffffffffffffffffffffffffffffffffffffff16815260200190815260200160002060009054906101000a900460ff16155b80156134d95750602060008673ffffffffffffffffffffffffffffffffffffffff1673ffffffffffffffffffffffffffffffffffffffff16815260200190815260200160002060009054906101000a900460ff16155b801561352f5750602060008573ffffffffffffffffffffffffffffffffffffffff1673ffffffffffffffffffffffffffffffffffffffff16815260200190815260200160002060009054906101000a900460ff16155b15613573576001600560146101000a81548160ff021916908315150217905550613557613d02565b6000600560146101000a81548160ff0219169083151502179055505b600560149054906101000a900460ff161580156135d95750602260008573ffffffffffffffffffffffffffffffffffffffff1673ffffffffffffffffffffffffffffffffffffffff16815260200190815260200160002060009054906101000a900460ff165b80156135f15750600c60009054906101000a900460ff165b801561360c5750600d54600e546136089190614e0b565b4210155b80156136625750602060008673ffffffffffffffffffffffffffffffffffffffff1673ffffffffffffffffffffffffffffffffffffffff16815260200190815260200160002060009054906101000a900460ff16155b156136715761366f613fe9565b505b6000600560149054906101000a900460ff16159050602060008773ffffffffffffffffffffffffffffffffffffffff1673ffffffffffffffffffffffffffffffffffffffff16815260200190815260200160002060009054906101000a900460ff16806137275750602060008673ffffffffffffffffffffffffffffffffffffffff1673ffffffffffffffffffffffffffffffffffffffff16815260200190815260200160002060009054906101000a900460ff165b1561373157600090505b600081156139aa57602260008773ffffffffffffffffffffffffffffffffffffffff1673ffffffffffffffffffffffffffffffffffffffff16815260200190815260200160002060009054906101000a900460ff16801561379457506000601854115b15613861576137c160646137b360185488613a6090919063ffffffff16565b613a7690919063ffffffff16565b9050601854601a54826137d49190614cd7565b6137de9190614d48565b601d60008282546137ef9190614e0b565b92505081905550601854601b54826138079190614cd7565b6138119190614d48565b601e60008282546138229190614e0b565b925050819055506018546019548261383a9190614cd7565b6138449190614d48565b601c60008282546138559190614e0b565b92505081905550613986565b602260008873ffffffffffffffffffffffffffffffffffffffff1673ffffffffffffffffffffffffffffffffffffffff16815260200190815260200160002060009054906101000a900460ff1680156138bc57506000601454115b15613985576138e960646138db60145488613a6090919063ffffffff16565b613a7690919063ffffffff16565b9050601454601654826138fc9190614cd7565b6139069190614d48565b601d60008282546139179190614e0b565b925050819055506014546017548261392f9190614cd7565b6139399190614d48565b601e600082825461394a9190614e0b565b92505081905550601454601554826139629190614cd7565b61396c9190614d48565b601c600082825461397d9190614e0b565b925050819055505b5b600081111561399b5761399a873083613a8c565b5b80856139a79190615ac6565b94505b6139b5878787613a8c565b505050505b505050565b80602260008473ffffffffffffffffffffffffffffffffffffffff1673ffffffffffffffffffffffffffffffffffffffff16815260200190815260200160002060006101000a81548160ff0219169083151502179055508015158273ffffffffffffffffffffffffffffffffffffffff167fffa9187bf1f18bf477bd0ea1bcbb64e93b6a98132473929edfce215cd9b16fab60405160405180910390a35050565b60008183613a6e9190614cd7565b905092915050565b60008183613a849190614d48565b905092915050565b600073ffffffffffffffffffffffffffffffffffffffff168373ffffffffffffffffffffffffffffffffffffffff1603613afb576040517f08c379a0000000000000000000000000000000000000000000000000000000008152600401613af2906156ce565b60405180910390fd5b600073ffffffffffffffffffffffffffffffffffffffff168273ffffffffffffffffffffffffffffffffffffffff1603613b6a576040517f08c379a0000000000000000000000000000000000000000000000000000000008152600401613b6190615b6c565b60405180910390fd5b613b758383836141af565b60008060008573ffffffffffffffffffffffffffffffffffffffff1673ffffffffffffffffffffffffffffffffffffffff16815260200190815260200160002054905081811015613bfb576040517f08c379a0000000000000000000000000000000000000000000000000000000008152600401613bf290615bfe565b60405180910390fd5b8181036000808673ffffffffffffffffffffffffffffffffffffffff1673ffffffffffffffffffffffffffffffffffffffff16815260200190815260200160002081905550816000808573ffffffffffffffffffffffffffffffffffffffff1673ffffffffffffffffffffffffffffffffffffffff168152602001908152602001600020600082825401925050819055508273ffffffffffffffffffffffffffffffffffffffff168473ffffffffffffffffffffffffffffffffffffffff167fddf252ad1be2c89b69c2b068fc378daa952ba7f163c4a11628f55a4df523b3ef84604051613ce9919061476e565b60405180910390a3613cfc8484846141b4565b50505050565b6000613d0d30611418565b90506000601e54601c54601d54613d249190614e0b565b613d2e9190614e0b565b9050600080831480613d405750600082145b15613d4d57505050613fe7565b6014600954613d5c9190614cd7565b831115613d75576014600954613d729190614cd7565b92505b6000600283601d5486613d889190614cd7565b613d929190614d48565b613d9c9190614d48565b90506000613db382866141b990919063ffffffff16565b90506000479050613dc3826141cf565b6000613dd882476141b990919063ffffffff16565b90506000613e0387613df5601c5485613a6090919063ffffffff16565b613a7690919063ffffffff16565b90506000613e2e88613e20601e5486613a6090919063ffffffff16565b613a7690919063ffffffff16565b90506000818385613e3f9190615ac6565b613e499190615ac6565b90506000601d819055506000601c819055506000601e81905550600760009054906101000a900473ffffffffffffffffffffffffffffffffffffffff1673ffffffffffffffffffffffffffffffffffffffff1682604051613ea990615c4f565b60006040518083038185875af1925050503d8060008114613ee6576040519150601f19603f3d011682016040523d82523d6000602084013e613eeb565b606091505b505080985050600087118015613f015750600081115b15613f4e57613f10878261440c565b7f17bbfb9a6069321b6ded73bd96327c9e6b7212a5cd51ff219cd61370acafb5618682601d54604051613f4593929190615c64565b60405180910390a15b600660009054906101000a900473ffffffffffffffffffffffffffffffffffffffff1673ffffffffffffffffffffffffffffffffffffffff1647604051613f9490615c4f565b60006040518083038185875af1925050503d8060008114613fd1576040519150601f19603f3d011682016040523d82523d6000602084013e613fd6565b606091505b505080985050505050505050505050505b565b600042600e8190555060003073ffffffffffffffffffffffffffffffffffffffff166370a082317f00000000000000000000000000000000000000000000000000000000000000006040518263ffffffff1660e01b815260040161404d9190614818565b602060405180830381865afa15801561406a573d6000803e3d6000fd5b505050506040513d601f19601f8201168201806040525081019061408e919061549f565b905060006140bb6127106140ad600b5485613a6090919063ffffffff16565b613a7690919063ffffffff16565b905060008111156140f4576140f37f000000000000000000000000000000000000000000000000000000000000000061dead83613a8c565b5b60007f000000000000000000000000000000000000000000000000000000000000000090508073ffffffffffffffffffffffffffffffffffffffff1663fff6cae96040518163ffffffff1660e01b8152600401600060405180830381600087803b15801561416157600080fd5b505af1158015614175573d6000803e3d6000fd5b505050507f454c91ae84fcc766ddda0dcb289f26b3d0176efeacf4061fc219fa6ca8c3048d60405160405180910390a16001935050505090565b505050565b505050565b600081836141c79190615ac6565b905092915050565b6000600267ffffffffffffffff8111156141ec576141eb6149ea565b5b60405190808252806020026020018201604052801561421a5781602001602082028036833780820191505090505b5090503081600081518110614232576142316151f1565b5b602002602001019073ffffffffffffffffffffffffffffffffffffffff16908173ffffffffffffffffffffffffffffffffffffffff16815250507f000000000000000000000000000000000000000000000000000000000000000073ffffffffffffffffffffffffffffffffffffffff1663ad5c46486040518163ffffffff1660e01b8152600401602060405180830381865afa1580156142d7573d6000803e3d6000fd5b505050506040513d601f19601f820116820180604052508101906142fb9190615cb0565b8160018151811061430f5761430e6151f1565b5b602002602001019073ffffffffffffffffffffffffffffffffffffffff16908173ffffffffffffffffffffffffffffffffffffffff1681525050614374307f00000000000000000000000000000000000000000000000000000000000000008461286a565b7f000000000000000000000000000000000000000000000000000000000000000073ffffffffffffffffffffffffffffffffffffffff1663791ac9478360008430426040518663ffffffff1660e01b81526004016143d6959493929190615dd6565b600060405180830381600087803b1580156143f057600080fd5b505af1158015614404573d6000803e3d6000fd5b505050505050565b614437307f00000000000000000000000000000000000000000000000000000000000000008461286a565b7f000000000000000000000000000000000000000000000000000000000000000073ffffffffffffffffffffffffffffffffffffffff1663f305d71982308560008061dead426040518863ffffffff1660e01b815260040161449e96959493929190615e30565b60606040518083038185885af11580156144bc573d6000803e3d6000fd5b50505050506040513d601f19601f820116820180604052508101906144e19190615e91565b5050505050565b600081519050919050565b600082825260208201905092915050565b60005b83811015614522578082015181840152602081019050614507565b60008484015250505050565b6000601f19601f8301169050919050565b600061454a826144e8565b61455481856144f3565b9350614564818560208601614504565b61456d8161452e565b840191505092915050565b60006020820190508181036000830152614592818461453f565b905092915050565b6000604051905090565b600080fd5b600080fd5b600073ffffffffffffffffffffffffffffffffffffffff82169050919050565b60006145d9826145ae565b9050919050565b6145e9816145ce565b81146145f457600080fd5b50565b600081359050614606816145e0565b92915050565b6000819050919050565b61461f8161460c565b811461462a57600080fd5b50565b60008135905061463c81614616565b92915050565b60008060408385031215614659576146586145a4565b5b6000614667858286016145f7565b92505060206146788582860161462d565b9150509250929050565b60008115159050919050565b61469781614682565b82525050565b60006020820190506146b2600083018461468e565b92915050565b6000602082840312156146ce576146cd6145a4565b5b60006146dc848285016145f7565b91505092915050565b6000819050919050565b600061470a614705614700846145ae565b6146e5565b6145ae565b9050919050565b600061471c826146ef565b9050919050565b600061472e82614711565b9050919050565b61473e81614723565b82525050565b60006020820190506147596000830184614735565b92915050565b6147688161460c565b82525050565b6000602082019050614783600083018461475f565b92915050565b60006020828403121561479f5761479e6145a4565b5b60006147ad8482850161462d565b91505092915050565b6000806000606084860312156147cf576147ce6145a4565b5b60006147dd868287016145f7565b93505060206147ee868287016145f7565b92505060406147ff8682870161462d565b9150509250925092565b614812816145ce565b82525050565b600060208201905061482d6000830184614809565b92915050565b600060ff82169050919050565b61484981614833565b82525050565b60006020820190506148646000830184614840565b92915050565b61487381614682565b811461487e57600080fd5b50565b6000813590506148908161486a565b92915050565b600080604083850312156148ad576148ac6145a4565b5b60006148bb858286016145f7565b92505060206148cc85828601614881565b9150509250929050565b6000806000606084860312156148ef576148ee6145a4565b5b60006148fd8682870161462d565b935050602061490e8682870161462d565b925050604061491f86828701614881565b9150509250925092565b600080600060608486031215614942576149416145a4565b5b60006149508682870161462d565b93505060206149618682870161462d565b92505060406149728682870161462d565b9150509250925092565b6000614987826145ae565b9050919050565b6149978161497c565b82525050565b60006020820190506149b2600083018461498e565b92915050565b6000602082840312156149ce576149cd6145a4565b5b60006149dc84828501614881565b91505092915050565b600080fd5b7f4e487b7100000000000000000000000000000000000000000000000000000000600052604160045260246000fd5b614a228261452e565b810181811067ffffffffffffffff82111715614a4157614a406149ea565b5b80604052505050565b6000614a5461459a565b9050614a608282614a19565b919050565b600067ffffffffffffffff821115614a8057614a7f6149ea565b5b602082029050602081019050919050565b600080fd5b6000614aa9614aa484614a65565b614a4a565b90508083825260208201905060208402830185811115614acc57614acb614a91565b5b835b81811015614af55780614ae188826145f7565b845260208401935050602081019050614ace565b5050509392505050565b600082601f830112614b1457614b136149e5565b5b8135614b24848260208601614a96565b91505092915050565b600060208284031215614b4357614b426145a4565b5b600082013567ffffffffffffffff811115614b6157614b606145a9565b5b614b6d84828501614aff565b91505092915050565b60008060408385031215614b8d57614b8c6145a4565b5b6000614b9b858286016145f7565b9250506020614bac858286016145f7565b9150509250929050565b7f4e487b7100000000000000000000000000000000000000000000000000000000600052602260045260246000fd5b60006002820490506001821680614bfd57607f821691505b602082108103614c1057614c0f614bb6565b5b50919050565b7f4f6e6c7920746865206f776e65722063616e2063616c6c20746869732066756e60008201527f6374696f6e2e0000000000000000000000000000000000000000000000000000602082015250565b6000614c726026836144f3565b9150614c7d82614c16565b604082019050919050565b60006020820190508181036000830152614ca181614c65565b9050919050565b7f4e487b7100000000000000000000000000000000000000000000000000000000600052601160045260246000fd5b6000614ce28261460c565b9150614ced8361460c565b9250828202614cfb8161460c565b91508282048414831517614d1257614d11614ca8565b5b5092915050565b7f4e487b7100000000000000000000000000000000000000000000000000000000600052601260045260246000fd5b6000614d538261460c565b9150614d5e8361460c565b925082614d6e57614d6d614d19565b5b828204905092915050565b7f43616e6e6f7420736574206d61785472616e73616374696f6e416d6f756e742060008201527f6c6f776572207468616e20302e31250000000000000000000000000000000000602082015250565b6000614dd5602f836144f3565b9150614de082614d79565b604082019050919050565b60006020820190508181036000830152614e0481614dc8565b9050919050565b6000614e168261460c565b9150614e218361460c565b9250828201905080821115614e3957614e38614ca8565b5b92915050565b7f63616e6e6f7420736574206275796261636b206d6f7265206f6674656e20746860008201527f616e206576657279203130206d696e7574657300000000000000000000000000602082015250565b6000614e9b6033836144f3565b9150614ea682614e3f565b604082019050919050565b60006020820190508181036000830152614eca81614e8e565b9050919050565b7f4d75737420736574206175746f204c50206275726e2070657263656e7420626560008201527f747765656e20302520616e642031302500000000000000000000000000000000602082015250565b6000614f2d6030836144f3565b9150614f3882614ed1565b604082019050919050565b60006020820190508181036000830152614f5c81614f20565b9050919050565b7f4d757374206b656570206665657320617420333525206f72206c657373000000600082015250565b6000614f99601d836144f3565b9150614fa482614f63565b602082019050919050565b60006020820190508181036000830152614fc881614f8c565b9050919050565b7f54686520706169722063616e6e6f742062652072656d6f7665642066726f6d2060008201527f6175746f6d617465644d61726b65744d616b6572506169727300000000000000602082015250565b600061502b6039836144f3565b915061503682614fcf565b604082019050919050565b6000602082019050818103600083015261505a8161501e565b9050919050565b7f45524332303a2064656372656173656420616c6c6f77616e63652062656c6f7760008201527f207a65726f000000000000000000000000000000000000000000000000000000602082015250565b60006150bd6025836144f3565b91506150c882615061565b604082019050919050565b600060208201905081810360008301526150ec816150b0565b9050919050565b7f4d757374206b656570206665657320617420343025206f72206c657373000000600082015250565b6000615129601d836144f3565b9150615134826150f3565b602082019050919050565b600060208201905081810360008301526151588161511c565b9050919050565b7f43616e6e6f7420736574206d617857616c6c6574206c6f776572207468616e2060008201527f302e352500000000000000000000000000000000000000000000000000000000602082015250565b60006151bb6024836144f3565b91506151c68261515f565b604082019050919050565b600060208201905081810360008301526151ea816151ae565b9050919050565b7f4e487b7100000000000000000000000000000000000000000000000000000000600052603260045260246000fd5b600061522b8261460c565b91507fffffffffffffffffffffffffffffffffffffffffffffffffffffffffffffffff820361525d5761525c614ca8565b5b600182019050919050565b7f5377617020616d6f756e742063616e6e6f74206265206c6f776572207468616e60008201527f20302e3030312520746f74616c20737570706c792e0000000000000000000000602082015250565b60006152c46035836144f3565b91506152cf82615268565b604082019050919050565b600060208201905081810360008301526152f3816152b7565b9050919050565b7f5377617020616d6f756e742063616e6e6f74206265206869676865722074686160008201527f6e20302e352520746f74616c20737570706c792e000000000000000000000000602082015250565b60006153566034836144f3565b9150615361826152fa565b604082019050919050565b6000602082019050818103600083015261538581615349565b9050919050565b7f4d757374207761697420666f7220636f6f6c646f776e20746f2066696e697368600082015250565b60006153c26020836144f3565b91506153cd8261538c565b602082019050919050565b600060208201905081810360008301526153f1816153b5565b9050919050565b7f4d6179206e6f74206e756b65206d6f7265207468616e20313025206f6620746f60008201527f6b656e7320696e204c5000000000000000000000000000000000000000000000602082015250565b6000615454602a836144f3565b915061545f826153f8565b604082019050919050565b6000602082019050818103600083015261548381615447565b9050919050565b60008151905061549981614616565b92915050565b6000602082840312156154b5576154b46145a4565b5b60006154c38482850161548a565b91505092915050565b7f45524332303a20617070726f76652066726f6d20746865207a65726f2061646460008201527f7265737300000000000000000000000000000000000000000000000000000000602082015250565b60006155286024836144f3565b9150615533826154cc565b604082019050919050565b600060208201905081810360008301526155578161551b565b9050919050565b7f45524332303a20617070726f766520746f20746865207a65726f20616464726560008201527f7373000000000000000000000000000000000000000000000000000000000000602082015250565b60006155ba6022836144f3565b91506155c58261555e565b604082019050919050565b600060208201905081810360008301526155e9816155ad565b9050919050565b7f45524332303a20696e73756666696369656e7420616c6c6f77616e6365000000600082015250565b6000615626601d836144f3565b9150615631826155f0565b602082019050919050565b6000602082019050818103600083015261565581615619565b9050919050565b7f45524332303a207472616e736665722066726f6d20746865207a65726f20616460008201527f6472657373000000000000000000000000000000000000000000000000000000602082015250565b60006156b86025836144f3565b91506156c38261565c565b604082019050919050565b600060208201905081810360008301526156e7816156ab565b9050919050565b7f45524332303a207472616e7366657220746f2074686520626c61636b4c69737460008201527f6564206164647265737300000000000000000000000000000000000000000000602082015250565b600061574a602a836144f3565b9150615755826156ee565b604082019050919050565b600060208201905081810360008301526157798161573d565b9050919050565b7f45524332303a207472616e736665722066726f6d2074686520626c61636b4c6960008201527f7374656420616464726573730000000000000000000000000000000000000000602082015250565b60006157dc602c836144f3565b91506157e782615780565b604082019050919050565b6000602082019050818103600083015261580b816157cf565b9050919050565b7f54726164696e67206973206e6f74206163746976652e00000000000000000000600082015250565b60006158486016836144f3565b915061585382615812565b602082019050919050565b600060208201905081810360008301526158778161583b565b9050919050565b7f5f7472616e736665723a3a205472616e736665722044656c617920656e61626c60008201527f65642e20204f6e6c79206f6e652070757263686173652070657220626c6f636b60208201527f20616c6c6f7765642e0000000000000000000000000000000000000000000000604082015250565b60006159006049836144f3565b915061590b8261587e565b606082019050919050565b6000602082019050818103600083015261592f816158f3565b9050919050565b7f427579207472616e7366657220616d6f756e742065786365656473207468652060008201527f6d61785472616e73616374696f6e416d6f756e742e0000000000000000000000602082015250565b60006159926035836144f3565b915061599d82615936565b604082019050919050565b600060208201905081810360008301526159c181615985565b9050919050565b7f4d61782077616c6c657420657863656564656400000000000000000000000000600082015250565b60006159fe6013836144f3565b9150615a09826159c8565b602082019050919050565b60006020820190508181036000830152615a2d816159f1565b9050919050565b7f53656c6c207472616e7366657220616d6f756e7420657863656564732074686560008201527f206d61785472616e73616374696f6e416d6f756e742e00000000000000000000602082015250565b6000615a906036836144f3565b9150615a9b82615a34565b604082019050919050565b60006020820190508181036000830152615abf81615a83565b9050919050565b6000615ad18261460c565b9150615adc8361460c565b9250828203905081811115615af457615af3614ca8565b5b92915050565b7f45524332303a207472616e7366657220746f20746865207a65726f206164647260008201527f6573730000000000000000000000000000000000000000000000000000000000602082015250565b6000615b566023836144f3565b9150615b6182615afa565b604082019050919050565b60006020820190508181036000830152615b8581615b49565b9050919050565b7f45524332303a207472616e7366657220616d6f756e742065786365656473206260008201527f616c616e63650000000000000000000000000000000000000000000000000000602082015250565b6000615be86026836144f3565b9150615bf382615b8c565b604082019050919050565b60006020820190508181036000830152615c1781615bdb565b9050919050565b600081905092915050565b50565b6000615c39600083615c1e565b9150615c4482615c29565b600082019050919050565b6000615c5a82615c2c565b9150819050919050565b6000606082019050615c79600083018661475f565b615c86602083018561475f565b615c93604083018461475f565b949350505050565b600081519050615caa816145e0565b92915050565b600060208284031215615cc657615cc56145a4565b5b6000615cd484828501615c9b565b91505092915050565b6000819050919050565b6000615d02615cfd615cf884615cdd565b6146e5565b61460c565b9050919050565b615d1281615ce7565b82525050565b600081519050919050565b600082825260208201905092915050565b6000819050602082019050919050565b615d4d816145ce565b82525050565b6000615d5f8383615d44565b60208301905092915050565b6000602082019050919050565b6000615d8382615d18565b615d8d8185615d23565b9350615d9883615d34565b8060005b83811015615dc9578151615db08882615d53565b9750615dbb83615d6b565b925050600181019050615d9c565b5085935050505092915050565b600060a082019050615deb600083018861475f565b615df86020830187615d09565b8181036040830152615e0a8186615d78565b9050615e196060830185614809565b615e26608083018461475f565b9695505050505050565b600060c082019050615e456000830189614809565b615e52602083018861475f565b615e5f6040830187615d09565b615e6c6060830186615d09565b615e796080830185614809565b615e8660a083018461475f565b979650505050505050565b600080600060608486031215615eaa57615ea96145a4565b5b6000615eb88682870161548a565b9350506020615ec98682870161548a565b9250506040615eda8682870161548a565b915050925092509256fea26469706673582212202de9348209c9bdf14a8c34489ec938e3a137ca17e5cf85d793ce2f86aca41d2a64736f6c63430008130033","opcodes":"PUSH1 0xC0 PUSH1 0x40 MSTORE PUSH1 0x0 PUSH1 0xB SSTORE PUSH1 0x0 PUSH1 0xC PUSH1 0x0 PUSH2 0x100 EXP DUP2 SLOAD DUP2 PUSH1 0xFF MUL NOT AND SWAP1 DUP4 ISZERO ISZERO MUL OR SWAP1 SSTORE POP PUSH2 0xE10 PUSH1 0xD SSTORE PUSH2 0x708 PUSH1 0xF SSTORE PUSH1 0x1 PUSH1 0x11 PUSH1 0x0 PUSH2 0x100 EXP DUP2 SLOAD DUP2 PUSH1 0xFF MUL NOT AND SWAP1 DUP4 ISZERO ISZERO MUL OR SWAP1 SSTORE POP PUSH1 0x0 PUSH1 0x11 PUSH1 0x1 PUSH2 0x100 EXP DUP2 SLOAD DUP2 PUSH1 0xFF MUL NOT AND SWAP1 DUP4 ISZERO ISZERO MUL OR SWAP1 SSTORE POP PUSH1 0x1 PUSH1 0x11 PUSH1 0x2 PUSH2 0x100 EXP DUP2 SLOAD DUP2 PUSH1 0xFF MUL NOT AND SWAP1 DUP4 ISZERO ISZERO MUL OR SWAP1 SSTORE POP PUSH1 0x1 PUSH1 0x13 PUSH1 0x0 PUSH2 0x100 EXP DUP2 SLOAD DUP2 PUSH1 0xFF MUL NOT AND SWAP1 DUP4 ISZERO ISZERO MUL OR SWAP1 SSTORE POP CALLVALUE DUP1 ISZERO PUSH3 0xA9 JUMPI PUSH1 0x0 DUP1 REVERT JUMPDEST POP PUSH1 0x40 MLOAD DUP1 PUSH1 0x40 ADD PUSH1 0x40 MSTORE DUP1 PUSH1 0x8 DUP2 MSTORE PUSH1 0x20 ADD PUSH32 0x4469636B42657473000000000000000000000000000000000000000000000000 DUP2 MSTORE POP PUSH1 0x40 MLOAD DUP1 PUSH1 0x40 ADD PUSH1 0x40 MSTORE DUP1 PUSH1 0x6 DUP2 MSTORE PUSH1 0x20 ADD PUSH32 0x244449434B530000000000000000000000000000000000000000000000000000 DUP2 MSTORE POP DUP2 PUSH1 0x3 SWAP1 DUP2 PUSH3 0x127 SWAP2 SWAP1 PUSH3 0xCBE JUMP JUMPDEST POP DUP1 PUSH1 0x4 SWAP1 DUP2 PUSH3 0x139 SWAP2 SWAP1 PUSH3 0xCBE JUMP JUMPDEST POP POP POP CALLER PUSH1 0x5 PUSH1 0x0 PUSH2 0x100 EXP DUP2 SLOAD DUP2 PUSH20 0xFFFFFFFFFFFFFFFFFFFFFFFFFFFFFFFFFFFFFFFF MUL NOT AND SWAP1 DUP4 PUSH20 0xFFFFFFFFFFFFFFFFFFFFFFFFFFFFFFFFFFFFFFFF AND MUL OR SWAP1 SSTORE POP PUSH1 0x0 PUSH20 0x7A250D5630B4CF539739DF2C5DACB4C659F2488D SWAP1 POP PUSH3 0x1A9 DUP2 PUSH1 0x1 PUSH3 0x600 PUSH1 0x20 SHL PUSH1 0x20 SHR JUMP JUMPDEST DUP1 PUSH20 0xFFFFFFFFFFFFFFFFFFFFFFFFFFFFFFFFFFFFFFFF AND PUSH1 0x80 DUP2 PUSH20 0xFFFFFFFFFFFFFFFFFFFFFFFFFFFFFFFFFFFFFFFF AND DUP2 MSTORE POP POP DUP1 PUSH20 0xFFFFFFFFFFFFFFFFFFFFFFFFFFFFFFFFFFFFFFFF AND PUSH4 0xC45A0155 PUSH1 0x40 MLOAD DUP2 PUSH4 0xFFFFFFFF AND PUSH1 0xE0 SHL DUP2 MSTORE PUSH1 0x4 ADD PUSH1 0x20 PUSH1 0x40 MLOAD DUP1 DUP4 SUB DUP2 DUP7 GAS STATICCALL ISZERO DUP1 ISZERO PUSH3 0x229 JUMPI RETURNDATASIZE PUSH1 0x0 DUP1 RETURNDATACOPY RETURNDATASIZE PUSH1 0x0 REVERT JUMPDEST POP POP POP POP PUSH1 0x40 MLOAD RETURNDATASIZE PUSH1 0x1F NOT PUSH1 0x1F DUP3 ADD AND DUP3 ADD DUP1 PUSH1 0x40 MSTORE POP DUP2 ADD SWAP1 PUSH3 0x24F SWAP2 SWAP1 PUSH3 0xE0F JUMP JUMPDEST PUSH20 0xFFFFFFFFFFFFFFFFFFFFFFFFFFFFFFFFFFFFFFFF AND PUSH4 0xC9C65396 ADDRESS DUP4 PUSH20 0xFFFFFFFFFFFFFFFFFFFFFFFFFFFFFFFFFFFFFFFF AND PUSH4 0xAD5C4648 PUSH1 0x40 MLOAD DUP2 PUSH4 0xFFFFFFFF AND PUSH1 0xE0 SHL DUP2 MSTORE PUSH1 0x4 ADD PUSH1 0x20 PUSH1 0x40 MLOAD DUP1 DUP4 SUB DUP2 DUP7 GAS STATICCALL ISZERO DUP1 ISZERO PUSH3 0x2B7 JUMPI RETURNDATASIZE PUSH1 0x0 DUP1 RETURNDATACOPY RETURNDATASIZE PUSH1 0x0 REVERT JUMPDEST POP POP POP POP PUSH1 0x40 MLOAD RETURNDATASIZE PUSH1 0x1F NOT PUSH1 0x1F DUP3 ADD AND DUP3 ADD DUP1 PUSH1 0x40 MSTORE POP DUP2 ADD SWAP1 PUSH3 0x2DD SWAP2 SWAP1 PUSH3 0xE0F JUMP JUMPDEST PUSH1 0x40 MLOAD DUP4 PUSH4 0xFFFFFFFF AND PUSH1 0xE0 SHL DUP2 MSTORE PUSH1 0x4 ADD PUSH3 0x2FC SWAP3 SWAP2 SWAP1 PUSH3 0xE52 JUMP JUMPDEST PUSH1 0x20 PUSH1 0x40 MLOAD DUP1 DUP4 SUB DUP2 PUSH1 0x0 DUP8 GAS CALL ISZERO DUP1 ISZERO PUSH3 0x31C JUMPI RETURNDATASIZE PUSH1 0x0 DUP1 RETURNDATACOPY RETURNDATASIZE PUSH1 0x0 REVERT JUMPDEST POP POP POP POP PUSH1 0x40 MLOAD RETURNDATASIZE PUSH1 0x1F NOT PUSH1 0x1F DUP3 ADD AND DUP3 ADD DUP1 PUSH1 0x40 MSTORE POP DUP2 ADD SWAP1 PUSH3 0x342 SWAP2 SWAP1 PUSH3 0xE0F JUMP JUMPDEST PUSH20 0xFFFFFFFFFFFFFFFFFFFFFFFFFFFFFFFFFFFFFFFF AND PUSH1 0xA0 DUP2 PUSH20 0xFFFFFFFFFFFFFFFFFFFFFFFFFFFFFFFFFFFFFFFF AND DUP2 MSTORE POP POP PUSH3 0x38A PUSH1 0xA0 MLOAD PUSH1 0x1 PUSH3 0x600 PUSH1 0x20 SHL PUSH1 0x20 SHR JUMP JUMPDEST PUSH3 0x39F PUSH1 0xA0 MLOAD PUSH1 0x1 PUSH3 0x6EE PUSH1 0x20 SHL PUSH1 0x20 SHR JUMP JUMPDEST PUSH1 0x0 PUSH1 0x5 SWAP1 POP PUSH1 0x0 DUP1 PUSH1 0x0 PUSH1 0xF SWAP1 POP PUSH1 0x0 DUP1 PUSH1 0x0 PUSH8 0x8AC7230489E80000 SWAP1 POP PUSH10 0x2A5A058FC295ED000000 PUSH1 0x8 DUP2 SWAP1 SSTORE POP PUSH10 0x2A5A058FC295ED000000 PUSH1 0xA DUP2 SWAP1 SSTORE POP PUSH2 0x2710 PUSH1 0xA DUP3 PUSH3 0x3F2 SWAP2 SWAP1 PUSH3 0xEAE JUMP JUMPDEST PUSH3 0x3FE SWAP2 SWAP1 PUSH3 0xF28 JUMP JUMPDEST PUSH1 0x9 DUP2 SWAP1 SSTORE POP DUP7 PUSH1 0x15 DUP2 SWAP1 SSTORE POP DUP6 PUSH1 0x16 DUP2 SWAP1 SSTORE POP DUP5 PUSH1 0x17 DUP2 SWAP1 SSTORE POP PUSH1 0x17 SLOAD PUSH1 0x16 SLOAD PUSH1 0x15 SLOAD PUSH3 0x42E SWAP2 SWAP1 PUSH3 0xF60 JUMP JUMPDEST PUSH3 0x43A SWAP2 SWAP1 PUSH3 0xF60 JUMP JUMPDEST PUSH1 0x14 DUP2 SWAP1 SSTORE POP DUP4 PUSH1 0x19 DUP2 SWAP1 SSTORE POP DUP3 PUSH1 0x1A DUP2 SWAP1 SSTORE POP DUP2 PUSH1 0x1B DUP2 SWAP1 SSTORE POP PUSH1 0x1B SLOAD PUSH1 0x1A SLOAD PUSH1 0x19 SLOAD PUSH3 0x46A SWAP2 SWAP1 PUSH3 0xF60 JUMP JUMPDEST PUSH3 0x476 SWAP2 SWAP1 PUSH3 0xF60 JUMP JUMPDEST PUSH1 0x18 DUP2 SWAP1 SSTORE POP PUSH20 0x8441D739FDE0E6B3FAACFFD5F2C590FF7391309A PUSH1 0x6 PUSH1 0x0 PUSH2 0x100 EXP DUP2 SLOAD DUP2 PUSH20 0xFFFFFFFFFFFFFFFFFFFFFFFFFFFFFFFFFFFFFFFF MUL NOT AND SWAP1 DUP4 PUSH20 0xFFFFFFFFFFFFFFFFFFFFFFFFFFFFFFFFFFFFFFFF AND MUL OR SWAP1 SSTORE POP PUSH20 0x8441D739FDE0E6B3FAACFFD5F2C590FF7391309A PUSH1 0x7 PUSH1 0x0 PUSH2 0x100 EXP DUP2 SLOAD DUP2 PUSH20 0xFFFFFFFFFFFFFFFFFFFFFFFFFFFFFFFFFFFFFFFF MUL NOT AND SWAP1 DUP4 PUSH20 0xFFFFFFFFFFFFFFFFFFFFFFFFFFFFFFFFFFFFFFFF AND MUL OR SWAP1 SSTORE POP PUSH3 0x55B PUSH1 0x5 PUSH1 0x0 SWAP1 SLOAD SWAP1 PUSH2 0x100 EXP SWAP1 DIV PUSH20 0xFFFFFFFFFFFFFFFFFFFFFFFFFFFFFFFFFFFFFFFF AND PUSH1 0x1 PUSH3 0x78F PUSH1 0x20 SHL PUSH1 0x20 SHR JUMP JUMPDEST PUSH3 0x56E ADDRESS PUSH1 0x1 PUSH3 0x78F PUSH1 0x20 SHL PUSH1 0x20 SHR JUMP JUMPDEST PUSH3 0x583 PUSH2 0xDEAD PUSH1 0x1 PUSH3 0x78F PUSH1 0x20 SHL PUSH1 0x20 SHR JUMP JUMPDEST PUSH3 0x5B8 PUSH1 0x5 PUSH1 0x0 SWAP1 SLOAD SWAP1 PUSH2 0x100 EXP SWAP1 DIV PUSH20 0xFFFFFFFFFFFFFFFFFFFFFFFFFFFFFFFFFFFFFFFF AND PUSH1 0x1 PUSH3 0x600 PUSH1 0x20 SHL PUSH1 0x20 SHR JUMP JUMPDEST PUSH3 0x5CB ADDRESS PUSH1 0x1 PUSH3 0x600 PUSH1 0x20 SHL PUSH1 0x20 SHR JUMP JUMPDEST PUSH3 0x5E0 PUSH2 0xDEAD PUSH1 0x1 PUSH3 0x600 PUSH1 0x20 SHL PUSH1 0x20 SHR JUMP JUMPDEST PUSH3 0x5F2 CALLER DUP3 PUSH3 0x8CD PUSH1 0x20 SHL PUSH1 0x20 SHR JUMP JUMPDEST POP POP POP POP POP POP POP POP PUSH3 0x111E JUMP JUMPDEST PUSH1 0x5 PUSH1 0x0 SWAP1 SLOAD SWAP1 PUSH2 0x100 EXP SWAP1 DIV PUSH20 0xFFFFFFFFFFFFFFFFFFFFFFFFFFFFFFFFFFFFFFFF AND PUSH20 0xFFFFFFFFFFFFFFFFFFFFFFFFFFFFFFFFFFFFFFFF AND CALLER PUSH20 0xFFFFFFFFFFFFFFFFFFFFFFFFFFFFFFFFFFFFFFFF AND EQ PUSH3 0x693 JUMPI PUSH1 0x40 MLOAD PUSH32 0x8C379A000000000000000000000000000000000000000000000000000000000 DUP2 MSTORE PUSH1 0x4 ADD PUSH3 0x68A SWAP1 PUSH3 0x1022 JUMP JUMPDEST PUSH1 0x40 MLOAD DUP1 SWAP2 SUB SWAP1 REVERT JUMPDEST DUP1 PUSH1 0x21 PUSH1 0x0 DUP5 PUSH20 0xFFFFFFFFFFFFFFFFFFFFFFFFFFFFFFFFFFFFFFFF AND PUSH20 0xFFFFFFFFFFFFFFFFFFFFFFFFFFFFFFFFFFFFFFFF AND DUP2 MSTORE PUSH1 0x20 ADD SWAP1 DUP2 MSTORE PUSH1 0x20 ADD PUSH1 0x0 KECCAK256 PUSH1 0x0 PUSH2 0x100 EXP DUP2 SLOAD DUP2 PUSH1 0xFF MUL NOT AND SWAP1 DUP4 ISZERO ISZERO MUL OR SWAP1 SSTORE POP POP POP JUMP JUMPDEST DUP1 PUSH1 0x22 PUSH1 0x0 DUP5 PUSH20 0xFFFFFFFFFFFFFFFFFFFFFFFFFFFFFFFFFFFFFFFF AND PUSH20 0xFFFFFFFFFFFFFFFFFFFFFFFFFFFFFFFFFFFFFFFF AND DUP2 MSTORE PUSH1 0x20 ADD SWAP1 DUP2 MSTORE PUSH1 0x20 ADD PUSH1 0x0 KECCAK256 PUSH1 0x0 PUSH2 0x100 EXP DUP2 SLOAD DUP2 PUSH1 0xFF MUL NOT AND SWAP1 DUP4 ISZERO ISZERO MUL OR SWAP1 SSTORE POP DUP1 ISZERO ISZERO DUP3 PUSH20 0xFFFFFFFFFFFFFFFFFFFFFFFFFFFFFFFFFFFFFFFF AND PUSH32 0xFFA9187BF1F18BF477BD0EA1BCBB64E93B6A98132473929EDFCE215CD9B16FAB PUSH1 0x40 MLOAD PUSH1 0x40 MLOAD DUP1 SWAP2 SUB SWAP1 LOG3 POP POP JUMP JUMPDEST PUSH1 0x5 PUSH1 0x0 SWAP1 SLOAD SWAP1 PUSH2 0x100 EXP SWAP1 DIV PUSH20 0xFFFFFFFFFFFFFFFFFFFFFFFFFFFFFFFFFFFFFFFF AND PUSH20 0xFFFFFFFFFFFFFFFFFFFFFFFFFFFFFFFFFFFFFFFF AND CALLER PUSH20 0xFFFFFFFFFFFFFFFFFFFFFFFFFFFFFFFFFFFFFFFF AND EQ PUSH3 0x822 JUMPI PUSH1 0x40 MLOAD PUSH32 0x8C379A000000000000000000000000000000000000000000000000000000000 DUP2 MSTORE PUSH1 0x4 ADD PUSH3 0x819 SWAP1 PUSH3 0x1022 JUMP JUMPDEST PUSH1 0x40 MLOAD DUP1 SWAP2 SUB SWAP1 REVERT JUMPDEST DUP1 PUSH1 0x20 PUSH1 0x0 DUP5 PUSH20 0xFFFFFFFFFFFFFFFFFFFFFFFFFFFFFFFFFFFFFFFF AND PUSH20 0xFFFFFFFFFFFFFFFFFFFFFFFFFFFFFFFFFFFFFFFF AND DUP2 MSTORE PUSH1 0x20 ADD SWAP1 DUP2 MSTORE PUSH1 0x20 ADD PUSH1 0x0 KECCAK256 PUSH1 0x0 PUSH2 0x100 EXP DUP2 SLOAD DUP2 PUSH1 0xFF MUL NOT AND SWAP1 DUP4 ISZERO ISZERO MUL OR SWAP1 SSTORE POP DUP2 PUSH20 0xFFFFFFFFFFFFFFFFFFFFFFFFFFFFFFFFFFFFFFFF AND PUSH32 0x9D8F7706EA1113D1A167B526ECA956215946DD36CC7DF39EB16180222D8B5DF7 DUP3 PUSH1 0x40 MLOAD PUSH3 0x8C1 SWAP2 SWAP1 PUSH3 0x1061 JUMP JUMPDEST PUSH1 0x40 MLOAD DUP1 SWAP2 SUB SWAP1 LOG2 POP POP JUMP JUMPDEST PUSH1 0x0 PUSH20 0xFFFFFFFFFFFFFFFFFFFFFFFFFFFFFFFFFFFFFFFF AND DUP3 PUSH20 0xFFFFFFFFFFFFFFFFFFFFFFFFFFFFFFFFFFFFFFFF AND SUB PUSH3 0x93F JUMPI PUSH1 0x40 MLOAD PUSH32 0x8C379A000000000000000000000000000000000000000000000000000000000 DUP2 MSTORE PUSH1 0x4 ADD PUSH3 0x936 SWAP1 PUSH3 0x10CE JUMP JUMPDEST PUSH1 0x40 MLOAD DUP1 SWAP2 SUB SWAP1 REVERT JUMPDEST PUSH3 0x953 PUSH1 0x0 DUP4 DUP4 PUSH3 0xA3A PUSH1 0x20 SHL PUSH1 0x20 SHR JUMP JUMPDEST DUP1 PUSH1 0x2 PUSH1 0x0 DUP3 DUP3 SLOAD PUSH3 0x967 SWAP2 SWAP1 PUSH3 0xF60 JUMP JUMPDEST SWAP3 POP POP DUP2 SWAP1 SSTORE POP DUP1 PUSH1 0x0 DUP1 DUP5 PUSH20 0xFFFFFFFFFFFFFFFFFFFFFFFFFFFFFFFFFFFFFFFF AND PUSH20 0xFFFFFFFFFFFFFFFFFFFFFFFFFFFFFFFFFFFFFFFF AND DUP2 MSTORE PUSH1 0x20 ADD SWAP1 DUP2 MSTORE PUSH1 0x20 ADD PUSH1 0x0 KECCAK256 PUSH1 0x0 DUP3 DUP3 SLOAD ADD SWAP3 POP POP DUP2 SWAP1 SSTORE POP DUP2 PUSH20 0xFFFFFFFFFFFFFFFFFFFFFFFFFFFFFFFFFFFFFFFF AND PUSH1 0x0 PUSH20 0xFFFFFFFFFFFFFFFFFFFFFFFFFFFFFFFFFFFFFFFF AND PUSH32 0xDDF252AD1BE2C89B69C2B068FC378DAA952BA7F163C4A11628F55A4DF523B3EF DUP4 PUSH1 0x40 MLOAD PUSH3 0xA1A SWAP2 SWAP1 PUSH3 0x1101 JUMP JUMPDEST PUSH1 0x40 MLOAD DUP1 SWAP2 SUB SWAP1 LOG3 PUSH3 0xA36 PUSH1 0x0 DUP4 DUP4 PUSH3 0xA3F PUSH1 0x20 SHL PUSH1 0x20 SHR JUMP JUMPDEST POP POP JUMP JUMPDEST POP POP POP JUMP JUMPDEST POP POP POP JUMP JUMPDEST PUSH1 0x0 DUP2 MLOAD SWAP1 POP SWAP2 SWAP1 POP JUMP JUMPDEST PUSH32 0x4E487B7100000000000000000000000000000000000000000000000000000000 PUSH1 0x0 MSTORE PUSH1 0x41 PUSH1 0x4 MSTORE PUSH1 0x24 PUSH1 0x0 REVERT JUMPDEST PUSH32 0x4E487B7100000000000000000000000000000000000000000000000000000000 PUSH1 0x0 MSTORE PUSH1 0x22 PUSH1 0x4 MSTORE PUSH1 0x24 PUSH1 0x0 REVERT JUMPDEST PUSH1 0x0 PUSH1 0x2 DUP3 DIV SWAP1 POP PUSH1 0x1 DUP3 AND DUP1 PUSH3 0xAC6 JUMPI PUSH1 0x7F DUP3 AND SWAP2 POP JUMPDEST PUSH1 0x20 DUP3 LT DUP2 SUB PUSH3 0xADC JUMPI PUSH3 0xADB PUSH3 0xA7E JUMP JUMPDEST JUMPDEST POP SWAP2 SWAP1 POP JUMP JUMPDEST PUSH1 0x0 DUP2 SWAP1 POP DUP2 PUSH1 0x0 MSTORE PUSH1 0x20 PUSH1 0x0 KECCAK256 SWAP1 POP SWAP2 SWAP1 POP JUMP JUMPDEST PUSH1 0x0 PUSH1 0x20 PUSH1 0x1F DUP4 ADD DIV SWAP1 POP SWAP2 SWAP1 POP JUMP JUMPDEST PUSH1 0x0 DUP3 DUP3 SHL SWAP1 POP SWAP3 SWAP2 POP POP JUMP JUMPDEST PUSH1 0x0 PUSH1 0x8 DUP4 MUL PUSH3 0xB46 PUSH32 0xFFFFFFFFFFFFFFFFFFFFFFFFFFFFFFFFFFFFFFFFFFFFFFFFFFFFFFFFFFFFFFFF DUP3 PUSH3 0xB07 JUMP JUMPDEST PUSH3 0xB52 DUP7 DUP4 PUSH3 0xB07 JUMP JUMPDEST SWAP6 POP DUP1 NOT DUP5 AND SWAP4 POP DUP1 DUP7 AND DUP5 OR SWAP3 POP POP POP SWAP4 SWAP3 POP POP POP JUMP JUMPDEST PUSH1 0x0 DUP2 SWAP1 POP SWAP2 SWAP1 POP JUMP JUMPDEST PUSH1 0x0 DUP2 SWAP1 POP SWAP2 SWAP1 POP JUMP JUMPDEST PUSH1 0x0 PUSH3 0xB9F PUSH3 0xB99 PUSH3 0xB93 DUP5 PUSH3 0xB6A JUMP JUMPDEST PUSH3 0xB74 JUMP JUMPDEST PUSH3 0xB6A JUMP JUMPDEST SWAP1 POP SWAP2 SWAP1 POP JUMP JUMPDEST PUSH1 0x0 DUP2 SWAP1 POP SWAP2 SWAP1 POP JUMP JUMPDEST PUSH3 0xBBB DUP4 PUSH3 0xB7E JUMP JUMPDEST PUSH3 0xBD3 PUSH3 0xBCA DUP3 PUSH3 0xBA6 JUMP JUMPDEST DUP5 DUP5 SLOAD PUSH3 0xB14 JUMP JUMPDEST DUP3 SSTORE POP POP POP POP JUMP JUMPDEST PUSH1 0x0 SWAP1 JUMP JUMPDEST PUSH3 0xBEA PUSH3 0xBDB JUMP JUMPDEST PUSH3 0xBF7 DUP2 DUP5 DUP5 PUSH3 0xBB0 JUMP JUMPDEST POP POP POP JUMP JUMPDEST JUMPDEST DUP2 DUP2 LT ISZERO PUSH3 0xC1F JUMPI PUSH3 0xC13 PUSH1 0x0 DUP3 PUSH3 0xBE0 JUMP JUMPDEST PUSH1 0x1 DUP2 ADD SWAP1 POP PUSH3 0xBFD JUMP JUMPDEST POP POP JUMP JUMPDEST PUSH1 0x1F DUP3 GT ISZERO PUSH3 0xC6E JUMPI PUSH3 0xC38 DUP2 PUSH3 0xAE2 JUMP JUMPDEST PUSH3 0xC43 DUP5 PUSH3 0xAF7 JUMP JUMPDEST DUP2 ADD PUSH1 0x20 DUP6 LT ISZERO PUSH3 0xC53 JUMPI DUP2 SWAP1 POP JUMPDEST PUSH3 0xC6B PUSH3 0xC62 DUP6 PUSH3 0xAF7 JUMP JUMPDEST DUP4 ADD DUP3 PUSH3 0xBFC JUMP JUMPDEST POP POP JUMPDEST POP POP POP JUMP JUMPDEST PUSH1 0x0 DUP3 DUP3 SHR SWAP1 POP SWAP3 SWAP2 POP POP JUMP JUMPDEST PUSH1 0x0 PUSH3 0xC93 PUSH1 0x0 NOT DUP5 PUSH1 0x8 MUL PUSH3 0xC73 JUMP JUMPDEST NOT DUP1 DUP4 AND SWAP2 POP POP SWAP3 SWAP2 POP POP JUMP JUMPDEST PUSH1 0x0 PUSH3 0xCAE DUP4 DUP4 PUSH3 0xC80 JUMP JUMPDEST SWAP2 POP DUP3 PUSH1 0x2 MUL DUP3 OR SWAP1 POP SWAP3 SWAP2 POP POP JUMP JUMPDEST PUSH3 0xCC9 DUP3 PUSH3 0xA44 JUMP JUMPDEST PUSH8 0xFFFFFFFFFFFFFFFF DUP2 GT ISZERO PUSH3 0xCE5 JUMPI PUSH3 0xCE4 PUSH3 0xA4F JUMP JUMPDEST JUMPDEST PUSH3 0xCF1 DUP3 SLOAD PUSH3 0xAAD JUMP JUMPDEST PUSH3 0xCFE DUP3 DUP3 DUP6 PUSH3 0xC23 JUMP JUMPDEST PUSH1 0x0 PUSH1 0x20 SWAP1 POP PUSH1 0x1F DUP4 GT PUSH1 0x1 DUP2 EQ PUSH3 0xD36 JUMPI PUSH1 0x0 DUP5 ISZERO PUSH3 0xD21 JUMPI DUP3 DUP8 ADD MLOAD SWAP1 POP JUMPDEST PUSH3 0xD2D DUP6 DUP3 PUSH3 0xCA0 JUMP JUMPDEST DUP7 SSTORE POP PUSH3 0xD9D JUMP JUMPDEST PUSH1 0x1F NOT DUP5 AND PUSH3 0xD46 DUP7 PUSH3 0xAE2 JUMP JUMPDEST PUSH1 0x0 JUMPDEST DUP3 DUP2 LT ISZERO PUSH3 0xD70 JUMPI DUP5 DUP10 ADD MLOAD DUP3 SSTORE PUSH1 0x1 DUP3 ADD SWAP2 POP PUSH1 0x20 DUP6 ADD SWAP5 POP PUSH1 0x20 DUP2 ADD SWAP1 POP PUSH3 0xD49 JUMP JUMPDEST DUP7 DUP4 LT ISZERO PUSH3 0xD90 JUMPI DUP5 DUP10 ADD MLOAD PUSH3 0xD8C PUSH1 0x1F DUP10 AND DUP3 PUSH3 0xC80 JUMP JUMPDEST DUP4 SSTORE POP JUMPDEST PUSH1 0x1 PUSH1 0x2 DUP9 MUL ADD DUP9 SSTORE POP POP POP JUMPDEST POP POP POP POP POP POP JUMP JUMPDEST PUSH1 0x0 DUP1 REVERT JUMPDEST PUSH1 0x0 PUSH20 0xFFFFFFFFFFFFFFFFFFFFFFFFFFFFFFFFFFFFFFFF DUP3 AND SWAP1 POP SWAP2 SWAP1 POP JUMP JUMPDEST PUSH1 0x0 PUSH3 0xDD7 DUP3 PUSH3 0xDAA JUMP JUMPDEST SWAP1 POP SWAP2 SWAP1 POP JUMP JUMPDEST PUSH3 0xDE9 DUP2 PUSH3 0xDCA JUMP JUMPDEST DUP2 EQ PUSH3 0xDF5 JUMPI PUSH1 0x0 DUP1 REVERT JUMPDEST POP JUMP JUMPDEST PUSH1 0x0 DUP2 MLOAD SWAP1 POP PUSH3 0xE09 DUP2 PUSH3 0xDDE JUMP JUMPDEST SWAP3 SWAP2 POP POP JUMP JUMPDEST PUSH1 0x0 PUSH1 0x20 DUP3 DUP5 SUB SLT ISZERO PUSH3 0xE28 JUMPI PUSH3 0xE27 PUSH3 0xDA5 JUMP JUMPDEST JUMPDEST PUSH1 0x0 PUSH3 0xE38 DUP5 DUP3 DUP6 ADD PUSH3 0xDF8 JUMP JUMPDEST SWAP2 POP POP SWAP3 SWAP2 POP POP JUMP JUMPDEST PUSH3 0xE4C DUP2 PUSH3 0xDCA JUMP JUMPDEST DUP3 MSTORE POP POP JUMP JUMPDEST PUSH1 0x0 PUSH1 0x40 DUP3 ADD SWAP1 POP PUSH3 0xE69 PUSH1 0x0 DUP4 ADD DUP6 PUSH3 0xE41 JUMP JUMPDEST PUSH3 0xE78 PUSH1 0x20 DUP4 ADD DUP5 PUSH3 0xE41 JUMP JUMPDEST SWAP4 SWAP3 POP POP POP JUMP JUMPDEST PUSH32 0x4E487B7100000000000000000000000000000000000000000000000000000000 PUSH1 0x0 MSTORE PUSH1 0x11 PUSH1 0x4 MSTORE PUSH1 0x24 PUSH1 0x0 REVERT JUMPDEST PUSH1 0x0 PUSH3 0xEBB DUP3 PUSH3 0xB6A JUMP JUMPDEST SWAP2 POP PUSH3 0xEC8 DUP4 PUSH3 0xB6A JUMP JUMPDEST SWAP3 POP DUP3 DUP3 MUL PUSH3 0xED8 DUP2 PUSH3 0xB6A JUMP JUMPDEST SWAP2 POP DUP3 DUP3 DIV DUP5 EQ DUP4 ISZERO OR PUSH3 0xEF2 JUMPI PUSH3 0xEF1 PUSH3 0xE7F JUMP JUMPDEST JUMPDEST POP SWAP3 SWAP2 POP POP JUMP JUMPDEST PUSH32 0x4E487B7100000000000000000000000000000000000000000000000000000000 PUSH1 0x0 MSTORE PUSH1 0x12 PUSH1 0x4 MSTORE PUSH1 0x24 PUSH1 0x0 REVERT JUMPDEST PUSH1 0x0 PUSH3 0xF35 DUP3 PUSH3 0xB6A JUMP JUMPDEST SWAP2 POP PUSH3 0xF42 DUP4 PUSH3 0xB6A JUMP JUMPDEST SWAP3 POP DUP3 PUSH3 0xF55 JUMPI PUSH3 0xF54 PUSH3 0xEF9 JUMP JUMPDEST JUMPDEST DUP3 DUP3 DIV SWAP1 POP SWAP3 SWAP2 POP POP JUMP JUMPDEST PUSH1 0x0 PUSH3 0xF6D DUP3 PUSH3 0xB6A JUMP JUMPDEST SWAP2 POP PUSH3 0xF7A DUP4 PUSH3 0xB6A JUMP JUMPDEST SWAP3 POP DUP3 DUP3 ADD SWAP1 POP DUP1 DUP3 GT ISZERO PUSH3 0xF95 JUMPI PUSH3 0xF94 PUSH3 0xE7F JUMP JUMPDEST JUMPDEST SWAP3 SWAP2 POP POP JUMP JUMPDEST PUSH1 0x0 DUP3 DUP3 MSTORE PUSH1 0x20 DUP3 ADD SWAP1 POP SWAP3 SWAP2 POP POP JUMP JUMPDEST PUSH32 0x4F6E6C7920746865206F776E65722063616E2063616C6C20746869732066756E PUSH1 0x0 DUP3 ADD MSTORE PUSH32 0x6374696F6E2E0000000000000000000000000000000000000000000000000000 PUSH1 0x20 DUP3 ADD MSTORE POP JUMP JUMPDEST PUSH1 0x0 PUSH3 0x100A PUSH1 0x26 DUP4 PUSH3 0xF9B JUMP JUMPDEST SWAP2 POP PUSH3 0x1017 DUP3 PUSH3 0xFAC JUMP JUMPDEST PUSH1 0x40 DUP3 ADD SWAP1 POP SWAP2 SWAP1 POP JUMP JUMPDEST PUSH1 0x0 PUSH1 0x20 DUP3 ADD SWAP1 POP DUP2 DUP2 SUB PUSH1 0x0 DUP4 ADD MSTORE PUSH3 0x103D DUP2 PUSH3 0xFFB JUMP JUMPDEST SWAP1 POP SWAP2 SWAP1 POP JUMP JUMPDEST PUSH1 0x0 DUP2 ISZERO ISZERO SWAP1 POP SWAP2 SWAP1 POP JUMP JUMPDEST PUSH3 0x105B DUP2 PUSH3 0x1044 JUMP JUMPDEST DUP3 MSTORE POP POP JUMP JUMPDEST PUSH1 0x0 PUSH1 0x20 DUP3 ADD SWAP1 POP PUSH3 0x1078 PUSH1 0x0 DUP4 ADD DUP5 PUSH3 0x1050 JUMP JUMPDEST SWAP3 SWAP2 POP POP JUMP JUMPDEST PUSH32 0x45524332303A206D696E7420746F20746865207A65726F206164647265737300 PUSH1 0x0 DUP3 ADD MSTORE POP JUMP JUMPDEST PUSH1 0x0 PUSH3 0x10B6 PUSH1 0x1F DUP4 PUSH3 0xF9B JUMP JUMPDEST SWAP2 POP PUSH3 0x10C3 DUP3 PUSH3 0x107E JUMP JUMPDEST PUSH1 0x20 DUP3 ADD SWAP1 POP SWAP2 SWAP1 POP JUMP JUMPDEST PUSH1 0x0 PUSH1 0x20 DUP3 ADD SWAP1 POP DUP2 DUP2 SUB PUSH1 0x0 DUP4 ADD MSTORE PUSH3 0x10E9 DUP2 PUSH3 0x10A7 JUMP JUMPDEST SWAP1 POP SWAP2 SWAP1 POP JUMP JUMPDEST PUSH3 0x10FB DUP2 PUSH3 0xB6A JUMP JUMPDEST DUP3 MSTORE POP POP JUMP JUMPDEST PUSH1 0x0 PUSH1 0x20 DUP3 ADD SWAP1 POP PUSH3 0x1118 PUSH1 0x0 DUP4 ADD DUP5 PUSH3 0x10F0 JUMP JUMPDEST SWAP3 SWAP2 POP POP JUMP JUMPDEST PUSH1 0x80 MLOAD PUSH1 0xA0 MLOAD PUSH2 0x5F1A PUSH3 0x11A6 PUSH1 0x0 CODECOPY PUSH1 0x0 DUP2 DUP2 PUSH2 0x1224 ADD MSTORE DUP2 DUP2 PUSH2 0x1C88 ADD MSTORE DUP2 DUP2 PUSH2 0x26C5 ADD MSTORE DUP2 DUP2 PUSH2 0x277C ADD MSTORE DUP2 DUP2 PUSH2 0x27A9 ADD MSTORE DUP2 DUP2 PUSH2 0x2FDF ADD MSTORE DUP2 DUP2 PUSH2 0x4012 ADD MSTORE DUP2 DUP2 PUSH2 0x40CB ADD MSTORE PUSH2 0x40F8 ADD MSTORE PUSH1 0x0 DUP2 DUP2 PUSH2 0xF3C ADD MSTORE DUP2 DUP2 PUSH2 0x2F87 ADD MSTORE DUP2 DUP2 PUSH2 0x426E ADD MSTORE DUP2 DUP2 PUSH2 0x434F ADD MSTORE DUP2 DUP2 PUSH2 0x4376 ADD MSTORE DUP2 DUP2 PUSH2 0x4412 ADD MSTORE PUSH2 0x4439 ADD MSTORE PUSH2 0x5F1A PUSH1 0x0 RETURN INVALID PUSH1 0x80 PUSH1 0x40 MSTORE PUSH1 0x4 CALLDATASIZE LT PUSH2 0x39B JUMPI PUSH1 0x0 CALLDATALOAD PUSH1 0xE0 SHR DUP1 PUSH4 0x8095D564 GT PUSH2 0x1DC JUMPI DUP1 PUSH4 0xC0246668 GT PUSH2 0x102 JUMPI DUP1 PUSH4 0xD85BA063 GT PUSH2 0xA0 JUMPI DUP1 PUSH4 0xF11A24D3 GT PUSH2 0x6F JUMPI DUP1 PUSH4 0xF11A24D3 EQ PUSH2 0xDA7 JUMPI DUP1 PUSH4 0xF6374342 EQ PUSH2 0xDD2 JUMPI DUP1 PUSH4 0xF8B45B05 EQ PUSH2 0xDFD JUMPI DUP1 PUSH4 0xFE72B27A EQ PUSH2 0xE28 JUMPI PUSH2 0x3A2 JUMP JUMPDEST DUP1 PUSH4 0xD85BA063 EQ PUSH2 0xCE9 JUMPI DUP1 PUSH4 0xDD62ED3E EQ PUSH2 0xD14 JUMPI DUP1 PUSH4 0xE2F45605 EQ PUSH2 0xD51 JUMPI DUP1 PUSH4 0xE884F260 EQ PUSH2 0xD7C JUMPI PUSH2 0x3A2 JUMP JUMPDEST DUP1 PUSH4 0xC876D0B9 GT PUSH2 0xDC JUMPI DUP1 PUSH4 0xC876D0B9 EQ PUSH2 0xC2D JUMPI DUP1 PUSH4 0xC8C8EBE4 EQ PUSH2 0xC58 JUMPI DUP1 PUSH4 0xCBF24C06 EQ PUSH2 0xC83 JUMPI DUP1 PUSH4 0xD257B34F EQ PUSH2 0xCAC JUMPI PUSH2 0x3A2 JUMP JUMPDEST DUP1 PUSH4 0xC0246668 EQ PUSH2 0xBB2 JUMPI DUP1 PUSH4 0xC17B5B8C EQ PUSH2 0xBDB JUMPI DUP1 PUSH4 0xC18BC195 EQ PUSH2 0xC04 JUMPI PUSH2 0x3A2 JUMP JUMPDEST DUP1 PUSH4 0x9EC22C0E GT PUSH2 0x17A JUMPI DUP1 PUSH4 0xA9059CBB GT PUSH2 0x149 JUMPI DUP1 PUSH4 0xA9059CBB EQ PUSH2 0xAE2 JUMPI DUP1 PUSH4 0xB2041411 EQ PUSH2 0xB1F JUMPI DUP1 PUSH4 0xB62496F5 EQ PUSH2 0xB4A JUMPI DUP1 PUSH4 0xBBC0C742 EQ PUSH2 0xB87 JUMPI PUSH2 0x3A2 JUMP JUMPDEST DUP1 PUSH4 0x9EC22C0E EQ PUSH2 0xA24 JUMPI DUP1 PUSH4 0x9FCCCE32 EQ PUSH2 0xA4F JUMPI DUP1 PUSH4 0xA457C2D7 EQ PUSH2 0xA7A JUMPI DUP1 PUSH4 0xA4C82A00 EQ PUSH2 0xAB7 JUMPI PUSH2 0x3A2 JUMP JUMPDEST DUP1 PUSH4 0x92136913 GT PUSH2 0x1B6 JUMPI DUP1 PUSH4 0x92136913 EQ PUSH2 0x97C JUMPI DUP1 PUSH4 0x924DE9B7 EQ PUSH2 0x9A7 JUMPI DUP1 PUSH4 0x95D89B41 EQ PUSH2 0x9D0 JUMPI DUP1 PUSH4 0x9A7A23D6 EQ PUSH2 0x9FB JUMPI PUSH2 0x3A2 JUMP JUMPDEST DUP1 PUSH4 0x8095D564 EQ PUSH2 0x911 JUMPI DUP1 PUSH4 0x8A8C523C EQ PUSH2 0x93A JUMPI DUP1 PUSH4 0x8DA5CB5B EQ PUSH2 0x951 JUMPI PUSH2 0x3A2 JUMP JUMPDEST DUP1 PUSH4 0x313CE567 GT PUSH2 0x2C1 JUMPI DUP1 PUSH4 0x6A486A8E GT PUSH2 0x25F JUMPI DUP1 PUSH4 0x751039FC GT PUSH2 0x22E JUMPI DUP1 PUSH4 0x751039FC EQ PUSH2 0x869 JUMPI DUP1 PUSH4 0x7571336A EQ PUSH2 0x894 JUMPI DUP1 PUSH4 0x7BCE5A04 EQ PUSH2 0x8BD JUMPI DUP1 PUSH4 0x7D831A8B EQ PUSH2 0x8E8 JUMPI PUSH2 0x3A2 JUMP JUMPDEST DUP1 PUSH4 0x6A486A8E EQ PUSH2 0x7AD JUMPI DUP1 PUSH4 0x6DDD1713 EQ PUSH2 0x7D8 JUMPI DUP1 PUSH4 0x70A08231 EQ PUSH2 0x803 JUMPI DUP1 PUSH4 0x730C1888 EQ PUSH2 0x840 JUMPI PUSH2 0x3A2 JUMP JUMPDEST DUP1 PUSH4 0x49BD5A5E GT PUSH2 0x29B JUMPI DUP1 PUSH4 0x49BD5A5E EQ PUSH2 0x6F1 JUMPI DUP1 PUSH4 0x4A62BB65 EQ PUSH2 0x71C JUMPI DUP1 PUSH4 0x4FBEE193 EQ PUSH2 0x747 JUMPI DUP1 PUSH4 0x535E02D8 EQ PUSH2 0x784 JUMPI PUSH2 0x3A2 JUMP JUMPDEST DUP1 PUSH4 0x313CE567 EQ PUSH2 0x660 JUMPI DUP1 PUSH4 0x39509351 EQ PUSH2 0x68B JUMPI DUP1 PUSH4 0x455A4396 EQ PUSH2 0x6C8 JUMPI PUSH2 0x3A2 JUMP JUMPDEST DUP1 PUSH4 0x199FFC72 GT PUSH2 0x339 JUMPI DUP1 PUSH4 0x23B872DD GT PUSH2 0x308 JUMPI DUP1 PUSH4 0x23B872DD EQ PUSH2 0x5A2 JUMPI DUP1 PUSH4 0x27C8F835 EQ PUSH2 0x5DF JUMPI DUP1 PUSH4 0x2C3E486C EQ PUSH2 0x60A JUMPI DUP1 PUSH4 0x2E82F1A0 EQ PUSH2 0x635 JUMPI PUSH2 0x3A2 JUMP JUMPDEST DUP1 PUSH4 0x199FFC72 EQ PUSH2 0x4F8 JUMPI DUP1 PUSH4 0x1A8145BB EQ PUSH2 0x523 JUMPI DUP1 PUSH4 0x1F3FED8F EQ PUSH2 0x54E JUMPI DUP1 PUSH4 0x203E727E EQ PUSH2 0x579 JUMPI PUSH2 0x3A2 JUMP JUMPDEST DUP1 PUSH4 0x1694505E GT PUSH2 0x375 JUMPI DUP1 PUSH4 0x1694505E EQ PUSH2 0x44C JUMPI DUP1 PUSH4 0x18160DDD EQ PUSH2 0x477 JUMPI DUP1 PUSH4 0x184C16C5 EQ PUSH2 0x4A2 JUMPI DUP1 PUSH4 0x18A94CF1 EQ PUSH2 0x4CD JUMPI PUSH2 0x3A2 JUMP JUMPDEST DUP1 PUSH4 0x6FDDE03 EQ PUSH2 0x3A7 JUMPI DUP1 PUSH4 0x95EA7B3 EQ PUSH2 0x3D2 JUMPI DUP1 PUSH4 0x10D5DE53 EQ PUSH2 0x40F JUMPI PUSH2 0x3A2 JUMP JUMPDEST CALLDATASIZE PUSH2 0x3A2 JUMPI STOP JUMPDEST PUSH1 0x0 DUP1 REVERT JUMPDEST CALLVALUE DUP1 ISZERO PUSH2 0x3B3 JUMPI PUSH1 0x0 DUP1 REVERT JUMPDEST POP PUSH2 0x3BC PUSH2 0xE65 JUMP JUMPDEST PUSH1 0x40 MLOAD PUSH2 0x3C9 SWAP2 SWAP1 PUSH2 0x4578 JUMP JUMPDEST PUSH1 0x40 MLOAD DUP1 SWAP2 SUB SWAP1 RETURN JUMPDEST CALLVALUE DUP1 ISZERO PUSH2 0x3DE JUMPI PUSH1 0x0 DUP1 REVERT JUMPDEST POP PUSH2 0x3F9 PUSH1 0x4 DUP1 CALLDATASIZE SUB DUP2 ADD SWAP1 PUSH2 0x3F4 SWAP2 SWAP1 PUSH2 0x4642 JUMP JUMPDEST PUSH2 0xEF7 JUMP JUMPDEST PUSH1 0x40 MLOAD PUSH2 0x406 SWAP2 SWAP1 PUSH2 0x469D JUMP JUMPDEST PUSH1 0x40 MLOAD DUP1 SWAP2 SUB SWAP1 RETURN JUMPDEST CALLVALUE DUP1 ISZERO PUSH2 0x41B JUMPI PUSH1 0x0 DUP1 REVERT JUMPDEST POP PUSH2 0x436 PUSH1 0x4 DUP1 CALLDATASIZE SUB DUP2 ADD SWAP1 PUSH2 0x431 SWAP2 SWAP1 PUSH2 0x46B8 JUMP JUMPDEST PUSH2 0xF1A JUMP JUMPDEST PUSH1 0x40 MLOAD PUSH2 0x443 SWAP2 SWAP1 PUSH2 0x469D JUMP JUMPDEST PUSH1 0x40 MLOAD DUP1 SWAP2 SUB SWAP1 RETURN JUMPDEST CALLVALUE DUP1 ISZERO PUSH2 0x458 JUMPI PUSH1 0x0 DUP1 REVERT JUMPDEST POP PUSH2 0x461 PUSH2 0xF3A JUMP JUMPDEST PUSH1 0x40 MLOAD PUSH2 0x46E SWAP2 SWAP1 PUSH2 0x4744 JUMP JUMPDEST PUSH1 0x40 MLOAD DUP1 SWAP2 SUB SWAP1 RETURN JUMPDEST CALLVALUE DUP1 ISZERO PUSH2 0x483 JUMPI PUSH1 0x0 DUP1 REVERT JUMPDEST POP PUSH2 0x48C PUSH2 0xF5E JUMP JUMPDEST PUSH1 0x40 MLOAD PUSH2 0x499 SWAP2 SWAP1 PUSH2 0x476E JUMP JUMPDEST PUSH1 0x40 MLOAD DUP1 SWAP2 SUB SWAP1 RETURN JUMPDEST CALLVALUE DUP1 ISZERO PUSH2 0x4AE JUMPI PUSH1 0x0 DUP1 REVERT JUMPDEST POP PUSH2 0x4B7 PUSH2 0xF68 JUMP JUMPDEST PUSH1 0x40 MLOAD PUSH2 0x4C4 SWAP2 SWAP1 PUSH2 0x476E JUMP JUMPDEST PUSH1 0x40 MLOAD DUP1 SWAP2 SUB SWAP1 RETURN JUMPDEST CALLVALUE DUP1 ISZERO PUSH2 0x4D9 JUMPI PUSH1 0x0 DUP1 REVERT JUMPDEST POP PUSH2 0x4E2 PUSH2 0xF6E JUMP JUMPDEST PUSH1 0x40 MLOAD PUSH2 0x4EF SWAP2 SWAP1 PUSH2 0x476E JUMP JUMPDEST PUSH1 0x40 MLOAD DUP1 SWAP2 SUB SWAP1 RETURN JUMPDEST CALLVALUE DUP1 ISZERO PUSH2 0x504 JUMPI PUSH1 0x0 DUP1 REVERT JUMPDEST POP PUSH2 0x50D PUSH2 0xF74 JUMP JUMPDEST PUSH1 0x40 MLOAD PUSH2 0x51A SWAP2 SWAP1 PUSH2 0x476E JUMP JUMPDEST PUSH1 0x40 MLOAD DUP1 SWAP2 SUB SWAP1 RETURN JUMPDEST CALLVALUE DUP1 ISZERO PUSH2 0x52F JUMPI PUSH1 0x0 DUP1 REVERT JUMPDEST POP PUSH2 0x538 PUSH2 0xF7A JUMP JUMPDEST PUSH1 0x40 MLOAD PUSH2 0x545 SWAP2 SWAP1 PUSH2 0x476E JUMP JUMPDEST PUSH1 0x40 MLOAD DUP1 SWAP2 SUB SWAP1 RETURN JUMPDEST CALLVALUE DUP1 ISZERO PUSH2 0x55A JUMPI PUSH1 0x0 DUP1 REVERT JUMPDEST POP PUSH2 0x563 PUSH2 0xF80 JUMP JUMPDEST PUSH1 0x40 MLOAD PUSH2 0x570 SWAP2 SWAP1 PUSH2 0x476E JUMP JUMPDEST PUSH1 0x40 MLOAD DUP1 SWAP2 SUB SWAP1 RETURN JUMPDEST CALLVALUE DUP1 ISZERO PUSH2 0x585 JUMPI PUSH1 0x0 DUP1 REVERT JUMPDEST POP PUSH2 0x5A0 PUSH1 0x4 DUP1 CALLDATASIZE SUB DUP2 ADD SWAP1 PUSH2 0x59B SWAP2 SWAP1 PUSH2 0x4789 JUMP JUMPDEST PUSH2 0xF86 JUMP JUMPDEST STOP JUMPDEST CALLVALUE DUP1 ISZERO PUSH2 0x5AE JUMPI PUSH1 0x0 DUP1 REVERT JUMPDEST POP PUSH2 0x5C9 PUSH1 0x4 DUP1 CALLDATASIZE SUB DUP2 ADD SWAP1 PUSH2 0x5C4 SWAP2 SWAP1 PUSH2 0x47B6 JUMP JUMPDEST PUSH2 0x10A9 JUMP JUMPDEST PUSH1 0x40 MLOAD PUSH2 0x5D6 SWAP2 SWAP1 PUSH2 0x469D JUMP JUMPDEST PUSH1 0x40 MLOAD DUP1 SWAP2 SUB SWAP1 RETURN JUMPDEST CALLVALUE DUP1 ISZERO PUSH2 0x5EB JUMPI PUSH1 0x0 DUP1 REVERT JUMPDEST POP PUSH2 0x5F4 PUSH2 0x10D8 JUMP JUMPDEST PUSH1 0x40 MLOAD PUSH2 0x601 SWAP2 SWAP1 PUSH2 0x4818 JUMP JUMPDEST PUSH1 0x40 MLOAD DUP1 SWAP2 SUB SWAP1 RETURN JUMPDEST CALLVALUE DUP1 ISZERO PUSH2 0x616 JUMPI PUSH1 0x0 DUP1 REVERT JUMPDEST POP PUSH2 0x61F PUSH2 0x10DE JUMP JUMPDEST PUSH1 0x40 MLOAD PUSH2 0x62C SWAP2 SWAP1 PUSH2 0x476E JUMP JUMPDEST PUSH1 0x40 MLOAD DUP1 SWAP2 SUB SWAP1 RETURN JUMPDEST CALLVALUE DUP1 ISZERO PUSH2 0x641 JUMPI PUSH1 0x0 DUP1 REVERT JUMPDEST POP PUSH2 0x64A PUSH2 0x10E4 JUMP JUMPDEST PUSH1 0x40 MLOAD PUSH2 0x657 SWAP2 SWAP1 PUSH2 0x469D JUMP JUMPDEST PUSH1 0x40 MLOAD DUP1 SWAP2 SUB SWAP1 RETURN JUMPDEST CALLVALUE DUP1 ISZERO PUSH2 0x66C JUMPI PUSH1 0x0 DUP1 REVERT JUMPDEST POP PUSH2 0x675 PUSH2 0x10F7 JUMP JUMPDEST PUSH1 0x40 MLOAD PUSH2 0x682 SWAP2 SWAP1 PUSH2 0x484F JUMP JUMPDEST PUSH1 0x40 MLOAD DUP1 SWAP2 SUB SWAP1 RETURN JUMPDEST CALLVALUE DUP1 ISZERO PUSH2 0x697 JUMPI PUSH1 0x0 DUP1 REVERT JUMPDEST POP PUSH2 0x6B2 PUSH1 0x4 DUP1 CALLDATASIZE SUB DUP2 ADD SWAP1 PUSH2 0x6AD SWAP2 SWAP1 PUSH2 0x4642 JUMP JUMPDEST PUSH2 0x1100 JUMP JUMPDEST PUSH1 0x40 MLOAD PUSH2 0x6BF SWAP2 SWAP1 PUSH2 0x469D JUMP JUMPDEST PUSH1 0x40 MLOAD DUP1 SWAP2 SUB SWAP1 RETURN JUMPDEST CALLVALUE DUP1 ISZERO PUSH2 0x6D4 JUMPI PUSH1 0x0 DUP1 REVERT JUMPDEST POP PUSH2 0x6EF PUSH1 0x4 DUP1 CALLDATASIZE SUB DUP2 ADD SWAP1 PUSH2 0x6EA SWAP2 SWAP1 PUSH2 0x4896 JUMP JUMPDEST PUSH2 0x1137 JUMP JUMPDEST STOP JUMPDEST CALLVALUE DUP1 ISZERO PUSH2 0x6FD JUMPI PUSH1 0x0 DUP1 REVERT JUMPDEST POP PUSH2 0x706 PUSH2 0x1222 JUMP JUMPDEST PUSH1 0x40 MLOAD PUSH2 0x713 SWAP2 SWAP1 PUSH2 0x4818 JUMP JUMPDEST PUSH1 0x40 MLOAD DUP1 SWAP2 SUB SWAP1 RETURN JUMPDEST CALLVALUE DUP1 ISZERO PUSH2 0x728 JUMPI PUSH1 0x0 DUP1 REVERT JUMPDEST POP PUSH2 0x731 PUSH2 0x1246 JUMP JUMPDEST PUSH1 0x40 MLOAD PUSH2 0x73E SWAP2 SWAP1 PUSH2 0x469D JUMP JUMPDEST PUSH1 0x40 MLOAD DUP1 SWAP2 SUB SWAP1 RETURN JUMPDEST CALLVALUE DUP1 ISZERO PUSH2 0x753 JUMPI PUSH1 0x0 DUP1 REVERT JUMPDEST POP PUSH2 0x76E PUSH1 0x4 DUP1 CALLDATASIZE SUB DUP2 ADD SWAP1 PUSH2 0x769 SWAP2 SWAP1 PUSH2 0x46B8 JUMP JUMPDEST PUSH2 0x1259 JUMP JUMPDEST PUSH1 0x40 MLOAD PUSH2 0x77B SWAP2 SWAP1 PUSH2 0x469D JUMP JUMPDEST PUSH1 0x40 MLOAD DUP1 SWAP2 SUB SWAP1 RETURN JUMPDEST CALLVALUE DUP1 ISZERO PUSH2 0x790 JUMPI PUSH1 0x0 DUP1 REVERT JUMPDEST POP PUSH2 0x7AB PUSH1 0x4 DUP1 CALLDATASIZE SUB DUP2 ADD SWAP1 PUSH2 0x7A6 SWAP2 SWAP1 PUSH2 0x46B8 JUMP JUMPDEST PUSH2 0x12AF JUMP JUMPDEST STOP JUMPDEST CALLVALUE DUP1 ISZERO PUSH2 0x7B9 JUMPI PUSH1 0x0 DUP1 REVERT JUMPDEST POP PUSH2 0x7C2 PUSH2 0x13FF JUMP JUMPDEST PUSH1 0x40 MLOAD PUSH2 0x7CF SWAP2 SWAP1 PUSH2 0x476E JUMP JUMPDEST PUSH1 0x40 MLOAD DUP1 SWAP2 SUB SWAP1 RETURN JUMPDEST CALLVALUE DUP1 ISZERO PUSH2 0x7E4 JUMPI PUSH1 0x0 DUP1 REVERT JUMPDEST POP PUSH2 0x7ED PUSH2 0x1405 JUMP JUMPDEST PUSH1 0x40 MLOAD PUSH2 0x7FA SWAP2 SWAP1 PUSH2 0x469D JUMP JUMPDEST PUSH1 0x40 MLOAD DUP1 SWAP2 SUB SWAP1 RETURN JUMPDEST CALLVALUE DUP1 ISZERO PUSH2 0x80F JUMPI PUSH1 0x0 DUP1 REVERT JUMPDEST POP PUSH2 0x82A PUSH1 0x4 DUP1 CALLDATASIZE SUB DUP2 ADD SWAP1 PUSH2 0x825 SWAP2 SWAP1 PUSH2 0x46B8 JUMP JUMPDEST PUSH2 0x1418 JUMP JUMPDEST PUSH1 0x40 MLOAD PUSH2 0x837 SWAP2 SWAP1 PUSH2 0x476E JUMP JUMPDEST PUSH1 0x40 MLOAD DUP1 SWAP2 SUB SWAP1 RETURN JUMPDEST CALLVALUE DUP1 ISZERO PUSH2 0x84C JUMPI PUSH1 0x0 DUP1 REVERT JUMPDEST POP PUSH2 0x867 PUSH1 0x4 DUP1 CALLDATASIZE SUB DUP2 ADD SWAP1 PUSH2 0x862 SWAP2 SWAP1 PUSH2 0x48D6 JUMP JUMPDEST PUSH2 0x1460 JUMP JUMPDEST STOP JUMPDEST CALLVALUE DUP1 ISZERO PUSH2 0x875 JUMPI PUSH1 0x0 DUP1 REVERT JUMPDEST POP PUSH2 0x87E PUSH2 0x15B4 JUMP JUMPDEST PUSH1 0x40 MLOAD PUSH2 0x88B SWAP2 SWAP1 PUSH2 0x469D JUMP JUMPDEST PUSH1 0x40 MLOAD DUP1 SWAP2 SUB SWAP1 RETURN JUMPDEST CALLVALUE DUP1 ISZERO PUSH2 0x8A0 JUMPI PUSH1 0x0 DUP1 REVERT JUMPDEST POP PUSH2 0x8BB PUSH1 0x4 DUP1 CALLDATASIZE SUB DUP2 ADD SWAP1 PUSH2 0x8B6 SWAP2 SWAP1 PUSH2 0x4896 JUMP JUMPDEST PUSH2 0x1668 JUMP JUMPDEST STOP JUMPDEST CALLVALUE DUP1 ISZERO PUSH2 0x8C9 JUMPI PUSH1 0x0 DUP1 REVERT JUMPDEST POP PUSH2 0x8D2 PUSH2 0x1753 JUMP JUMPDEST PUSH1 0x40 MLOAD PUSH2 0x8DF SWAP2 SWAP1 PUSH2 0x476E JUMP JUMPDEST PUSH1 0x40 MLOAD DUP1 SWAP2 SUB SWAP1 RETURN JUMPDEST CALLVALUE DUP1 ISZERO PUSH2 0x8F4 JUMPI PUSH1 0x0 DUP1 REVERT JUMPDEST POP PUSH2 0x90F PUSH1 0x4 DUP1 CALLDATASIZE SUB DUP2 ADD SWAP1 PUSH2 0x90A SWAP2 SWAP1 PUSH2 0x46B8 JUMP JUMPDEST PUSH2 0x1759 JUMP JUMPDEST STOP JUMPDEST CALLVALUE DUP1 ISZERO PUSH2 0x91D JUMPI PUSH1 0x0 DUP1 REVERT JUMPDEST POP PUSH2 0x938 PUSH1 0x4 DUP1 CALLDATASIZE SUB DUP2 ADD SWAP1 PUSH2 0x933 SWAP2 SWAP1 PUSH2 0x4929 JUMP JUMPDEST PUSH2 0x18A9 JUMP JUMPDEST STOP JUMPDEST CALLVALUE DUP1 ISZERO PUSH2 0x946 JUMPI PUSH1 0x0 DUP1 REVERT JUMPDEST POP PUSH2 0x94F PUSH2 0x19BC JUMP JUMPDEST STOP JUMPDEST CALLVALUE DUP1 ISZERO PUSH2 0x95D JUMPI PUSH1 0x0 DUP1 REVERT JUMPDEST POP PUSH2 0x966 PUSH2 0x1A8B JUMP JUMPDEST PUSH1 0x40 MLOAD PUSH2 0x973 SWAP2 SWAP1 PUSH2 0x499D JUMP JUMPDEST PUSH1 0x40 MLOAD DUP1 SWAP2 SUB SWAP1 RETURN JUMPDEST CALLVALUE DUP1 ISZERO PUSH2 0x988 JUMPI PUSH1 0x0 DUP1 REVERT JUMPDEST POP PUSH2 0x991 PUSH2 0x1AB1 JUMP JUMPDEST PUSH1 0x40 MLOAD PUSH2 0x99E SWAP2 SWAP1 PUSH2 0x476E JUMP JUMPDEST PUSH1 0x40 MLOAD DUP1 SWAP2 SUB SWAP1 RETURN JUMPDEST CALLVALUE DUP1 ISZERO PUSH2 0x9B3 JUMPI PUSH1 0x0 DUP1 REVERT JUMPDEST POP PUSH2 0x9CE PUSH1 0x4 DUP1 CALLDATASIZE SUB DUP2 ADD SWAP1 PUSH2 0x9C9 SWAP2 SWAP1 PUSH2 0x49B8 JUMP JUMPDEST PUSH2 0x1AB7 JUMP JUMPDEST STOP JUMPDEST CALLVALUE DUP1 ISZERO PUSH2 0x9DC JUMPI PUSH1 0x0 DUP1 REVERT JUMPDEST POP PUSH2 0x9E5 PUSH2 0x1B64 JUMP JUMPDEST PUSH1 0x40 MLOAD PUSH2 0x9F2 SWAP2 SWAP1 PUSH2 0x4578 JUMP JUMPDEST PUSH1 0x40 MLOAD DUP1 SWAP2 SUB SWAP1 RETURN JUMPDEST CALLVALUE DUP1 ISZERO PUSH2 0xA07 JUMPI PUSH1 0x0 DUP1 REVERT JUMPDEST POP PUSH2 0xA22 PUSH1 0x4 DUP1 CALLDATASIZE SUB DUP2 ADD SWAP1 PUSH2 0xA1D SWAP2 SWAP1 PUSH2 0x4896 JUMP JUMPDEST PUSH2 0x1BF6 JUMP JUMPDEST STOP JUMPDEST CALLVALUE DUP1 ISZERO PUSH2 0xA30 JUMPI PUSH1 0x0 DUP1 REVERT JUMPDEST POP PUSH2 0xA39 PUSH2 0x1D22 JUMP JUMPDEST PUSH1 0x40 MLOAD PUSH2 0xA46 SWAP2 SWAP1 PUSH2 0x476E JUMP JUMPDEST PUSH1 0x40 MLOAD DUP1 SWAP2 SUB SWAP1 RETURN JUMPDEST CALLVALUE DUP1 ISZERO PUSH2 0xA5B JUMPI PUSH1 0x0 DUP1 REVERT JUMPDEST POP PUSH2 0xA64 PUSH2 0x1D28 JUMP JUMPDEST PUSH1 0x40 MLOAD PUSH2 0xA71 SWAP2 SWAP1 PUSH2 0x476E JUMP JUMPDEST PUSH1 0x40 MLOAD DUP1 SWAP2 SUB SWAP1 RETURN JUMPDEST CALLVALUE DUP1 ISZERO PUSH2 0xA86 JUMPI PUSH1 0x0 DUP1 REVERT JUMPDEST POP PUSH2 0xAA1 PUSH1 0x4 DUP1 CALLDATASIZE SUB DUP2 ADD SWAP1 PUSH2 0xA9C SWAP2 SWAP1 PUSH2 0x4642 JUMP JUMPDEST PUSH2 0x1D2E JUMP JUMPDEST PUSH1 0x40 MLOAD PUSH2 0xAAE SWAP2 SWAP1 PUSH2 0x469D JUMP JUMPDEST PUSH1 0x40 MLOAD DUP1 SWAP2 SUB SWAP1 RETURN JUMPDEST CALLVALUE DUP1 ISZERO PUSH2 0xAC3 JUMPI PUSH1 0x0 DUP1 REVERT JUMPDEST POP PUSH2 0xACC PUSH2 0x1DA5 JUMP JUMPDEST PUSH1 0x40 MLOAD PUSH2 0xAD9 SWAP2 SWAP1 PUSH2 0x476E JUMP JUMPDEST PUSH1 0x40 MLOAD DUP1 SWAP2 SUB SWAP1 RETURN JUMPDEST CALLVALUE DUP1 ISZERO PUSH2 0xAEE JUMPI PUSH1 0x0 DUP1 REVERT JUMPDEST POP PUSH2 0xB09 PUSH1 0x4 DUP1 CALLDATASIZE SUB DUP2 ADD SWAP1 PUSH2 0xB04 SWAP2 SWAP1 PUSH2 0x4642 JUMP JUMPDEST PUSH2 0x1DAB JUMP JUMPDEST PUSH1 0x40 MLOAD PUSH2 0xB16 SWAP2 SWAP1 PUSH2 0x469D JUMP JUMPDEST PUSH1 0x40 MLOAD DUP1 SWAP2 SUB SWAP1 RETURN JUMPDEST CALLVALUE DUP1 ISZERO PUSH2 0xB2B JUMPI PUSH1 0x0 DUP1 REVERT JUMPDEST POP PUSH2 0xB34 PUSH2 0x1DCE JUMP JUMPDEST PUSH1 0x40 MLOAD PUSH2 0xB41 SWAP2 SWAP1 PUSH2 0x476E JUMP JUMPDEST PUSH1 0x40 MLOAD DUP1 SWAP2 SUB SWAP1 RETURN JUMPDEST CALLVALUE DUP1 ISZERO PUSH2 0xB56 JUMPI PUSH1 0x0 DUP1 REVERT JUMPDEST POP PUSH2 0xB71 PUSH1 0x4 DUP1 CALLDATASIZE SUB DUP2 ADD SWAP1 PUSH2 0xB6C SWAP2 SWAP1 PUSH2 0x46B8 JUMP JUMPDEST PUSH2 0x1DD4 JUMP JUMPDEST PUSH1 0x40 MLOAD PUSH2 0xB7E SWAP2 SWAP1 PUSH2 0x469D JUMP JUMPDEST PUSH1 0x40 MLOAD DUP1 SWAP2 SUB SWAP1 RETURN JUMPDEST CALLVALUE DUP1 ISZERO PUSH2 0xB93 JUMPI PUSH1 0x0 DUP1 REVERT JUMPDEST POP PUSH2 0xB9C PUSH2 0x1DF4 JUMP JUMPDEST PUSH1 0x40 MLOAD PUSH2 0xBA9 SWAP2 SWAP1 PUSH2 0x469D JUMP JUMPDEST PUSH1 0x40 MLOAD DUP1 SWAP2 SUB SWAP1 RETURN JUMPDEST CALLVALUE DUP1 ISZERO PUSH2 0xBBE JUMPI PUSH1 0x0 DUP1 REVERT JUMPDEST POP PUSH2 0xBD9 PUSH1 0x4 DUP1 CALLDATASIZE SUB DUP2 ADD SWAP1 PUSH2 0xBD4 SWAP2 SWAP1 PUSH2 0x4896 JUMP JUMPDEST PUSH2 0x1E07 JUMP JUMPDEST STOP JUMPDEST CALLVALUE DUP1 ISZERO PUSH2 0xBE7 JUMPI PUSH1 0x0 DUP1 REVERT JUMPDEST POP PUSH2 0xC02 PUSH1 0x4 DUP1 CALLDATASIZE SUB DUP2 ADD SWAP1 PUSH2 0xBFD SWAP2 SWAP1 PUSH2 0x4929 JUMP JUMPDEST PUSH2 0x1F40 JUMP JUMPDEST STOP JUMPDEST CALLVALUE DUP1 ISZERO PUSH2 0xC10 JUMPI PUSH1 0x0 DUP1 REVERT JUMPDEST POP PUSH2 0xC2B PUSH1 0x4 DUP1 CALLDATASIZE SUB DUP2 ADD SWAP1 PUSH2 0xC26 SWAP2 SWAP1 PUSH2 0x4789 JUMP JUMPDEST PUSH2 0x2053 JUMP JUMPDEST STOP JUMPDEST CALLVALUE DUP1 ISZERO PUSH2 0xC39 JUMPI PUSH1 0x0 DUP1 REVERT JUMPDEST POP PUSH2 0xC42 PUSH2 0x2176 JUMP JUMPDEST PUSH1 0x40 MLOAD PUSH2 0xC4F SWAP2 SWAP1 PUSH2 0x469D JUMP JUMPDEST PUSH1 0x40 MLOAD DUP1 SWAP2 SUB SWAP1 RETURN JUMPDEST CALLVALUE DUP1 ISZERO PUSH2 0xC64 JUMPI PUSH1 0x0 DUP1 REVERT JUMPDEST POP PUSH2 0xC6D PUSH2 0x2189 JUMP JUMPDEST PUSH1 0x40 MLOAD PUSH2 0xC7A SWAP2 SWAP1 PUSH2 0x476E JUMP JUMPDEST PUSH1 0x40 MLOAD DUP1 SWAP2 SUB SWAP1 RETURN JUMPDEST CALLVALUE DUP1 ISZERO PUSH2 0xC8F JUMPI PUSH1 0x0 DUP1 REVERT JUMPDEST POP PUSH2 0xCAA PUSH1 0x4 DUP1 CALLDATASIZE SUB DUP2 ADD SWAP1 PUSH2 0xCA5 SWAP2 SWAP1 PUSH2 0x4B2D JUMP JUMPDEST PUSH2 0x218F JUMP JUMPDEST STOP JUMPDEST CALLVALUE DUP1 ISZERO PUSH2 0xCB8 JUMPI PUSH1 0x0 DUP1 REVERT JUMPDEST POP PUSH2 0xCD3 PUSH1 0x4 DUP1 CALLDATASIZE SUB DUP2 ADD SWAP1 PUSH2 0xCCE SWAP2 SWAP1 PUSH2 0x4789 JUMP JUMPDEST PUSH2 0x22B4 JUMP JUMPDEST PUSH1 0x40 MLOAD PUSH2 0xCE0 SWAP2 SWAP1 PUSH2 0x469D JUMP JUMPDEST PUSH1 0x40 MLOAD DUP1 SWAP2 SUB SWAP1 RETURN JUMPDEST CALLVALUE DUP1 ISZERO PUSH2 0xCF5 JUMPI PUSH1 0x0 DUP1 REVERT JUMPDEST POP PUSH2 0xCFE PUSH2 0x241D JUMP JUMPDEST PUSH1 0x40 MLOAD PUSH2 0xD0B SWAP2 SWAP1 PUSH2 0x476E JUMP JUMPDEST PUSH1 0x40 MLOAD DUP1 SWAP2 SUB SWAP1 RETURN JUMPDEST CALLVALUE DUP1 ISZERO PUSH2 0xD20 JUMPI PUSH1 0x0 DUP1 REVERT JUMPDEST POP PUSH2 0xD3B PUSH1 0x4 DUP1 CALLDATASIZE SUB DUP2 ADD SWAP1 PUSH2 0xD36 SWAP2 SWAP1 PUSH2 0x4B76 JUMP JUMPDEST PUSH2 0x2423 JUMP JUMPDEST PUSH1 0x40 MLOAD PUSH2 0xD48 SWAP2 SWAP1 PUSH2 0x476E JUMP JUMPDEST PUSH1 0x40 MLOAD DUP1 SWAP2 SUB SWAP1 RETURN JUMPDEST CALLVALUE DUP1 ISZERO PUSH2 0xD5D JUMPI PUSH1 0x0 DUP1 REVERT JUMPDEST POP PUSH2 0xD66 PUSH2 0x24AA JUMP JUMPDEST PUSH1 0x40 MLOAD PUSH2 0xD73 SWAP2 SWAP1 PUSH2 0x476E JUMP JUMPDEST PUSH1 0x40 MLOAD DUP1 SWAP2 SUB SWAP1 RETURN JUMPDEST CALLVALUE DUP1 ISZERO PUSH2 0xD88 JUMPI PUSH1 0x0 DUP1 REVERT JUMPDEST POP PUSH2 0xD91 PUSH2 0x24B0 JUMP JUMPDEST PUSH1 0x40 MLOAD PUSH2 0xD9E SWAP2 SWAP1 PUSH2 0x469D JUMP JUMPDEST PUSH1 0x40 MLOAD DUP1 SWAP2 SUB SWAP1 RETURN JUMPDEST CALLVALUE DUP1 ISZERO PUSH2 0xDB3 JUMPI PUSH1 0x0 DUP1 REVERT JUMPDEST POP PUSH2 0xDBC PUSH2 0x2564 JUMP JUMPDEST PUSH1 0x40 MLOAD PUSH2 0xDC9 SWAP2 SWAP1 PUSH2 0x476E JUMP JUMPDEST PUSH1 0x40 MLOAD DUP1 SWAP2 SUB SWAP1 RETURN JUMPDEST CALLVALUE DUP1 ISZERO PUSH2 0xDDE JUMPI PUSH1 0x0 DUP1 REVERT JUMPDEST POP PUSH2 0xDE7 PUSH2 0x256A JUMP JUMPDEST PUSH1 0x40 MLOAD PUSH2 0xDF4 SWAP2 SWAP1 PUSH2 0x476E JUMP JUMPDEST PUSH1 0x40 MLOAD DUP1 SWAP2 SUB SWAP1 RETURN JUMPDEST CALLVALUE DUP1 ISZERO PUSH2 0xE09 JUMPI PUSH1 0x0 DUP1 REVERT JUMPDEST POP PUSH2 0xE12 PUSH2 0x2570 JUMP JUMPDEST PUSH1 0x40 MLOAD PUSH2 0xE1F SWAP2 SWAP1 PUSH2 0x476E JUMP JUMPDEST PUSH1 0x40 MLOAD DUP1 SWAP2 SUB SWAP1 RETURN JUMPDEST CALLVALUE DUP1 ISZERO PUSH2 0xE34 JUMPI PUSH1 0x0 DUP1 REVERT JUMPDEST POP PUSH2 0xE4F PUSH1 0x4 DUP1 CALLDATASIZE SUB DUP2 ADD SWAP1 PUSH2 0xE4A SWAP2 SWAP1 PUSH2 0x4789 JUMP JUMPDEST PUSH2 0x2576 JUMP JUMPDEST PUSH1 0x40 MLOAD PUSH2 0xE5C SWAP2 SWAP1 PUSH2 0x469D JUMP JUMPDEST PUSH1 0x40 MLOAD DUP1 SWAP2 SUB SWAP1 RETURN JUMPDEST PUSH1 0x60 PUSH1 0x3 DUP1 SLOAD PUSH2 0xE74 SWAP1 PUSH2 0x4BE5 JUMP JUMPDEST DUP1 PUSH1 0x1F ADD PUSH1 0x20 DUP1 SWAP2 DIV MUL PUSH1 0x20 ADD PUSH1 0x40 MLOAD SWAP1 DUP2 ADD PUSH1 0x40 MSTORE DUP1 SWAP3 SWAP2 SWAP1 DUP2 DUP2 MSTORE PUSH1 0x20 ADD DUP3 DUP1 SLOAD PUSH2 0xEA0 SWAP1 PUSH2 0x4BE5 JUMP JUMPDEST DUP1 ISZERO PUSH2 0xEED JUMPI DUP1 PUSH1 0x1F LT PUSH2 0xEC2 JUMPI PUSH2 0x100 DUP1 DUP4 SLOAD DIV MUL DUP4 MSTORE SWAP2 PUSH1 0x20 ADD SWAP2 PUSH2 0xEED JUMP JUMPDEST DUP3 ADD SWAP2 SWAP1 PUSH1 0x0 MSTORE PUSH1 0x20 PUSH1 0x0 KECCAK256 SWAP1 JUMPDEST DUP2 SLOAD DUP2 MSTORE SWAP1 PUSH1 0x1 ADD SWAP1 PUSH1 0x20 ADD DUP1 DUP4 GT PUSH2 0xED0 JUMPI DUP3 SWAP1 SUB PUSH1 0x1F AND DUP3 ADD SWAP2 JUMPDEST POP POP POP POP POP SWAP1 POP SWAP1 JUMP JUMPDEST PUSH1 0x0 DUP1 PUSH2 0xF02 PUSH2 0x2862 JUMP JUMPDEST SWAP1 POP PUSH2 0xF0F DUP2 DUP6 DUP6 PUSH2 0x286A JUMP JUMPDEST PUSH1 0x1 SWAP2 POP POP SWAP3 SWAP2 POP POP JUMP JUMPDEST PUSH1 0x21 PUSH1 0x20 MSTORE DUP1 PUSH1 0x0 MSTORE PUSH1 0x40 PUSH1 0x0 KECCAK256 PUSH1 0x0 SWAP2 POP SLOAD SWAP1 PUSH2 0x100 EXP SWAP1 DIV PUSH1 0xFF AND DUP2 JUMP JUMPDEST PUSH32 0x0 DUP2 JUMP JUMPDEST PUSH1 0x0 PUSH1 0x2 SLOAD SWAP1 POP SWAP1 JUMP JUMPDEST PUSH1 0xF SLOAD DUP2 JUMP JUMPDEST PUSH1 0x1B SLOAD DUP2 JUMP JUMPDEST PUSH1 0xB SLOAD DUP2 JUMP JUMPDEST PUSH1 0x1D SLOAD DUP2 JUMP JUMPDEST PUSH1 0x1C SLOAD DUP2 JUMP JUMPDEST PUSH1 0x5 PUSH1 0x0 SWAP1 SLOAD SWAP1 PUSH2 0x100 EXP SWAP1 DIV PUSH20 0xFFFFFFFFFFFFFFFFFFFFFFFFFFFFFFFFFFFFFFFF AND PUSH20 0xFFFFFFFFFFFFFFFFFFFFFFFFFFFFFFFFFFFFFFFF AND CALLER PUSH20 0xFFFFFFFFFFFFFFFFFFFFFFFFFFFFFFFFFFFFFFFF AND EQ PUSH2 0x1016 JUMPI PUSH1 0x40 MLOAD PUSH32 0x8C379A000000000000000000000000000000000000000000000000000000000 DUP2 MSTORE PUSH1 0x4 ADD PUSH2 0x100D SWAP1 PUSH2 0x4C88 JUMP JUMPDEST PUSH1 0x40 MLOAD DUP1 SWAP2 SUB SWAP1 REVERT JUMPDEST PUSH8 0xDE0B6B3A7640000 PUSH2 0x3E8 PUSH1 0x1 PUSH2 0x102C PUSH2 0xF5E JUMP JUMPDEST PUSH2 0x1036 SWAP2 SWAP1 PUSH2 0x4CD7 JUMP JUMPDEST PUSH2 0x1040 SWAP2 SWAP1 PUSH2 0x4D48 JUMP JUMPDEST PUSH2 0x104A SWAP2 SWAP1 PUSH2 0x4D48 JUMP JUMPDEST DUP2 LT ISZERO PUSH2 0x108C JUMPI PUSH1 0x40 MLOAD PUSH32 0x8C379A000000000000000000000000000000000000000000000000000000000 DUP2 MSTORE PUSH1 0x4 ADD PUSH2 0x1083 SWAP1 PUSH2 0x4DEB JUMP JUMPDEST PUSH1 0x40 MLOAD DUP1 SWAP2 SUB SWAP1 REVERT JUMPDEST PUSH8 0xDE0B6B3A7640000 DUP2 PUSH2 0x10A0 SWAP2 SWAP1 PUSH2 0x4CD7 JUMP JUMPDEST PUSH1 0x8 DUP2 SWAP1 SSTORE POP POP JUMP JUMPDEST PUSH1 0x0 DUP1 PUSH2 0x10B4 PUSH2 0x2862 JUMP JUMPDEST SWAP1 POP PUSH2 0x10C1 DUP6 DUP3 DUP6 PUSH2 0x2A33 JUMP JUMPDEST PUSH2 0x10CC DUP6 DUP6 DUP6 PUSH2 0x2ABF JUMP JUMPDEST PUSH1 0x1 SWAP2 POP POP SWAP4 SWAP3 POP POP POP JUMP JUMPDEST PUSH2 0xDEAD DUP2 JUMP JUMPDEST PUSH1 0xD SLOAD DUP2 JUMP JUMPDEST PUSH1 0xC PUSH1 0x0 SWAP1 SLOAD SWAP1 PUSH2 0x100 EXP SWAP1 DIV PUSH1 0xFF AND DUP2 JUMP JUMPDEST PUSH1 0x0 PUSH1 0x12 SWAP1 POP SWAP1 JUMP JUMPDEST PUSH1 0x0 DUP1 PUSH2 0x110B PUSH2 0x2862 JUMP JUMPDEST SWAP1 POP PUSH2 0x112C DUP2 DUP6 DUP6 PUSH2 0x111D DUP6 DUP10 PUSH2 0x2423 JUMP JUMPDEST PUSH2 0x1127 SWAP2 SWAP1 PUSH2 0x4E0B JUMP JUMPDEST PUSH2 0x286A JUMP JUMPDEST PUSH1 0x1 SWAP2 POP POP SWAP3 SWAP2 POP POP JUMP JUMPDEST PUSH1 0x5 PUSH1 0x0 SWAP1 SLOAD SWAP1 PUSH2 0x100 EXP SWAP1 DIV PUSH20 0xFFFFFFFFFFFFFFFFFFFFFFFFFFFFFFFFFFFFFFFF AND PUSH20 0xFFFFFFFFFFFFFFFFFFFFFFFFFFFFFFFFFFFFFFFF AND CALLER PUSH20 0xFFFFFFFFFFFFFFFFFFFFFFFFFFFFFFFFFFFFFFFF AND EQ PUSH2 0x11C7 JUMPI PUSH1 0x40 MLOAD PUSH32 0x8C379A000000000000000000000000000000000000000000000000000000000 DUP2 MSTORE PUSH1 0x4 ADD PUSH2 0x11BE SWAP1 PUSH2 0x4C88 JUMP JUMPDEST PUSH1 0x40 MLOAD DUP1 SWAP2 SUB SWAP1 REVERT JUMPDEST DUP1 PUSH1 0x1F PUSH1 0x0 DUP5 PUSH20 0xFFFFFFFFFFFFFFFFFFFFFFFFFFFFFFFFFFFFFFFF AND PUSH20 0xFFFFFFFFFFFFFFFFFFFFFFFFFFFFFFFFFFFFFFFF AND DUP2 MSTORE PUSH1 0x20 ADD SWAP1 DUP2 MSTORE PUSH1 0x20 ADD PUSH1 0x0 KECCAK256 PUSH1 0x0 PUSH2 0x100 EXP DUP2 SLOAD DUP2 PUSH1 0xFF MUL NOT AND SWAP1 DUP4 ISZERO ISZERO MUL OR SWAP1 SSTORE POP POP POP JUMP JUMPDEST PUSH32 0x0 DUP2 JUMP JUMPDEST PUSH1 0x11 PUSH1 0x0 SWAP1 SLOAD SWAP1 PUSH2 0x100 EXP SWAP1 DIV PUSH1 0xFF AND DUP2 JUMP JUMPDEST PUSH1 0x0 PUSH1 0x20 PUSH1 0x0 DUP4 PUSH20 0xFFFFFFFFFFFFFFFFFFFFFFFFFFFFFFFFFFFFFFFF AND PUSH20 0xFFFFFFFFFFFFFFFFFFFFFFFFFFFFFFFFFFFFFFFF AND DUP2 MSTORE PUSH1 0x20 ADD SWAP1 DUP2 MSTORE PUSH1 0x20 ADD PUSH1 0x0 KECCAK256 PUSH1 0x0 SWAP1 SLOAD SWAP1 PUSH2 0x100 EXP SWAP1 DIV PUSH1 0xFF AND SWAP1 POP SWAP2 SWAP1 POP JUMP JUMPDEST PUSH1 0x5 PUSH1 0x0 SWAP1 SLOAD SWAP1 PUSH2 0x100 EXP SWAP1 DIV PUSH20 0xFFFFFFFFFFFFFFFFFFFFFFFFFFFFFFFFFFFFFFFF AND PUSH20 0xFFFFFFFFFFFFFFFFFFFFFFFFFFFFFFFFFFFFFFFF AND CALLER PUSH20 0xFFFFFFFFFFFFFFFFFFFFFFFFFFFFFFFFFFFFFFFF AND EQ PUSH2 0x133F JUMPI PUSH1 0x40 MLOAD PUSH32 0x8C379A000000000000000000000000000000000000000000000000000000000 DUP2 MSTORE PUSH1 0x4 ADD PUSH2 0x1336 SWAP1 PUSH2 0x4C88 JUMP JUMPDEST PUSH1 0x40 MLOAD DUP1 SWAP2 SUB SWAP1 REVERT JUMPDEST PUSH1 0x7 PUSH1 0x0 SWAP1 SLOAD SWAP1 PUSH2 0x100 EXP SWAP1 DIV PUSH20 0xFFFFFFFFFFFFFFFFFFFFFFFFFFFFFFFFFFFFFFFF AND PUSH20 0xFFFFFFFFFFFFFFFFFFFFFFFFFFFFFFFFFFFFFFFF AND DUP2 PUSH20 0xFFFFFFFFFFFFFFFFFFFFFFFFFFFFFFFFFFFFFFFF AND PUSH32 0xFAF1B77ED79F6E898C44DD8AB36B330C7B2FD39BCAAB05ED6362480DF8703965 PUSH1 0x40 MLOAD PUSH1 0x40 MLOAD DUP1 SWAP2 SUB SWAP1 LOG3 DUP1 PUSH1 0x7 PUSH1 0x0 PUSH2 0x100 EXP DUP2 SLOAD DUP2 PUSH20 0xFFFFFFFFFFFFFFFFFFFFFFFFFFFFFFFFFFFFFFFF MUL NOT AND SWAP1 DUP4 PUSH20 0xFFFFFFFFFFFFFFFFFFFFFFFFFFFFFFFFFFFFFFFF AND MUL OR SWAP1 SSTORE POP POP JUMP JUMPDEST PUSH1 0x18 SLOAD DUP2 JUMP JUMPDEST PUSH1 0x11 PUSH1 0x2 SWAP1 SLOAD SWAP1 PUSH2 0x100 EXP SWAP1 DIV PUSH1 0xFF AND DUP2 JUMP JUMPDEST PUSH1 0x0 DUP1 PUSH1 0x0 DUP4 PUSH20 0xFFFFFFFFFFFFFFFFFFFFFFFFFFFFFFFFFFFFFFFF AND PUSH20 0xFFFFFFFFFFFFFFFFFFFFFFFFFFFFFFFFFFFFFFFF AND DUP2 MSTORE PUSH1 0x20 ADD SWAP1 DUP2 MSTORE PUSH1 0x20 ADD PUSH1 0x0 KECCAK256 SLOAD SWAP1 POP SWAP2 SWAP1 POP JUMP JUMPDEST PUSH1 0x5 PUSH1 0x0 SWAP1 SLOAD SWAP1 PUSH2 0x100 EXP SWAP1 DIV PUSH20 0xFFFFFFFFFFFFFFFFFFFFFFFFFFFFFFFFFFFFFFFF AND PUSH20 0xFFFFFFFFFFFFFFFFFFFFFFFFFFFFFFFFFFFFFFFF AND CALLER PUSH20 0xFFFFFFFFFFFFFFFFFFFFFFFFFFFFFFFFFFFFFFFF AND EQ PUSH2 0x14F0 JUMPI PUSH1 0x40 MLOAD PUSH32 0x8C379A000000000000000000000000000000000000000000000000000000000 DUP2 MSTORE PUSH1 0x4 ADD PUSH2 0x14E7 SWAP1 PUSH2 0x4C88 JUMP JUMPDEST PUSH1 0x40 MLOAD DUP1 SWAP2 SUB SWAP1 REVERT JUMPDEST PUSH2 0x258 DUP4 LT ISZERO PUSH2 0x1535 JUMPI PUSH1 0x40 MLOAD PUSH32 0x8C379A000000000000000000000000000000000000000000000000000000000 DUP2 MSTORE PUSH1 0x4 ADD PUSH2 0x152C SWAP1 PUSH2 0x4EB1 JUMP JUMPDEST PUSH1 0x40 MLOAD DUP1 SWAP2 SUB SWAP1 REVERT JUMPDEST PUSH2 0x3E8 DUP3 GT ISZERO DUP1 ISZERO PUSH2 0x1548 JUMPI POP PUSH1 0x0 DUP3 LT ISZERO JUMPDEST PUSH2 0x1587 JUMPI PUSH1 0x40 MLOAD PUSH32 0x8C379A000000000000000000000000000000000000000000000000000000000 DUP2 MSTORE PUSH1 0x4 ADD PUSH2 0x157E SWAP1 PUSH2 0x4F43 JUMP JUMPDEST PUSH1 0x40 MLOAD DUP1 SWAP2 SUB SWAP1 REVERT JUMPDEST DUP3 PUSH1 0xD DUP2 SWAP1 SSTORE POP DUP2 PUSH1 0xB DUP2 SWAP1 SSTORE POP DUP1 PUSH1 0xC PUSH1 0x0 PUSH2 0x100 EXP DUP2 SLOAD DUP2 PUSH1 0xFF MUL NOT AND SWAP1 DUP4 ISZERO ISZERO MUL OR SWAP1 SSTORE POP POP POP POP JUMP JUMPDEST PUSH1 0x0 PUSH1 0x5 PUSH1 0x0 SWAP1 SLOAD SWAP1 PUSH2 0x100 EXP SWAP1 DIV PUSH20 0xFFFFFFFFFFFFFFFFFFFFFFFFFFFFFFFFFFFFFFFF AND PUSH20 0xFFFFFFFFFFFFFFFFFFFFFFFFFFFFFFFFFFFFFFFF AND CALLER PUSH20 0xFFFFFFFFFFFFFFFFFFFFFFFFFFFFFFFFFFFFFFFF AND EQ PUSH2 0x1646 JUMPI PUSH1 0x40 MLOAD PUSH32 0x8C379A000000000000000000000000000000000000000000000000000000000 DUP2 MSTORE PUSH1 0x4 ADD PUSH2 0x163D SWAP1 PUSH2 0x4C88 JUMP JUMPDEST PUSH1 0x40 MLOAD DUP1 SWAP2 SUB SWAP1 REVERT JUMPDEST PUSH1 0x0 PUSH1 0x11 PUSH1 0x0 PUSH2 0x100 EXP DUP2 SLOAD DUP2 PUSH1 0xFF MUL NOT AND SWAP1 DUP4 ISZERO ISZERO MUL OR SWAP1 SSTORE POP PUSH1 0x1 SWAP1 POP SWAP1 JUMP JUMPDEST PUSH1 0x5 PUSH1 0x0 SWAP1 SLOAD SWAP1 PUSH2 0x100 EXP SWAP1 DIV PUSH20 0xFFFFFFFFFFFFFFFFFFFFFFFFFFFFFFFFFFFFFFFF AND PUSH20 0xFFFFFFFFFFFFFFFFFFFFFFFFFFFFFFFFFFFFFFFF AND CALLER PUSH20 0xFFFFFFFFFFFFFFFFFFFFFFFFFFFFFFFFFFFFFFFF AND EQ PUSH2 0x16F8 JUMPI PUSH1 0x40 MLOAD PUSH32 0x8C379A000000000000000000000000000000000000000000000000000000000 DUP2 MSTORE PUSH1 0x4 ADD PUSH2 0x16EF SWAP1 PUSH2 0x4C88 JUMP JUMPDEST PUSH1 0x40 MLOAD DUP1 SWAP2 SUB SWAP1 REVERT JUMPDEST DUP1 PUSH1 0x21 PUSH1 0x0 DUP5 PUSH20 0xFFFFFFFFFFFFFFFFFFFFFFFFFFFFFFFFFFFFFFFF AND PUSH20 0xFFFFFFFFFFFFFFFFFFFFFFFFFFFFFFFFFFFFFFFF AND DUP2 MSTORE PUSH1 0x20 ADD SWAP1 DUP2 MSTORE PUSH1 0x20 ADD PUSH1 0x0 KECCAK256 PUSH1 0x0 PUSH2 0x100 EXP DUP2 SLOAD DUP2 PUSH1 0xFF MUL NOT AND SWAP1 DUP4 ISZERO ISZERO MUL OR SWAP1 SSTORE POP POP POP JUMP JUMPDEST PUSH1 0x15 SLOAD DUP2 JUMP JUMPDEST PUSH1 0x5 PUSH1 0x0 SWAP1 SLOAD SWAP1 PUSH2 0x100 EXP SWAP1 DIV PUSH20 0xFFFFFFFFFFFFFFFFFFFFFFFFFFFFFFFFFFFFFFFF AND PUSH20 0xFFFFFFFFFFFFFFFFFFFFFFFFFFFFFFFFFFFFFFFF AND CALLER PUSH20 0xFFFFFFFFFFFFFFFFFFFFFFFFFFFFFFFFFFFFFFFF AND EQ PUSH2 0x17E9 JUMPI PUSH1 0x40 MLOAD PUSH32 0x8C379A000000000000000000000000000000000000000000000000000000000 DUP2 MSTORE PUSH1 0x4 ADD PUSH2 0x17E0 SWAP1 PUSH2 0x4C88 JUMP JUMPDEST PUSH1 0x40 MLOAD DUP1 SWAP2 SUB SWAP1 REVERT JUMPDEST PUSH1 0x6 PUSH1 0x0 SWAP1 SLOAD SWAP1 PUSH2 0x100 EXP SWAP1 DIV PUSH20 0xFFFFFFFFFFFFFFFFFFFFFFFFFFFFFFFFFFFFFFFF AND PUSH20 0xFFFFFFFFFFFFFFFFFFFFFFFFFFFFFFFFFFFFFFFF AND DUP2 PUSH20 0xFFFFFFFFFFFFFFFFFFFFFFFFFFFFFFFFFFFFFFFF AND PUSH32 0xA751787977EEB3902E30E1D19CA00C6AD274A1F622C31A206E32366700B05674 PUSH1 0x40 MLOAD PUSH1 0x40 MLOAD DUP1 SWAP2 SUB SWAP1 LOG3 DUP1 PUSH1 0x6 PUSH1 0x0 PUSH2 0x100 EXP DUP2 SLOAD DUP2 PUSH20 0xFFFFFFFFFFFFFFFFFFFFFFFFFFFFFFFFFFFFFFFF MUL NOT AND SWAP1 DUP4 PUSH20 0xFFFFFFFFFFFFFFFFFFFFFFFFFFFFFFFFFFFFFFFF AND MUL OR SWAP1 SSTORE POP POP JUMP JUMPDEST PUSH1 0x5 PUSH1 0x0 SWAP1 SLOAD SWAP1 PUSH2 0x100 EXP SWAP1 DIV PUSH20 0xFFFFFFFFFFFFFFFFFFFFFFFFFFFFFFFFFFFFFFFF AND PUSH20 0xFFFFFFFFFFFFFFFFFFFFFFFFFFFFFFFFFFFFFFFF AND CALLER PUSH20 0xFFFFFFFFFFFFFFFFFFFFFFFFFFFFFFFFFFFFFFFF AND EQ PUSH2 0x1939 JUMPI PUSH1 0x40 MLOAD PUSH32 0x8C379A000000000000000000000000000000000000000000000000000000000 DUP2 MSTORE PUSH1 0x4 ADD PUSH2 0x1930 SWAP1 PUSH2 0x4C88 JUMP JUMPDEST PUSH1 0x40 MLOAD DUP1 SWAP2 SUB SWAP1 REVERT JUMPDEST DUP3 PUSH1 0x15 DUP2 SWAP1 SSTORE POP DUP2 PUSH1 0x16 DUP2 SWAP1 SSTORE POP DUP1 PUSH1 0x17 DUP2 SWAP1 SSTORE POP PUSH1 0x17 SLOAD PUSH1 0x16 SLOAD PUSH1 0x15 SLOAD PUSH2 0x1961 SWAP2 SWAP1 PUSH2 0x4E0B JUMP JUMPDEST PUSH2 0x196B SWAP2 SWAP1 PUSH2 0x4E0B JUMP JUMPDEST PUSH1 0x14 DUP2 SWAP1 SSTORE POP PUSH1 0x23 PUSH1 0x14 SLOAD GT ISZERO PUSH2 0x19B7 JUMPI PUSH1 0x40 MLOAD PUSH32 0x8C379A000000000000000000000000000000000000000000000000000000000 DUP2 MSTORE PUSH1 0x4 ADD PUSH2 0x19AE SWAP1 PUSH2 0x4FAF JUMP JUMPDEST PUSH1 0x40 MLOAD DUP1 SWAP2 SUB SWAP1 REVERT JUMPDEST POP POP POP JUMP JUMPDEST PUSH1 0x5 PUSH1 0x0 SWAP1 SLOAD SWAP1 PUSH2 0x100 EXP SWAP1 DIV PUSH20 0xFFFFFFFFFFFFFFFFFFFFFFFFFFFFFFFFFFFFFFFF AND PUSH20 0xFFFFFFFFFFFFFFFFFFFFFFFFFFFFFFFFFFFFFFFF AND CALLER PUSH20 0xFFFFFFFFFFFFFFFFFFFFFFFFFFFFFFFFFFFFFFFF AND EQ PUSH2 0x1A4C JUMPI PUSH1 0x40 MLOAD PUSH32 0x8C379A000000000000000000000000000000000000000000000000000000000 DUP2 MSTORE PUSH1 0x4 ADD PUSH2 0x1A43 SWAP1 PUSH2 0x4C88 JUMP JUMPDEST PUSH1 0x40 MLOAD DUP1 SWAP2 SUB SWAP1 REVERT JUMPDEST PUSH1 0x1 PUSH1 0x11 PUSH1 0x1 PUSH2 0x100 EXP DUP2 SLOAD DUP2 PUSH1 0xFF MUL NOT AND SWAP1 DUP4 ISZERO ISZERO MUL OR SWAP1 SSTORE POP PUSH1 0x1 PUSH1 0x11 PUSH1 0x2 PUSH2 0x100 EXP DUP2 SLOAD DUP2 PUSH1 0xFF MUL NOT AND SWAP1 DUP4 ISZERO ISZERO MUL OR SWAP1 SSTORE POP TIMESTAMP PUSH1 0xE DUP2 SWAP1 SSTORE POP JUMP JUMPDEST PUSH1 0x5 PUSH1 0x0 SWAP1 SLOAD SWAP1 PUSH2 0x100 EXP SWAP1 DIV PUSH20 0xFFFFFFFFFFFFFFFFFFFFFFFFFFFFFFFFFFFFFFFF AND DUP2 JUMP JUMPDEST PUSH1 0x19 SLOAD DUP2 JUMP JUMPDEST PUSH1 0x5 PUSH1 0x0 SWAP1 SLOAD SWAP1 PUSH2 0x100 EXP SWAP1 DIV PUSH20 0xFFFFFFFFFFFFFFFFFFFFFFFFFFFFFFFFFFFFFFFF AND PUSH20 0xFFFFFFFFFFFFFFFFFFFFFFFFFFFFFFFFFFFFFFFF AND CALLER PUSH20 0xFFFFFFFFFFFFFFFFFFFFFFFFFFFFFFFFFFFFFFFF AND EQ PUSH2 0x1B47 JUMPI PUSH1 0x40 MLOAD PUSH32 0x8C379A000000000000000000000000000000000000000000000000000000000 DUP2 MSTORE PUSH1 0x4 ADD PUSH2 0x1B3E SWAP1 PUSH2 0x4C88 JUMP JUMPDEST PUSH1 0x40 MLOAD DUP1 SWAP2 SUB SWAP1 REVERT JUMPDEST DUP1 PUSH1 0x11 PUSH1 0x2 PUSH2 0x100 EXP DUP2 SLOAD DUP2 PUSH1 0xFF MUL NOT AND SWAP1 DUP4 ISZERO ISZERO MUL OR SWAP1 SSTORE POP POP JUMP JUMPDEST PUSH1 0x60 PUSH1 0x4 DUP1 SLOAD PUSH2 0x1B73 SWAP1 PUSH2 0x4BE5 JUMP JUMPDEST DUP1 PUSH1 0x1F ADD PUSH1 0x20 DUP1 SWAP2 DIV MUL PUSH1 0x20 ADD PUSH1 0x40 MLOAD SWAP1 DUP2 ADD PUSH1 0x40 MSTORE DUP1 SWAP3 SWAP2 SWAP1 DUP2 DUP2 MSTORE PUSH1 0x20 ADD DUP3 DUP1 SLOAD PUSH2 0x1B9F SWAP1 PUSH2 0x4BE5 JUMP JUMPDEST DUP1 ISZERO PUSH2 0x1BEC JUMPI DUP1 PUSH1 0x1F LT PUSH2 0x1BC1 JUMPI PUSH2 0x100 DUP1 DUP4 SLOAD DIV MUL DUP4 MSTORE SWAP2 PUSH1 0x20 ADD SWAP2 PUSH2 0x1BEC JUMP JUMPDEST DUP3 ADD SWAP2 SWAP1 PUSH1 0x0 MSTORE PUSH1 0x20 PUSH1 0x0 KECCAK256 SWAP1 JUMPDEST DUP2 SLOAD DUP2 MSTORE SWAP1 PUSH1 0x1 ADD SWAP1 PUSH1 0x20 ADD DUP1 DUP4 GT PUSH2 0x1BCF JUMPI DUP3 SWAP1 SUB PUSH1 0x1F AND DUP3 ADD SWAP2 JUMPDEST POP POP POP POP POP SWAP1 POP SWAP1 JUMP JUMPDEST PUSH1 0x5 PUSH1 0x0 SWAP1 SLOAD SWAP1 PUSH2 0x100 EXP SWAP1 DIV PUSH20 0xFFFFFFFFFFFFFFFFFFFFFFFFFFFFFFFFFFFFFFFF AND PUSH20 0xFFFFFFFFFFFFFFFFFFFFFFFFFFFFFFFFFFFFFFFF AND CALLER PUSH20 0xFFFFFFFFFFFFFFFFFFFFFFFFFFFFFFFFFFFFFFFF AND EQ PUSH2 0x1C86 JUMPI PUSH1 0x40 MLOAD PUSH32 0x8C379A000000000000000000000000000000000000000000000000000000000 DUP2 MSTORE PUSH1 0x4 ADD PUSH2 0x1C7D SWAP1 PUSH2 0x4C88 JUMP JUMPDEST PUSH1 0x40 MLOAD DUP1 SWAP2 SUB SWAP1 REVERT JUMPDEST PUSH32 0x0 PUSH20 0xFFFFFFFFFFFFFFFFFFFFFFFFFFFFFFFFFFFFFFFF AND DUP3 PUSH20 0xFFFFFFFFFFFFFFFFFFFFFFFFFFFFFFFFFFFFFFFF AND SUB PUSH2 0x1D14 JUMPI PUSH1 0x40 MLOAD PUSH32 0x8C379A000000000000000000000000000000000000000000000000000000000 DUP2 MSTORE PUSH1 0x4 ADD PUSH2 0x1D0B SWAP1 PUSH2 0x5041 JUMP JUMPDEST PUSH1 0x40 MLOAD DUP1 SWAP2 SUB SWAP1 REVERT JUMPDEST PUSH2 0x1D1E DUP3 DUP3 PUSH2 0x39BF JUMP JUMPDEST POP POP JUMP JUMPDEST PUSH1 0x10 SLOAD DUP2 JUMP JUMPDEST PUSH1 0x1E SLOAD DUP2 JUMP JUMPDEST PUSH1 0x0 DUP1 PUSH2 0x1D39 PUSH2 0x2862 JUMP JUMPDEST SWAP1 POP PUSH1 0x0 PUSH2 0x1D47 DUP3 DUP7 PUSH2 0x2423 JUMP JUMPDEST SWAP1 POP DUP4 DUP2 LT ISZERO PUSH2 0x1D8C JUMPI PUSH1 0x40 MLOAD PUSH32 0x8C379A000000000000000000000000000000000000000000000000000000000 DUP2 MSTORE PUSH1 0x4 ADD PUSH2 0x1D83 SWAP1 PUSH2 0x50D3 JUMP JUMPDEST PUSH1 0x40 MLOAD DUP1 SWAP2 SUB SWAP1 REVERT JUMPDEST PUSH2 0x1D99 DUP3 DUP7 DUP7 DUP5 SUB PUSH2 0x286A JUMP JUMPDEST PUSH1 0x1 SWAP3 POP POP POP SWAP3 SWAP2 POP POP JUMP JUMPDEST PUSH1 0xE SLOAD DUP2 JUMP JUMPDEST PUSH1 0x0 DUP1 PUSH2 0x1DB6 PUSH2 0x2862 JUMP JUMPDEST SWAP1 POP PUSH2 0x1DC3 DUP2 DUP6 DUP6 PUSH2 0x2ABF JUMP JUMPDEST PUSH1 0x1 SWAP2 POP POP SWAP3 SWAP2 POP POP JUMP JUMPDEST PUSH1 0x17 SLOAD DUP2 JUMP JUMPDEST PUSH1 0x22 PUSH1 0x20 MSTORE DUP1 PUSH1 0x0 MSTORE PUSH1 0x40 PUSH1 0x0 KECCAK256 PUSH1 0x0 SWAP2 POP SLOAD SWAP1 PUSH2 0x100 EXP SWAP1 DIV PUSH1 0xFF AND DUP2 JUMP JUMPDEST PUSH1 0x11 PUSH1 0x1 SWAP1 SLOAD SWAP1 PUSH2 0x100 EXP SWAP1 DIV PUSH1 0xFF AND DUP2 JUMP JUMPDEST PUSH1 0x5 PUSH1 0x0 SWAP1 SLOAD SWAP1 PUSH2 0x100 EXP SWAP1 DIV PUSH20 0xFFFFFFFFFFFFFFFFFFFFFFFFFFFFFFFFFFFFFFFF AND PUSH20 0xFFFFFFFFFFFFFFFFFFFFFFFFFFFFFFFFFFFFFFFF AND CALLER PUSH20 0xFFFFFFFFFFFFFFFFFFFFFFFFFFFFFFFFFFFFFFFF AND EQ PUSH2 0x1E97 JUMPI PUSH1 0x40 MLOAD PUSH32 0x8C379A000000000000000000000000000000000000000000000000000000000 DUP2 MSTORE PUSH1 0x4 ADD PUSH2 0x1E8E SWAP1 PUSH2 0x4C88 JUMP JUMPDEST PUSH1 0x40 MLOAD DUP1 SWAP2 SUB SWAP1 REVERT JUMPDEST DUP1 PUSH1 0x20 PUSH1 0x0 DUP5 PUSH20 0xFFFFFFFFFFFFFFFFFFFFFFFFFFFFFFFFFFFFFFFF AND PUSH20 0xFFFFFFFFFFFFFFFFFFFFFFFFFFFFFFFFFFFFFFFF AND DUP2 MSTORE PUSH1 0x20 ADD SWAP1 DUP2 MSTORE PUSH1 0x20 ADD PUSH1 0x0 KECCAK256 PUSH1 0x0 PUSH2 0x100 EXP DUP2 SLOAD DUP2 PUSH1 0xFF MUL NOT AND SWAP1 DUP4 ISZERO ISZERO MUL OR SWAP1 SSTORE POP DUP2 PUSH20 0xFFFFFFFFFFFFFFFFFFFFFFFFFFFFFFFFFFFFFFFF AND PUSH32 0x9D8F7706EA1113D1A167B526ECA956215946DD36CC7DF39EB16180222D8B5DF7 DUP3 PUSH1 0x40 MLOAD PUSH2 0x1F34 SWAP2 SWAP1 PUSH2 0x469D JUMP JUMPDEST PUSH1 0x40 MLOAD DUP1 SWAP2 SUB SWAP1 LOG2 POP POP JUMP JUMPDEST PUSH1 0x5 PUSH1 0x0 SWAP1 SLOAD SWAP1 PUSH2 0x100 EXP SWAP1 DIV PUSH20 0xFFFFFFFFFFFFFFFFFFFFFFFFFFFFFFFFFFFFFFFF AND PUSH20 0xFFFFFFFFFFFFFFFFFFFFFFFFFFFFFFFFFFFFFFFF AND CALLER PUSH20 0xFFFFFFFFFFFFFFFFFFFFFFFFFFFFFFFFFFFFFFFF AND EQ PUSH2 0x1FD0 JUMPI PUSH1 0x40 MLOAD PUSH32 0x8C379A000000000000000000000000000000000000000000000000000000000 DUP2 MSTORE PUSH1 0x4 ADD PUSH2 0x1FC7 SWAP1 PUSH2 0x4C88 JUMP JUMPDEST PUSH1 0x40 MLOAD DUP1 SWAP2 SUB SWAP1 REVERT JUMPDEST DUP3 PUSH1 0x19 DUP2 SWAP1 SSTORE POP DUP2 PUSH1 0x1A DUP2 SWAP1 SSTORE POP DUP1 PUSH1 0x1B DUP2 SWAP1 SSTORE POP PUSH1 0x1B SLOAD PUSH1 0x1A SLOAD PUSH1 0x19 SLOAD PUSH2 0x1FF8 SWAP2 SWAP1 PUSH2 0x4E0B JUMP JUMPDEST PUSH2 0x2002 SWAP2 SWAP1 PUSH2 0x4E0B JUMP JUMPDEST PUSH1 0x18 DUP2 SWAP1 SSTORE POP PUSH1 0x28 PUSH1 0x18 SLOAD GT ISZERO PUSH2 0x204E JUMPI PUSH1 0x40 MLOAD PUSH32 0x8C379A000000000000000000000000000000000000000000000000000000000 DUP2 MSTORE PUSH1 0x4 ADD PUSH2 0x2045 SWAP1 PUSH2 0x513F JUMP JUMPDEST PUSH1 0x40 MLOAD DUP1 SWAP2 SUB SWAP1 REVERT JUMPDEST POP POP POP JUMP JUMPDEST PUSH1 0x5 PUSH1 0x0 SWAP1 SLOAD SWAP1 PUSH2 0x100 EXP SWAP1 DIV PUSH20 0xFFFFFFFFFFFFFFFFFFFFFFFFFFFFFFFFFFFFFFFF AND PUSH20 0xFFFFFFFFFFFFFFFFFFFFFFFFFFFFFFFFFFFFFFFF AND CALLER PUSH20 0xFFFFFFFFFFFFFFFFFFFFFFFFFFFFFFFFFFFFFFFF AND EQ PUSH2 0x20E3 JUMPI PUSH1 0x40 MLOAD PUSH32 0x8C379A000000000000000000000000000000000000000000000000000000000 DUP2 MSTORE PUSH1 0x4 ADD PUSH2 0x20DA SWAP1 PUSH2 0x4C88 JUMP JUMPDEST PUSH1 0x40 MLOAD DUP1 SWAP2 SUB SWAP1 REVERT JUMPDEST PUSH8 0xDE0B6B3A7640000 PUSH2 0x3E8 PUSH1 0x5 PUSH2 0x20F9 PUSH2 0xF5E JUMP JUMPDEST PUSH2 0x2103 SWAP2 SWAP1 PUSH2 0x4CD7 JUMP JUMPDEST PUSH2 0x210D SWAP2 SWAP1 PUSH2 0x4D48 JUMP JUMPDEST PUSH2 0x2117 SWAP2 SWAP1 PUSH2 0x4D48 JUMP JUMPDEST DUP2 LT ISZERO PUSH2 0x2159 JUMPI PUSH1 0x40 MLOAD PUSH32 0x8C379A000000000000000000000000000000000000000000000000000000000 DUP2 MSTORE PUSH1 0x4 ADD PUSH2 0x2150 SWAP1 PUSH2 0x51D1 JUMP JUMPDEST PUSH1 0x40 MLOAD DUP1 SWAP2 SUB SWAP1 REVERT JUMPDEST PUSH8 0xDE0B6B3A7640000 DUP2 PUSH2 0x216D SWAP2 SWAP1 PUSH2 0x4CD7 JUMP JUMPDEST PUSH1 0xA DUP2 SWAP1 SSTORE POP POP JUMP JUMPDEST PUSH1 0x13 PUSH1 0x0 SWAP1 SLOAD SWAP1 PUSH2 0x100 EXP SWAP1 DIV PUSH1 0xFF AND DUP2 JUMP JUMPDEST PUSH1 0x8 SLOAD DUP2 JUMP JUMPDEST PUSH1 0x5 PUSH1 0x0 SWAP1 SLOAD SWAP1 PUSH2 0x100 EXP SWAP1 DIV PUSH20 0xFFFFFFFFFFFFFFFFFFFFFFFFFFFFFFFFFFFFFFFF AND PUSH20 0xFFFFFFFFFFFFFFFFFFFFFFFFFFFFFFFFFFFFFFFF AND CALLER PUSH20 0xFFFFFFFFFFFFFFFFFFFFFFFFFFFFFFFFFFFFFFFF AND EQ PUSH2 0x221F JUMPI PUSH1 0x40 MLOAD PUSH32 0x8C379A000000000000000000000000000000000000000000000000000000000 DUP2 MSTORE PUSH1 0x4 ADD PUSH2 0x2216 SWAP1 PUSH2 0x4C88 JUMP JUMPDEST PUSH1 0x40 MLOAD DUP1 SWAP2 SUB SWAP1 REVERT JUMPDEST PUSH1 0x0 JUMPDEST DUP2 MLOAD DUP2 LT ISZERO PUSH2 0x22B0 JUMPI PUSH1 0x1 PUSH1 0x1F PUSH1 0x0 DUP5 DUP5 DUP2 MLOAD DUP2 LT PUSH2 0x2244 JUMPI PUSH2 0x2243 PUSH2 0x51F1 JUMP JUMPDEST JUMPDEST PUSH1 0x20 MUL PUSH1 0x20 ADD ADD MLOAD PUSH20 0xFFFFFFFFFFFFFFFFFFFFFFFFFFFFFFFFFFFFFFFF AND PUSH20 0xFFFFFFFFFFFFFFFFFFFFFFFFFFFFFFFFFFFFFFFF AND DUP2 MSTORE PUSH1 0x20 ADD SWAP1 DUP2 MSTORE PUSH1 0x20 ADD PUSH1 0x0 KECCAK256 PUSH1 0x0 PUSH2 0x100 EXP DUP2 SLOAD DUP2 PUSH1 0xFF MUL NOT AND SWAP1 DUP4 ISZERO ISZERO MUL OR SWAP1 SSTORE POP DUP1 DUP1 PUSH2 0x22A8 SWAP1 PUSH2 0x5220 JUMP JUMPDEST SWAP2 POP POP PUSH2 0x2222 JUMP JUMPDEST POP POP JUMP JUMPDEST PUSH1 0x0 PUSH1 0x5 PUSH1 0x0 SWAP1 SLOAD SWAP1 PUSH2 0x100 EXP SWAP1 DIV PUSH20 0xFFFFFFFFFFFFFFFFFFFFFFFFFFFFFFFFFFFFFFFF AND PUSH20 0xFFFFFFFFFFFFFFFFFFFFFFFFFFFFFFFFFFFFFFFF AND CALLER PUSH20 0xFFFFFFFFFFFFFFFFFFFFFFFFFFFFFFFFFFFFFFFF AND EQ PUSH2 0x2346 JUMPI PUSH1 0x40 MLOAD PUSH32 0x8C379A000000000000000000000000000000000000000000000000000000000 DUP2 MSTORE PUSH1 0x4 ADD PUSH2 0x233D SWAP1 PUSH2 0x4C88 JUMP JUMPDEST PUSH1 0x40 MLOAD DUP1 SWAP2 SUB SWAP1 REVERT JUMPDEST PUSH3 0x186A0 PUSH1 0x1 PUSH2 0x2354 PUSH2 0xF5E JUMP JUMPDEST PUSH2 0x235E SWAP2 SWAP1 PUSH2 0x4CD7 JUMP JUMPDEST PUSH2 0x2368 SWAP2 SWAP1 PUSH2 0x4D48 JUMP JUMPDEST DUP3 LT ISZERO PUSH2 0x23AA JUMPI PUSH1 0x40 MLOAD PUSH32 0x8C379A000000000000000000000000000000000000000000000000000000000 DUP2 MSTORE PUSH1 0x4 ADD PUSH2 0x23A1 SWAP1 PUSH2 0x52DA JUMP JUMPDEST PUSH1 0x40 MLOAD DUP1 SWAP2 SUB SWAP1 REVERT JUMPDEST PUSH2 0x3E8 PUSH1 0x5 PUSH2 0x23B7 PUSH2 0xF5E JUMP JUMPDEST PUSH2 0x23C1 SWAP2 SWAP1 PUSH2 0x4CD7 JUMP JUMPDEST PUSH2 0x23CB SWAP2 SWAP1 PUSH2 0x4D48 JUMP JUMPDEST DUP3 GT ISZERO PUSH2 0x240D JUMPI PUSH1 0x40 MLOAD PUSH32 0x8C379A000000000000000000000000000000000000000000000000000000000 DUP2 MSTORE PUSH1 0x4 ADD PUSH2 0x2404 SWAP1 PUSH2 0x536C JUMP JUMPDEST PUSH1 0x40 MLOAD DUP1 SWAP2 SUB SWAP1 REVERT JUMPDEST DUP2 PUSH1 0x9 DUP2 SWAP1 SSTORE POP PUSH1 0x1 SWAP1 POP SWAP2 SWAP1 POP JUMP JUMPDEST PUSH1 0x14 SLOAD DUP2 JUMP JUMPDEST PUSH1 0x0 PUSH1 0x1 PUSH1 0x0 DUP5 PUSH20 0xFFFFFFFFFFFFFFFFFFFFFFFFFFFFFFFFFFFFFFFF AND PUSH20 0xFFFFFFFFFFFFFFFFFFFFFFFFFFFFFFFFFFFFFFFF AND DUP2 MSTORE PUSH1 0x20 ADD SWAP1 DUP2 MSTORE PUSH1 0x20 ADD PUSH1 0x0 KECCAK256 PUSH1 0x0 DUP4 PUSH20 0xFFFFFFFFFFFFFFFFFFFFFFFFFFFFFFFFFFFFFFFF AND PUSH20 0xFFFFFFFFFFFFFFFFFFFFFFFFFFFFFFFFFFFFFFFF AND DUP2 MSTORE PUSH1 0x20 ADD SWAP1 DUP2 MSTORE PUSH1 0x20 ADD PUSH1 0x0 KECCAK256 SLOAD SWAP1 POP SWAP3 SWAP2 POP POP JUMP JUMPDEST PUSH1 0x9 SLOAD DUP2 JUMP JUMPDEST PUSH1 0x0 PUSH1 0x5 PUSH1 0x0 SWAP1 SLOAD SWAP1 PUSH2 0x100 EXP SWAP1 DIV PUSH20 0xFFFFFFFFFFFFFFFFFFFFFFFFFFFFFFFFFFFFFFFF AND PUSH20 0xFFFFFFFFFFFFFFFFFFFFFFFFFFFFFFFFFFFFFFFF AND CALLER PUSH20 0xFFFFFFFFFFFFFFFFFFFFFFFFFFFFFFFFFFFFFFFF AND EQ PUSH2 0x2542 JUMPI PUSH1 0x40 MLOAD PUSH32 0x8C379A000000000000000000000000000000000000000000000000000000000 DUP2 MSTORE PUSH1 0x4 ADD PUSH2 0x2539 SWAP1 PUSH2 0x4C88 JUMP JUMPDEST PUSH1 0x40 MLOAD DUP1 SWAP2 SUB SWAP1 REVERT JUMPDEST PUSH1 0x0 PUSH1 0x13 PUSH1 0x0 PUSH2 0x100 EXP DUP2 SLOAD DUP2 PUSH1 0xFF MUL NOT AND SWAP1 DUP4 ISZERO ISZERO MUL OR SWAP1 SSTORE POP PUSH1 0x1 SWAP1 POP SWAP1 JUMP JUMPDEST PUSH1 0x16 SLOAD DUP2 JUMP JUMPDEST PUSH1 0x1A SLOAD DUP2 JUMP JUMPDEST PUSH1 0xA SLOAD DUP2 JUMP JUMPDEST PUSH1 0x0 PUSH1 0x5 PUSH1 0x0 SWAP1 SLOAD SWAP1 PUSH2 0x100 EXP SWAP1 DIV PUSH20 0xFFFFFFFFFFFFFFFFFFFFFFFFFFFFFFFFFFFFFFFF AND PUSH20 0xFFFFFFFFFFFFFFFFFFFFFFFFFFFFFFFFFFFFFFFF AND CALLER PUSH20 0xFFFFFFFFFFFFFFFFFFFFFFFFFFFFFFFFFFFFFFFF AND EQ PUSH2 0x2608 JUMPI PUSH1 0x40 MLOAD PUSH32 0x8C379A000000000000000000000000000000000000000000000000000000000 DUP2 MSTORE PUSH1 0x4 ADD PUSH2 0x25FF SWAP1 PUSH2 0x4C88 JUMP JUMPDEST PUSH1 0x40 MLOAD DUP1 SWAP2 SUB SWAP1 REVERT JUMPDEST PUSH1 0xF SLOAD PUSH1 0x10 SLOAD PUSH2 0x2618 SWAP2 SWAP1 PUSH2 0x4E0B JUMP JUMPDEST TIMESTAMP GT PUSH2 0x2659 JUMPI PUSH1 0x40 MLOAD PUSH32 0x8C379A000000000000000000000000000000000000000000000000000000000 DUP2 MSTORE PUSH1 0x4 ADD PUSH2 0x2650 SWAP1 PUSH2 0x53D8 JUMP JUMPDEST PUSH1 0x40 MLOAD DUP1 SWAP2 SUB SWAP1 REVERT JUMPDEST PUSH2 0x3E8 DUP3 GT ISZERO PUSH2 0x269E JUMPI PUSH1 0x40 MLOAD PUSH32 0x8C379A000000000000000000000000000000000000000000000000000000000 DUP2 MSTORE PUSH1 0x4 ADD PUSH2 0x2695 SWAP1 PUSH2 0x546A JUMP JUMPDEST PUSH1 0x40 MLOAD DUP1 SWAP2 SUB SWAP1 REVERT JUMPDEST TIMESTAMP PUSH1 0x10 DUP2 SWAP1 SSTORE POP PUSH1 0x0 ADDRESS PUSH20 0xFFFFFFFFFFFFFFFFFFFFFFFFFFFFFFFFFFFFFFFF AND PUSH4 0x70A08231 PUSH32 0x0 PUSH1 0x40 MLOAD DUP3 PUSH4 0xFFFFFFFF AND PUSH1 0xE0 SHL DUP2 MSTORE PUSH1 0x4 ADD PUSH2 0x2700 SWAP2 SWAP1 PUSH2 0x4818 JUMP JUMPDEST PUSH1 0x20 PUSH1 0x40 MLOAD DUP1 DUP4 SUB DUP2 DUP7 GAS STATICCALL ISZERO DUP1 ISZERO PUSH2 0x271D JUMPI RETURNDATASIZE PUSH1 0x0 DUP1 RETURNDATACOPY RETURNDATASIZE PUSH1 0x0 REVERT JUMPDEST POP POP POP POP PUSH1 0x40 MLOAD RETURNDATASIZE PUSH1 0x1F NOT PUSH1 0x1F DUP3 ADD AND DUP3 ADD DUP1 PUSH1 0x40 MSTORE POP DUP2 ADD SWAP1 PUSH2 0x2741 SWAP2 SWAP1 PUSH2 0x549F JUMP JUMPDEST SWAP1 POP PUSH1 0x0 PUSH2 0x276C PUSH2 0x2710 PUSH2 0x275E DUP7 DUP6 PUSH2 0x3A60 SWAP1 SWAP2 SWAP1 PUSH4 0xFFFFFFFF AND JUMP JUMPDEST PUSH2 0x3A76 SWAP1 SWAP2 SWAP1 PUSH4 0xFFFFFFFF AND JUMP JUMPDEST SWAP1 POP PUSH1 0x0 DUP2 GT ISZERO PUSH2 0x27A5 JUMPI PUSH2 0x27A4 PUSH32 0x0 PUSH2 0xDEAD DUP4 PUSH2 0x3A8C JUMP JUMPDEST JUMPDEST PUSH1 0x0 PUSH32 0x0 SWAP1 POP DUP1 PUSH20 0xFFFFFFFFFFFFFFFFFFFFFFFFFFFFFFFFFFFFFFFF AND PUSH4 0xFFF6CAE9 PUSH1 0x40 MLOAD DUP2 PUSH4 0xFFFFFFFF AND PUSH1 0xE0 SHL DUP2 MSTORE PUSH1 0x4 ADD PUSH1 0x0 PUSH1 0x40 MLOAD DUP1 DUP4 SUB DUP2 PUSH1 0x0 DUP8 DUP1 EXTCODESIZE ISZERO DUP1 ISZERO PUSH2 0x2812 JUMPI PUSH1 0x0 DUP1 REVERT JUMPDEST POP GAS CALL ISZERO DUP1 ISZERO PUSH2 0x2826 JUMPI RETURNDATASIZE PUSH1 0x0 DUP1 RETURNDATACOPY RETURNDATASIZE PUSH1 0x0 REVERT JUMPDEST POP POP POP POP PUSH32 0x8462566617872A3FBAB94534675218431FF9E204063EE3F4F43D965626A39ABB PUSH1 0x40 MLOAD PUSH1 0x40 MLOAD DUP1 SWAP2 SUB SWAP1 LOG1 PUSH1 0x1 SWAP4 POP POP POP POP SWAP2 SWAP1 POP JUMP JUMPDEST PUSH1 0x0 CALLER SWAP1 POP SWAP1 JUMP JUMPDEST PUSH1 0x0 PUSH20 0xFFFFFFFFFFFFFFFFFFFFFFFFFFFFFFFFFFFFFFFF AND DUP4 PUSH20 0xFFFFFFFFFFFFFFFFFFFFFFFFFFFFFFFFFFFFFFFF AND SUB PUSH2 0x28D9 JUMPI PUSH1 0x40 MLOAD PUSH32 0x8C379A000000000000000000000000000000000000000000000000000000000 DUP2 MSTORE PUSH1 0x4 ADD PUSH2 0x28D0 SWAP1 PUSH2 0x553E JUMP JUMPDEST PUSH1 0x40 MLOAD DUP1 SWAP2 SUB SWAP1 REVERT JUMPDEST PUSH1 0x0 PUSH20 0xFFFFFFFFFFFFFFFFFFFFFFFFFFFFFFFFFFFFFFFF AND DUP3 PUSH20 0xFFFFFFFFFFFFFFFFFFFFFFFFFFFFFFFFFFFFFFFF AND SUB PUSH2 0x2948 JUMPI PUSH1 0x40 MLOAD PUSH32 0x8C379A000000000000000000000000000000000000000000000000000000000 DUP2 MSTORE PUSH1 0x4 ADD PUSH2 0x293F SWAP1 PUSH2 0x55D0 JUMP JUMPDEST PUSH1 0x40 MLOAD DUP1 SWAP2 SUB SWAP1 REVERT JUMPDEST DUP1 PUSH1 0x1 PUSH1 0x0 DUP6 PUSH20 0xFFFFFFFFFFFFFFFFFFFFFFFFFFFFFFFFFFFFFFFF AND PUSH20 0xFFFFFFFFFFFFFFFFFFFFFFFFFFFFFFFFFFFFFFFF AND DUP2 MSTORE PUSH1 0x20 ADD SWAP1 DUP2 MSTORE PUSH1 0x20 ADD PUSH1 0x0 KECCAK256 PUSH1 0x0 DUP5 PUSH20 0xFFFFFFFFFFFFFFFFFFFFFFFFFFFFFFFFFFFFFFFF AND PUSH20 0xFFFFFFFFFFFFFFFFFFFFFFFFFFFFFFFFFFFFFFFF AND DUP2 MSTORE PUSH1 0x20 ADD SWAP1 DUP2 MSTORE PUSH1 0x20 ADD PUSH1 0x0 KECCAK256 DUP2 SWAP1 SSTORE POP DUP2 PUSH20 0xFFFFFFFFFFFFFFFFFFFFFFFFFFFFFFFFFFFFFFFF AND DUP4 PUSH20 0xFFFFFFFFFFFFFFFFFFFFFFFFFFFFFFFFFFFFFFFF AND PUSH32 0x8C5BE1E5EBEC7D5BD14F71427D1E84F3DD0314C0F7B2291E5B200AC8C7C3B925 DUP4 PUSH1 0x40 MLOAD PUSH2 0x2A26 SWAP2 SWAP1 PUSH2 0x476E JUMP JUMPDEST PUSH1 0x40 MLOAD DUP1 SWAP2 SUB SWAP1 LOG3 POP POP POP JUMP JUMPDEST PUSH1 0x0 PUSH2 0x2A3F DUP5 DUP5 PUSH2 0x2423 JUMP JUMPDEST SWAP1 POP PUSH32 0xFFFFFFFFFFFFFFFFFFFFFFFFFFFFFFFFFFFFFFFFFFFFFFFFFFFFFFFFFFFFFFFF DUP2 EQ PUSH2 0x2AB9 JUMPI DUP2 DUP2 LT ISZERO PUSH2 0x2AAB JUMPI PUSH1 0x40 MLOAD PUSH32 0x8C379A000000000000000000000000000000000000000000000000000000000 DUP2 MSTORE PUSH1 0x4 ADD PUSH2 0x2AA2 SWAP1 PUSH2 0x563C JUMP JUMPDEST PUSH1 0x40 MLOAD DUP1 SWAP2 SUB SWAP1 REVERT JUMPDEST PUSH2 0x2AB8 DUP5 DUP5 DUP5 DUP5 SUB PUSH2 0x286A JUMP JUMPDEST JUMPDEST POP POP POP POP JUMP JUMPDEST PUSH1 0x0 PUSH20 0xFFFFFFFFFFFFFFFFFFFFFFFFFFFFFFFFFFFFFFFF AND DUP4 PUSH20 0xFFFFFFFFFFFFFFFFFFFFFFFFFFFFFFFFFFFFFFFF AND SUB PUSH2 0x2B2E JUMPI PUSH1 0x40 MLOAD PUSH32 0x8C379A000000000000000000000000000000000000000000000000000000000 DUP2 MSTORE PUSH1 0x4 ADD PUSH2 0x2B25 SWAP1 PUSH2 0x56CE JUMP JUMPDEST PUSH1 0x40 MLOAD DUP1 SWAP2 SUB SWAP1 REVERT JUMPDEST PUSH1 0x0 PUSH20 0xFFFFFFFFFFFFFFFFFFFFFFFFFFFFFFFFFFFFFFFF AND DUP3 PUSH20 0xFFFFFFFFFFFFFFFFFFFFFFFFFFFFFFFFFFFFFFFF AND SUB PUSH2 0x2B9D JUMPI PUSH1 0x40 MLOAD PUSH32 0x8C379A000000000000000000000000000000000000000000000000000000000 DUP2 MSTORE PUSH1 0x4 ADD PUSH2 0x2B94 SWAP1 PUSH2 0x56CE JUMP JUMPDEST PUSH1 0x40 MLOAD DUP1 SWAP2 SUB SWAP1 REVERT JUMPDEST PUSH1 0x1F PUSH1 0x0 DUP4 PUSH20 0xFFFFFFFFFFFFFFFFFFFFFFFFFFFFFFFFFFFFFFFF AND PUSH20 0xFFFFFFFFFFFFFFFFFFFFFFFFFFFFFFFFFFFFFFFF AND DUP2 MSTORE PUSH1 0x20 ADD SWAP1 DUP2 MSTORE PUSH1 0x20 ADD PUSH1 0x0 KECCAK256 PUSH1 0x0 SWAP1 SLOAD SWAP1 PUSH2 0x100 EXP SWAP1 DIV PUSH1 0xFF AND ISZERO PUSH2 0x2C2A JUMPI PUSH1 0x40 MLOAD PUSH32 0x8C379A000000000000000000000000000000000000000000000000000000000 DUP2 MSTORE PUSH1 0x4 ADD PUSH2 0x2C21 SWAP1 PUSH2 0x5760 JUMP JUMPDEST PUSH1 0x40 MLOAD DUP1 SWAP2 SUB SWAP1 REVERT JUMPDEST PUSH1 0x1F PUSH1 0x0 DUP5 PUSH20 0xFFFFFFFFFFFFFFFFFFFFFFFFFFFFFFFFFFFFFFFF AND PUSH20 0xFFFFFFFFFFFFFFFFFFFFFFFFFFFFFFFFFFFFFFFF AND DUP2 MSTORE PUSH1 0x20 ADD SWAP1 DUP2 MSTORE PUSH1 0x20 ADD PUSH1 0x0 KECCAK256 PUSH1 0x0 SWAP1 SLOAD SWAP1 PUSH2 0x100 EXP SWAP1 DIV PUSH1 0xFF AND ISZERO PUSH2 0x2CB7 JUMPI PUSH1 0x40 MLOAD PUSH32 0x8C379A000000000000000000000000000000000000000000000000000000000 DUP2 MSTORE PUSH1 0x4 ADD PUSH2 0x2CAE SWAP1 PUSH2 0x57F2 JUMP JUMPDEST PUSH1 0x40 MLOAD DUP1 SWAP2 SUB SWAP1 REVERT JUMPDEST PUSH1 0x0 DUP2 SUB PUSH2 0x2CD0 JUMPI PUSH2 0x2CCB DUP4 DUP4 PUSH1 0x0 PUSH2 0x3A8C JUMP JUMPDEST PUSH2 0x39BA JUMP JUMPDEST PUSH1 0x11 PUSH1 0x0 SWAP1 SLOAD SWAP1 PUSH2 0x100 EXP SWAP1 DIV PUSH1 0xFF AND ISZERO PUSH2 0x33E4 JUMPI PUSH1 0x5 PUSH1 0x0 SWAP1 SLOAD SWAP1 PUSH2 0x100 EXP SWAP1 DIV PUSH20 0xFFFFFFFFFFFFFFFFFFFFFFFFFFFFFFFFFFFFFFFF AND PUSH20 0xFFFFFFFFFFFFFFFFFFFFFFFFFFFFFFFFFFFFFFFF AND DUP4 PUSH20 0xFFFFFFFFFFFFFFFFFFFFFFFFFFFFFFFFFFFFFFFF AND EQ ISZERO DUP1 ISZERO PUSH2 0x2D91 JUMPI POP PUSH1 0x5 PUSH1 0x0 SWAP1 SLOAD SWAP1 PUSH2 0x100 EXP SWAP1 DIV PUSH20 0xFFFFFFFFFFFFFFFFFFFFFFFFFFFFFFFFFFFFFFFF AND PUSH20 0xFFFFFFFFFFFFFFFFFFFFFFFFFFFFFFFFFFFFFFFF AND DUP3 PUSH20 0xFFFFFFFFFFFFFFFFFFFFFFFFFFFFFFFFFFFFFFFF AND EQ ISZERO JUMPDEST DUP1 ISZERO PUSH2 0x2DCA JUMPI POP PUSH1 0x0 PUSH20 0xFFFFFFFFFFFFFFFFFFFFFFFFFFFFFFFFFFFFFFFF AND DUP3 PUSH20 0xFFFFFFFFFFFFFFFFFFFFFFFFFFFFFFFFFFFFFFFF AND EQ ISZERO JUMPDEST DUP1 ISZERO PUSH2 0x2E04 JUMPI POP PUSH2 0xDEAD PUSH20 0xFFFFFFFFFFFFFFFFFFFFFFFFFFFFFFFFFFFFFFFF AND DUP3 PUSH20 0xFFFFFFFFFFFFFFFFFFFFFFFFFFFFFFFFFFFFFFFF AND EQ ISZERO JUMPDEST DUP1 ISZERO PUSH2 0x2E1D JUMPI POP PUSH1 0x5 PUSH1 0x14 SWAP1 SLOAD SWAP1 PUSH2 0x100 EXP SWAP1 DIV PUSH1 0xFF AND ISZERO JUMPDEST ISZERO PUSH2 0x33E3 JUMPI PUSH1 0x11 PUSH1 0x1 SWAP1 SLOAD SWAP1 PUSH2 0x100 EXP SWAP1 DIV PUSH1 0xFF AND PUSH2 0x2F17 JUMPI PUSH1 0x20 PUSH1 0x0 DUP5 PUSH20 0xFFFFFFFFFFFFFFFFFFFFFFFFFFFFFFFFFFFFFFFF AND PUSH20 0xFFFFFFFFFFFFFFFFFFFFFFFFFFFFFFFFFFFFFFFF AND DUP2 MSTORE PUSH1 0x20 ADD SWAP1 DUP2 MSTORE PUSH1 0x20 ADD PUSH1 0x0 KECCAK256 PUSH1 0x0 SWAP1 SLOAD SWAP1 PUSH2 0x100 EXP SWAP1 DIV PUSH1 0xFF AND DUP1 PUSH2 0x2ED7 JUMPI POP PUSH1 0x20 PUSH1 0x0 DUP4 PUSH20 0xFFFFFFFFFFFFFFFFFFFFFFFFFFFFFFFFFFFFFFFF AND PUSH20 0xFFFFFFFFFFFFFFFFFFFFFFFFFFFFFFFFFFFFFFFF AND DUP2 MSTORE PUSH1 0x20 ADD SWAP1 DUP2 MSTORE PUSH1 0x20 ADD PUSH1 0x0 KECCAK256 PUSH1 0x0 SWAP1 SLOAD SWAP1 PUSH2 0x100 EXP SWAP1 DIV PUSH1 0xFF AND JUMPDEST PUSH2 0x2F16 JUMPI PUSH1 0x40 MLOAD PUSH32 0x8C379A000000000000000000000000000000000000000000000000000000000 DUP2 MSTORE PUSH1 0x4 ADD PUSH2 0x2F0D SWAP1 PUSH2 0x585E JUMP JUMPDEST PUSH1 0x40 MLOAD DUP1 SWAP2 SUB SWAP1 REVERT JUMPDEST JUMPDEST PUSH1 0x13 PUSH1 0x0 SWAP1 SLOAD SWAP1 PUSH2 0x100 EXP SWAP1 DIV PUSH1 0xFF AND ISZERO PUSH2 0x30FA JUMPI PUSH1 0x5 PUSH1 0x0 SWAP1 SLOAD SWAP1 PUSH2 0x100 EXP SWAP1 DIV PUSH20 0xFFFFFFFFFFFFFFFFFFFFFFFFFFFFFFFFFFFFFFFF AND PUSH20 0xFFFFFFFFFFFFFFFFFFFFFFFFFFFFFFFFFFFFFFFF AND DUP3 PUSH20 0xFFFFFFFFFFFFFFFFFFFFFFFFFFFFFFFFFFFFFFFF AND EQ ISZERO DUP1 ISZERO PUSH2 0x2FD6 JUMPI POP PUSH32 0x0 PUSH20 0xFFFFFFFFFFFFFFFFFFFFFFFFFFFFFFFFFFFFFFFF AND DUP3 PUSH20 0xFFFFFFFFFFFFFFFFFFFFFFFFFFFFFFFFFFFFFFFF AND EQ ISZERO JUMPDEST DUP1 ISZERO PUSH2 0x302E JUMPI POP PUSH32 0x0 PUSH20 0xFFFFFFFFFFFFFFFFFFFFFFFFFFFFFFFFFFFFFFFF AND DUP3 PUSH20 0xFFFFFFFFFFFFFFFFFFFFFFFFFFFFFFFFFFFFFFFF AND EQ ISZERO JUMPDEST ISZERO PUSH2 0x30F9 JUMPI NUMBER PUSH1 0x12 PUSH1 0x0 ORIGIN PUSH20 0xFFFFFFFFFFFFFFFFFFFFFFFFFFFFFFFFFFFFFFFF AND PUSH20 0xFFFFFFFFFFFFFFFFFFFFFFFFFFFFFFFFFFFFFFFF AND DUP2 MSTORE PUSH1 0x20 ADD SWAP1 DUP2 MSTORE PUSH1 0x20 ADD PUSH1 0x0 KECCAK256 SLOAD LT PUSH2 0x30B4 JUMPI PUSH1 0x40 MLOAD PUSH32 0x8C379A000000000000000000000000000000000000000000000000000000000 DUP2 MSTORE PUSH1 0x4 ADD PUSH2 0x30AB SWAP1 PUSH2 0x5916 JUMP JUMPDEST PUSH1 0x40 MLOAD DUP1 SWAP2 SUB SWAP1 REVERT JUMPDEST NUMBER PUSH1 0x12 PUSH1 0x0 ORIGIN PUSH20 0xFFFFFFFFFFFFFFFFFFFFFFFFFFFFFFFFFFFFFFFF AND PUSH20 0xFFFFFFFFFFFFFFFFFFFFFFFFFFFFFFFFFFFFFFFF AND DUP2 MSTORE PUSH1 0x20 ADD SWAP1 DUP2 MSTORE PUSH1 0x20 ADD PUSH1 0x0 KECCAK256 DUP2 SWAP1 SSTORE POP JUMPDEST JUMPDEST PUSH1 0x22 PUSH1 0x0 DUP5 PUSH20 0xFFFFFFFFFFFFFFFFFFFFFFFFFFFFFFFFFFFFFFFF AND PUSH20 0xFFFFFFFFFFFFFFFFFFFFFFFFFFFFFFFFFFFFFFFF AND DUP2 MSTORE PUSH1 0x20 ADD SWAP1 DUP2 MSTORE PUSH1 0x20 ADD PUSH1 0x0 KECCAK256 PUSH1 0x0 SWAP1 SLOAD SWAP1 PUSH2 0x100 EXP SWAP1 DIV PUSH1 0xFF AND DUP1 ISZERO PUSH2 0x319D JUMPI POP PUSH1 0x21 PUSH1 0x0 DUP4 PUSH20 0xFFFFFFFFFFFFFFFFFFFFFFFFFFFFFFFFFFFFFFFF AND PUSH20 0xFFFFFFFFFFFFFFFFFFFFFFFFFFFFFFFFFFFFFFFF AND DUP2 MSTORE PUSH1 0x20 ADD SWAP1 DUP2 MSTORE PUSH1 0x20 ADD PUSH1 0x0 KECCAK256 PUSH1 0x0 SWAP1 SLOAD SWAP1 PUSH2 0x100 EXP SWAP1 DIV PUSH1 0xFF AND ISZERO JUMPDEST ISZERO PUSH2 0x3244 JUMPI PUSH1 0x8 SLOAD DUP2 GT ISZERO PUSH2 0x31E7 JUMPI PUSH1 0x40 MLOAD PUSH32 0x8C379A000000000000000000000000000000000000000000000000000000000 DUP2 MSTORE PUSH1 0x4 ADD PUSH2 0x31DE SWAP1 PUSH2 0x59A8 JUMP JUMPDEST PUSH1 0x40 MLOAD DUP1 SWAP2 SUB SWAP1 REVERT JUMPDEST PUSH1 0xA SLOAD PUSH2 0x31F3 DUP4 PUSH2 0x1418 JUMP JUMPDEST DUP3 PUSH2 0x31FE SWAP2 SWAP1 PUSH2 0x4E0B JUMP JUMPDEST GT ISZERO PUSH2 0x323F JUMPI PUSH1 0x40 MLOAD PUSH32 0x8C379A000000000000000000000000000000000000000000000000000000000 DUP2 MSTORE PUSH1 0x4 ADD PUSH2 0x3236 SWAP1 PUSH2 0x5A14 JUMP JUMPDEST PUSH1 0x40 MLOAD DUP1 SWAP2 SUB SWAP1 REVERT JUMPDEST PUSH2 0x33E2 JUMP JUMPDEST PUSH1 0x22 PUSH1 0x0 DUP4 PUSH20 0xFFFFFFFFFFFFFFFFFFFFFFFFFFFFFFFFFFFFFFFF AND PUSH20 0xFFFFFFFFFFFFFFFFFFFFFFFFFFFFFFFFFFFFFFFF AND DUP2 MSTORE PUSH1 0x20 ADD SWAP1 DUP2 MSTORE PUSH1 0x20 ADD PUSH1 0x0 KECCAK256 PUSH1 0x0 SWAP1 SLOAD SWAP1 PUSH2 0x100 EXP SWAP1 DIV PUSH1 0xFF AND DUP1 ISZERO PUSH2 0x32E7 JUMPI POP PUSH1 0x21 PUSH1 0x0 DUP5 PUSH20 0xFFFFFFFFFFFFFFFFFFFFFFFFFFFFFFFFFFFFFFFF AND PUSH20 0xFFFFFFFFFFFFFFFFFFFFFFFFFFFFFFFFFFFFFFFF AND DUP2 MSTORE PUSH1 0x20 ADD SWAP1 DUP2 MSTORE PUSH1 0x20 ADD PUSH1 0x0 KECCAK256 PUSH1 0x0 SWAP1 SLOAD SWAP1 PUSH2 0x100 EXP SWAP1 DIV PUSH1 0xFF AND ISZERO JUMPDEST ISZERO PUSH2 0x3336 JUMPI PUSH1 0x8 SLOAD DUP2 GT ISZERO PUSH2 0x3331 JUMPI PUSH1 0x40 MLOAD PUSH32 0x8C379A000000000000000000000000000000000000000000000000000000000 DUP2 MSTORE PUSH1 0x4 ADD PUSH2 0x3328 SWAP1 PUSH2 0x5AA6 JUMP JUMPDEST PUSH1 0x40 MLOAD DUP1 SWAP2 SUB SWAP1 REVERT JUMPDEST PUSH2 0x33E1 JUMP JUMPDEST PUSH1 0x21 PUSH1 0x0 DUP4 PUSH20 0xFFFFFFFFFFFFFFFFFFFFFFFFFFFFFFFFFFFFFFFF AND PUSH20 0xFFFFFFFFFFFFFFFFFFFFFFFFFFFFFFFFFFFFFFFF AND DUP2 MSTORE PUSH1 0x20 ADD SWAP1 DUP2 MSTORE PUSH1 0x20 ADD PUSH1 0x0 KECCAK256 PUSH1 0x0 SWAP1 SLOAD SWAP1 PUSH2 0x100 EXP SWAP1 DIV PUSH1 0xFF AND PUSH2 0x33E0 JUMPI PUSH1 0xA SLOAD PUSH2 0x3393 DUP4 PUSH2 0x1418 JUMP JUMPDEST DUP3 PUSH2 0x339E SWAP2 SWAP1 PUSH2 0x4E0B JUMP JUMPDEST GT ISZERO PUSH2 0x33DF JUMPI PUSH1 0x40 MLOAD PUSH32 0x8C379A000000000000000000000000000000000000000000000000000000000 DUP2 MSTORE PUSH1 0x4 ADD PUSH2 0x33D6 SWAP1 PUSH2 0x5A14 JUMP JUMPDEST PUSH1 0x40 MLOAD DUP1 SWAP2 SUB SWAP1 REVERT JUMPDEST JUMPDEST JUMPDEST JUMPDEST JUMPDEST JUMPDEST PUSH1 0x0 PUSH2 0x33EF ADDRESS PUSH2 0x1418 JUMP JUMPDEST SWAP1 POP PUSH1 0x0 PUSH1 0x9 SLOAD DUP3 LT ISZERO SWAP1 POP DUP1 DUP1 ISZERO PUSH2 0x3414 JUMPI POP PUSH1 0x11 PUSH1 0x2 SWAP1 SLOAD SWAP1 PUSH2 0x100 EXP SWAP1 DIV PUSH1 0xFF AND JUMPDEST DUP1 ISZERO PUSH2 0x342D JUMPI POP PUSH1 0x5 PUSH1 0x14 SWAP1 SLOAD SWAP1 PUSH2 0x100 EXP SWAP1 DIV PUSH1 0xFF AND ISZERO JUMPDEST DUP1 ISZERO PUSH2 0x3483 JUMPI POP PUSH1 0x22 PUSH1 0x0 DUP7 PUSH20 0xFFFFFFFFFFFFFFFFFFFFFFFFFFFFFFFFFFFFFFFF AND PUSH20 0xFFFFFFFFFFFFFFFFFFFFFFFFFFFFFFFFFFFFFFFF AND DUP2 MSTORE PUSH1 0x20 ADD SWAP1 DUP2 MSTORE PUSH1 0x20 ADD PUSH1 0x0 KECCAK256 PUSH1 0x0 SWAP1 SLOAD SWAP1 PUSH2 0x100 EXP SWAP1 DIV PUSH1 0xFF AND ISZERO JUMPDEST DUP1 ISZERO PUSH2 0x34D9 JUMPI POP PUSH1 0x20 PUSH1 0x0 DUP7 PUSH20 0xFFFFFFFFFFFFFFFFFFFFFFFFFFFFFFFFFFFFFFFF AND PUSH20 0xFFFFFFFFFFFFFFFFFFFFFFFFFFFFFFFFFFFFFFFF AND DUP2 MSTORE PUSH1 0x20 ADD SWAP1 DUP2 MSTORE PUSH1 0x20 ADD PUSH1 0x0 KECCAK256 PUSH1 0x0 SWAP1 SLOAD SWAP1 PUSH2 0x100 EXP SWAP1 DIV PUSH1 0xFF AND ISZERO JUMPDEST DUP1 ISZERO PUSH2 0x352F JUMPI POP PUSH1 0x20 PUSH1 0x0 DUP6 PUSH20 0xFFFFFFFFFFFFFFFFFFFFFFFFFFFFFFFFFFFFFFFF AND PUSH20 0xFFFFFFFFFFFFFFFFFFFFFFFFFFFFFFFFFFFFFFFF AND DUP2 MSTORE PUSH1 0x20 ADD SWAP1 DUP2 MSTORE PUSH1 0x20 ADD PUSH1 0x0 KECCAK256 PUSH1 0x0 SWAP1 SLOAD SWAP1 PUSH2 0x100 EXP SWAP1 DIV PUSH1 0xFF AND ISZERO JUMPDEST ISZERO PUSH2 0x3573 JUMPI PUSH1 0x1 PUSH1 0x5 PUSH1 0x14 PUSH2 0x100 EXP DUP2 SLOAD DUP2 PUSH1 0xFF MUL NOT AND SWAP1 DUP4 ISZERO ISZERO MUL OR SWAP1 SSTORE POP PUSH2 0x3557 PUSH2 0x3D02 JUMP JUMPDEST PUSH1 0x0 PUSH1 0x5 PUSH1 0x14 PUSH2 0x100 EXP DUP2 SLOAD DUP2 PUSH1 0xFF MUL NOT AND SWAP1 DUP4 ISZERO ISZERO MUL OR SWAP1 SSTORE POP JUMPDEST PUSH1 0x5 PUSH1 0x14 SWAP1 SLOAD SWAP1 PUSH2 0x100 EXP SWAP1 DIV PUSH1 0xFF AND ISZERO DUP1 ISZERO PUSH2 0x35D9 JUMPI POP PUSH1 0x22 PUSH1 0x0 DUP6 PUSH20 0xFFFFFFFFFFFFFFFFFFFFFFFFFFFFFFFFFFFFFFFF AND PUSH20 0xFFFFFFFFFFFFFFFFFFFFFFFFFFFFFFFFFFFFFFFF AND DUP2 MSTORE PUSH1 0x20 ADD SWAP1 DUP2 MSTORE PUSH1 0x20 ADD PUSH1 0x0 KECCAK256 PUSH1 0x0 SWAP1 SLOAD SWAP1 PUSH2 0x100 EXP SWAP1 DIV PUSH1 0xFF AND JUMPDEST DUP1 ISZERO PUSH2 0x35F1 JUMPI POP PUSH1 0xC PUSH1 0x0 SWAP1 SLOAD SWAP1 PUSH2 0x100 EXP SWAP1 DIV PUSH1 0xFF AND JUMPDEST DUP1 ISZERO PUSH2 0x360C JUMPI POP PUSH1 0xD SLOAD PUSH1 0xE SLOAD PUSH2 0x3608 SWAP2 SWAP1 PUSH2 0x4E0B JUMP JUMPDEST TIMESTAMP LT ISZERO JUMPDEST DUP1 ISZERO PUSH2 0x3662 JUMPI POP PUSH1 0x20 PUSH1 0x0 DUP7 PUSH20 0xFFFFFFFFFFFFFFFFFFFFFFFFFFFFFFFFFFFFFFFF AND PUSH20 0xFFFFFFFFFFFFFFFFFFFFFFFFFFFFFFFFFFFFFFFF AND DUP2 MSTORE PUSH1 0x20 ADD SWAP1 DUP2 MSTORE PUSH1 0x20 ADD PUSH1 0x0 KECCAK256 PUSH1 0x0 SWAP1 SLOAD SWAP1 PUSH2 0x100 EXP SWAP1 DIV PUSH1 0xFF AND ISZERO JUMPDEST ISZERO PUSH2 0x3671 JUMPI PUSH2 0x366F PUSH2 0x3FE9 JUMP JUMPDEST POP JUMPDEST PUSH1 0x0 PUSH1 0x5 PUSH1 0x14 SWAP1 SLOAD SWAP1 PUSH2 0x100 EXP SWAP1 DIV PUSH1 0xFF AND ISZERO SWAP1 POP PUSH1 0x20 PUSH1 0x0 DUP8 PUSH20 0xFFFFFFFFFFFFFFFFFFFFFFFFFFFFFFFFFFFFFFFF AND PUSH20 0xFFFFFFFFFFFFFFFFFFFFFFFFFFFFFFFFFFFFFFFF AND DUP2 MSTORE PUSH1 0x20 ADD SWAP1 DUP2 MSTORE PUSH1 0x20 ADD PUSH1 0x0 KECCAK256 PUSH1 0x0 SWAP1 SLOAD SWAP1 PUSH2 0x100 EXP SWAP1 DIV PUSH1 0xFF AND DUP1 PUSH2 0x3727 JUMPI POP PUSH1 0x20 PUSH1 0x0 DUP7 PUSH20 0xFFFFFFFFFFFFFFFFFFFFFFFFFFFFFFFFFFFFFFFF AND PUSH20 0xFFFFFFFFFFFFFFFFFFFFFFFFFFFFFFFFFFFFFFFF AND DUP2 MSTORE PUSH1 0x20 ADD SWAP1 DUP2 MSTORE PUSH1 0x20 ADD PUSH1 0x0 KECCAK256 PUSH1 0x0 SWAP1 SLOAD SWAP1 PUSH2 0x100 EXP SWAP1 DIV PUSH1 0xFF AND JUMPDEST ISZERO PUSH2 0x3731 JUMPI PUSH1 0x0 SWAP1 POP JUMPDEST PUSH1 0x0 DUP2 ISZERO PUSH2 0x39AA JUMPI PUSH1 0x22 PUSH1 0x0 DUP8 PUSH20 0xFFFFFFFFFFFFFFFFFFFFFFFFFFFFFFFFFFFFFFFF AND PUSH20 0xFFFFFFFFFFFFFFFFFFFFFFFFFFFFFFFFFFFFFFFF AND DUP2 MSTORE PUSH1 0x20 ADD SWAP1 DUP2 MSTORE PUSH1 0x20 ADD PUSH1 0x0 KECCAK256 PUSH1 0x0 SWAP1 SLOAD SWAP1 PUSH2 0x100 EXP SWAP1 DIV PUSH1 0xFF AND DUP1 ISZERO PUSH2 0x3794 JUMPI POP PUSH1 0x0 PUSH1 0x18 SLOAD GT JUMPDEST ISZERO PUSH2 0x3861 JUMPI PUSH2 0x37C1 PUSH1 0x64 PUSH2 0x37B3 PUSH1 0x18 SLOAD DUP9 PUSH2 0x3A60 SWAP1 SWAP2 SWAP1 PUSH4 0xFFFFFFFF AND JUMP JUMPDEST PUSH2 0x3A76 SWAP1 SWAP2 SWAP1 PUSH4 0xFFFFFFFF AND JUMP JUMPDEST SWAP1 POP PUSH1 0x18 SLOAD PUSH1 0x1A SLOAD DUP3 PUSH2 0x37D4 SWAP2 SWAP1 PUSH2 0x4CD7 JUMP JUMPDEST PUSH2 0x37DE SWAP2 SWAP1 PUSH2 0x4D48 JUMP JUMPDEST PUSH1 0x1D PUSH1 0x0 DUP3 DUP3 SLOAD PUSH2 0x37EF SWAP2 SWAP1 PUSH2 0x4E0B JUMP JUMPDEST SWAP3 POP POP DUP2 SWAP1 SSTORE POP PUSH1 0x18 SLOAD PUSH1 0x1B SLOAD DUP3 PUSH2 0x3807 SWAP2 SWAP1 PUSH2 0x4CD7 JUMP JUMPDEST PUSH2 0x3811 SWAP2 SWAP1 PUSH2 0x4D48 JUMP JUMPDEST PUSH1 0x1E PUSH1 0x0 DUP3 DUP3 SLOAD PUSH2 0x3822 SWAP2 SWAP1 PUSH2 0x4E0B JUMP JUMPDEST SWAP3 POP POP DUP2 SWAP1 SSTORE POP PUSH1 0x18 SLOAD PUSH1 0x19 SLOAD DUP3 PUSH2 0x383A SWAP2 SWAP1 PUSH2 0x4CD7 JUMP JUMPDEST PUSH2 0x3844 SWAP2 SWAP1 PUSH2 0x4D48 JUMP JUMPDEST PUSH1 0x1C PUSH1 0x0 DUP3 DUP3 SLOAD PUSH2 0x3855 SWAP2 SWAP1 PUSH2 0x4E0B JUMP JUMPDEST SWAP3 POP POP DUP2 SWAP1 SSTORE POP PUSH2 0x3986 JUMP JUMPDEST PUSH1 0x22 PUSH1 0x0 DUP9 PUSH20 0xFFFFFFFFFFFFFFFFFFFFFFFFFFFFFFFFFFFFFFFF AND PUSH20 0xFFFFFFFFFFFFFFFFFFFFFFFFFFFFFFFFFFFFFFFF AND DUP2 MSTORE PUSH1 0x20 ADD SWAP1 DUP2 MSTORE PUSH1 0x20 ADD PUSH1 0x0 KECCAK256 PUSH1 0x0 SWAP1 SLOAD SWAP1 PUSH2 0x100 EXP SWAP1 DIV PUSH1 0xFF AND DUP1 ISZERO PUSH2 0x38BC JUMPI POP PUSH1 0x0 PUSH1 0x14 SLOAD GT JUMPDEST ISZERO PUSH2 0x3985 JUMPI PUSH2 0x38E9 PUSH1 0x64 PUSH2 0x38DB PUSH1 0x14 SLOAD DUP9 PUSH2 0x3A60 SWAP1 SWAP2 SWAP1 PUSH4 0xFFFFFFFF AND JUMP JUMPDEST PUSH2 0x3A76 SWAP1 SWAP2 SWAP1 PUSH4 0xFFFFFFFF AND JUMP JUMPDEST SWAP1 POP PUSH1 0x14 SLOAD PUSH1 0x16 SLOAD DUP3 PUSH2 0x38FC SWAP2 SWAP1 PUSH2 0x4CD7 JUMP JUMPDEST PUSH2 0x3906 SWAP2 SWAP1 PUSH2 0x4D48 JUMP JUMPDEST PUSH1 0x1D PUSH1 0x0 DUP3 DUP3 SLOAD PUSH2 0x3917 SWAP2 SWAP1 PUSH2 0x4E0B JUMP JUMPDEST SWAP3 POP POP DUP2 SWAP1 SSTORE POP PUSH1 0x14 SLOAD PUSH1 0x17 SLOAD DUP3 PUSH2 0x392F SWAP2 SWAP1 PUSH2 0x4CD7 JUMP JUMPDEST PUSH2 0x3939 SWAP2 SWAP1 PUSH2 0x4D48 JUMP JUMPDEST PUSH1 0x1E PUSH1 0x0 DUP3 DUP3 SLOAD PUSH2 0x394A SWAP2 SWAP1 PUSH2 0x4E0B JUMP JUMPDEST SWAP3 POP POP DUP2 SWAP1 SSTORE POP PUSH1 0x14 SLOAD PUSH1 0x15 SLOAD DUP3 PUSH2 0x3962 SWAP2 SWAP1 PUSH2 0x4CD7 JUMP JUMPDEST PUSH2 0x396C SWAP2 SWAP1 PUSH2 0x4D48 JUMP JUMPDEST PUSH1 0x1C PUSH1 0x0 DUP3 DUP3 SLOAD PUSH2 0x397D SWAP2 SWAP1 PUSH2 0x4E0B JUMP JUMPDEST SWAP3 POP POP DUP2 SWAP1 SSTORE POP JUMPDEST JUMPDEST PUSH1 0x0 DUP2 GT ISZERO PUSH2 0x399B JUMPI PUSH2 0x399A DUP8 ADDRESS DUP4 PUSH2 0x3A8C JUMP JUMPDEST JUMPDEST DUP1 DUP6 PUSH2 0x39A7 SWAP2 SWAP1 PUSH2 0x5AC6 JUMP JUMPDEST SWAP5 POP JUMPDEST PUSH2 0x39B5 DUP8 DUP8 DUP8 PUSH2 0x3A8C JUMP JUMPDEST POP POP POP POP JUMPDEST POP POP POP JUMP JUMPDEST DUP1 PUSH1 0x22 PUSH1 0x0 DUP5 PUSH20 0xFFFFFFFFFFFFFFFFFFFFFFFFFFFFFFFFFFFFFFFF AND PUSH20 0xFFFFFFFFFFFFFFFFFFFFFFFFFFFFFFFFFFFFFFFF AND DUP2 MSTORE PUSH1 0x20 ADD SWAP1 DUP2 MSTORE PUSH1 0x20 ADD PUSH1 0x0 KECCAK256 PUSH1 0x0 PUSH2 0x100 EXP DUP2 SLOAD DUP2 PUSH1 0xFF MUL NOT AND SWAP1 DUP4 ISZERO ISZERO MUL OR SWAP1 SSTORE POP DUP1 ISZERO ISZERO DUP3 PUSH20 0xFFFFFFFFFFFFFFFFFFFFFFFFFFFFFFFFFFFFFFFF AND PUSH32 0xFFA9187BF1F18BF477BD0EA1BCBB64E93B6A98132473929EDFCE215CD9B16FAB PUSH1 0x40 MLOAD PUSH1 0x40 MLOAD DUP1 SWAP2 SUB SWAP1 LOG3 POP POP JUMP JUMPDEST PUSH1 0x0 DUP2 DUP4 PUSH2 0x3A6E SWAP2 SWAP1 PUSH2 0x4CD7 JUMP JUMPDEST SWAP1 POP SWAP3 SWAP2 POP POP JUMP JUMPDEST PUSH1 0x0 DUP2 DUP4 PUSH2 0x3A84 SWAP2 SWAP1 PUSH2 0x4D48 JUMP JUMPDEST SWAP1 POP SWAP3 SWAP2 POP POP JUMP JUMPDEST PUSH1 0x0 PUSH20 0xFFFFFFFFFFFFFFFFFFFFFFFFFFFFFFFFFFFFFFFF AND DUP4 PUSH20 0xFFFFFFFFFFFFFFFFFFFFFFFFFFFFFFFFFFFFFFFF AND SUB PUSH2 0x3AFB JUMPI PUSH1 0x40 MLOAD PUSH32 0x8C379A000000000000000000000000000000000000000000000000000000000 DUP2 MSTORE PUSH1 0x4 ADD PUSH2 0x3AF2 SWAP1 PUSH2 0x56CE JUMP JUMPDEST PUSH1 0x40 MLOAD DUP1 SWAP2 SUB SWAP1 REVERT JUMPDEST PUSH1 0x0 PUSH20 0xFFFFFFFFFFFFFFFFFFFFFFFFFFFFFFFFFFFFFFFF AND DUP3 PUSH20 0xFFFFFFFFFFFFFFFFFFFFFFFFFFFFFFFFFFFFFFFF AND SUB PUSH2 0x3B6A JUMPI PUSH1 0x40 MLOAD PUSH32 0x8C379A000000000000000000000000000000000000000000000000000000000 DUP2 MSTORE PUSH1 0x4 ADD PUSH2 0x3B61 SWAP1 PUSH2 0x5B6C JUMP JUMPDEST PUSH1 0x40 MLOAD DUP1 SWAP2 SUB SWAP1 REVERT JUMPDEST PUSH2 0x3B75 DUP4 DUP4 DUP4 PUSH2 0x41AF JUMP JUMPDEST PUSH1 0x0 DUP1 PUSH1 0x0 DUP6 PUSH20 0xFFFFFFFFFFFFFFFFFFFFFFFFFFFFFFFFFFFFFFFF AND PUSH20 0xFFFFFFFFFFFFFFFFFFFFFFFFFFFFFFFFFFFFFFFF AND DUP2 MSTORE PUSH1 0x20 ADD SWAP1 DUP2 MSTORE PUSH1 0x20 ADD PUSH1 0x0 KECCAK256 SLOAD SWAP1 POP DUP2 DUP2 LT ISZERO PUSH2 0x3BFB JUMPI PUSH1 0x40 MLOAD PUSH32 0x8C379A000000000000000000000000000000000000000000000000000000000 DUP2 MSTORE PUSH1 0x4 ADD PUSH2 0x3BF2 SWAP1 PUSH2 0x5BFE JUMP JUMPDEST PUSH1 0x40 MLOAD DUP1 SWAP2 SUB SWAP1 REVERT JUMPDEST DUP2 DUP2 SUB PUSH1 0x0 DUP1 DUP7 PUSH20 0xFFFFFFFFFFFFFFFFFFFFFFFFFFFFFFFFFFFFFFFF AND PUSH20 0xFFFFFFFFFFFFFFFFFFFFFFFFFFFFFFFFFFFFFFFF AND DUP2 MSTORE PUSH1 0x20 ADD SWAP1 DUP2 MSTORE PUSH1 0x20 ADD PUSH1 0x0 KECCAK256 DUP2 SWAP1 SSTORE POP DUP2 PUSH1 0x0 DUP1 DUP6 PUSH20 0xFFFFFFFFFFFFFFFFFFFFFFFFFFFFFFFFFFFFFFFF AND PUSH20 0xFFFFFFFFFFFFFFFFFFFFFFFFFFFFFFFFFFFFFFFF AND DUP2 MSTORE PUSH1 0x20 ADD SWAP1 DUP2 MSTORE PUSH1 0x20 ADD PUSH1 0x0 KECCAK256 PUSH1 0x0 DUP3 DUP3 SLOAD ADD SWAP3 POP POP DUP2 SWAP1 SSTORE POP DUP3 PUSH20 0xFFFFFFFFFFFFFFFFFFFFFFFFFFFFFFFFFFFFFFFF AND DUP5 PUSH20 0xFFFFFFFFFFFFFFFFFFFFFFFFFFFFFFFFFFFFFFFF AND PUSH32 0xDDF252AD1BE2C89B69C2B068FC378DAA952BA7F163C4A11628F55A4DF523B3EF DUP5 PUSH1 0x40 MLOAD PUSH2 0x3CE9 SWAP2 SWAP1 PUSH2 0x476E JUMP JUMPDEST PUSH1 0x40 MLOAD DUP1 SWAP2 SUB SWAP1 LOG3 PUSH2 0x3CFC DUP5 DUP5 DUP5 PUSH2 0x41B4 JUMP JUMPDEST POP POP POP POP JUMP JUMPDEST PUSH1 0x0 PUSH2 0x3D0D ADDRESS PUSH2 0x1418 JUMP JUMPDEST SWAP1 POP PUSH1 0x0 PUSH1 0x1E SLOAD PUSH1 0x1C SLOAD PUSH1 0x1D SLOAD PUSH2 0x3D24 SWAP2 SWAP1 PUSH2 0x4E0B JUMP JUMPDEST PUSH2 0x3D2E SWAP2 SWAP1 PUSH2 0x4E0B JUMP JUMPDEST SWAP1 POP PUSH1 0x0 DUP1 DUP4 EQ DUP1 PUSH2 0x3D40 JUMPI POP PUSH1 0x0 DUP3 EQ JUMPDEST ISZERO PUSH2 0x3D4D JUMPI POP POP POP PUSH2 0x3FE7 JUMP JUMPDEST PUSH1 0x14 PUSH1 0x9 SLOAD PUSH2 0x3D5C SWAP2 SWAP1 PUSH2 0x4CD7 JUMP JUMPDEST DUP4 GT ISZERO PUSH2 0x3D75 JUMPI PUSH1 0x14 PUSH1 0x9 SLOAD PUSH2 0x3D72 SWAP2 SWAP1 PUSH2 0x4CD7 JUMP JUMPDEST SWAP3 POP JUMPDEST PUSH1 0x0 PUSH1 0x2 DUP4 PUSH1 0x1D SLOAD DUP7 PUSH2 0x3D88 SWAP2 SWAP1 PUSH2 0x4CD7 JUMP JUMPDEST PUSH2 0x3D92 SWAP2 SWAP1 PUSH2 0x4D48 JUMP JUMPDEST PUSH2 0x3D9C SWAP2 SWAP1 PUSH2 0x4D48 JUMP JUMPDEST SWAP1 POP PUSH1 0x0 PUSH2 0x3DB3 DUP3 DUP7 PUSH2 0x41B9 SWAP1 SWAP2 SWAP1 PUSH4 0xFFFFFFFF AND JUMP JUMPDEST SWAP1 POP PUSH1 0x0 SELFBALANCE SWAP1 POP PUSH2 0x3DC3 DUP3 PUSH2 0x41CF JUMP JUMPDEST PUSH1 0x0 PUSH2 0x3DD8 DUP3 SELFBALANCE PUSH2 0x41B9 SWAP1 SWAP2 SWAP1 PUSH4 0xFFFFFFFF AND JUMP JUMPDEST SWAP1 POP PUSH1 0x0 PUSH2 0x3E03 DUP8 PUSH2 0x3DF5 PUSH1 0x1C SLOAD DUP6 PUSH2 0x3A60 SWAP1 SWAP2 SWAP1 PUSH4 0xFFFFFFFF AND JUMP JUMPDEST PUSH2 0x3A76 SWAP1 SWAP2 SWAP1 PUSH4 0xFFFFFFFF AND JUMP JUMPDEST SWAP1 POP PUSH1 0x0 PUSH2 0x3E2E DUP9 PUSH2 0x3E20 PUSH1 0x1E SLOAD DUP7 PUSH2 0x3A60 SWAP1 SWAP2 SWAP1 PUSH4 0xFFFFFFFF AND JUMP JUMPDEST PUSH2 0x3A76 SWAP1 SWAP2 SWAP1 PUSH4 0xFFFFFFFF AND JUMP JUMPDEST SWAP1 POP PUSH1 0x0 DUP2 DUP4 DUP6 PUSH2 0x3E3F SWAP2 SWAP1 PUSH2 0x5AC6 JUMP JUMPDEST PUSH2 0x3E49 SWAP2 SWAP1 PUSH2 0x5AC6 JUMP JUMPDEST SWAP1 POP PUSH1 0x0 PUSH1 0x1D DUP2 SWAP1 SSTORE POP PUSH1 0x0 PUSH1 0x1C DUP2 SWAP1 SSTORE POP PUSH1 0x0 PUSH1 0x1E DUP2 SWAP1 SSTORE POP PUSH1 0x7 PUSH1 0x0 SWAP1 SLOAD SWAP1 PUSH2 0x100 EXP SWAP1 DIV PUSH20 0xFFFFFFFFFFFFFFFFFFFFFFFFFFFFFFFFFFFFFFFF AND PUSH20 0xFFFFFFFFFFFFFFFFFFFFFFFFFFFFFFFFFFFFFFFF AND DUP3 PUSH1 0x40 MLOAD PUSH2 0x3EA9 SWAP1 PUSH2 0x5C4F JUMP JUMPDEST PUSH1 0x0 PUSH1 0x40 MLOAD DUP1 DUP4 SUB DUP2 DUP6 DUP8 GAS CALL SWAP3 POP POP POP RETURNDATASIZE DUP1 PUSH1 0x0 DUP2 EQ PUSH2 0x3EE6 JUMPI PUSH1 0x40 MLOAD SWAP2 POP PUSH1 0x1F NOT PUSH1 0x3F RETURNDATASIZE ADD AND DUP3 ADD PUSH1 0x40 MSTORE RETURNDATASIZE DUP3 MSTORE RETURNDATASIZE PUSH1 0x0 PUSH1 0x20 DUP5 ADD RETURNDATACOPY PUSH2 0x3EEB JUMP JUMPDEST PUSH1 0x60 SWAP2 POP JUMPDEST POP POP DUP1 SWAP9 POP POP PUSH1 0x0 DUP8 GT DUP1 ISZERO PUSH2 0x3F01 JUMPI POP PUSH1 0x0 DUP2 GT JUMPDEST ISZERO PUSH2 0x3F4E JUMPI PUSH2 0x3F10 DUP8 DUP3 PUSH2 0x440C JUMP JUMPDEST PUSH32 0x17BBFB9A6069321B6DED73BD96327C9E6B7212A5CD51FF219CD61370ACAFB561 DUP7 DUP3 PUSH1 0x1D SLOAD PUSH1 0x40 MLOAD PUSH2 0x3F45 SWAP4 SWAP3 SWAP2 SWAP1 PUSH2 0x5C64 JUMP JUMPDEST PUSH1 0x40 MLOAD DUP1 SWAP2 SUB SWAP1 LOG1 JUMPDEST PUSH1 0x6 PUSH1 0x0 SWAP1 SLOAD SWAP1 PUSH2 0x100 EXP SWAP1 DIV PUSH20 0xFFFFFFFFFFFFFFFFFFFFFFFFFFFFFFFFFFFFFFFF AND PUSH20 0xFFFFFFFFFFFFFFFFFFFFFFFFFFFFFFFFFFFFFFFF AND SELFBALANCE PUSH1 0x40 MLOAD PUSH2 0x3F94 SWAP1 PUSH2 0x5C4F JUMP JUMPDEST PUSH1 0x0 PUSH1 0x40 MLOAD DUP1 DUP4 SUB DUP2 DUP6 DUP8 GAS CALL SWAP3 POP POP POP RETURNDATASIZE DUP1 PUSH1 0x0 DUP2 EQ PUSH2 0x3FD1 JUMPI PUSH1 0x40 MLOAD SWAP2 POP PUSH1 0x1F NOT PUSH1 0x3F RETURNDATASIZE ADD AND DUP3 ADD PUSH1 0x40 MSTORE RETURNDATASIZE DUP3 MSTORE RETURNDATASIZE PUSH1 0x0 PUSH1 0x20 DUP5 ADD RETURNDATACOPY PUSH2 0x3FD6 JUMP JUMPDEST PUSH1 0x60 SWAP2 POP JUMPDEST POP POP DUP1 SWAP9 POP POP POP POP POP POP POP POP POP POP POP POP JUMPDEST JUMP JUMPDEST PUSH1 0x0 TIMESTAMP PUSH1 0xE DUP2 SWAP1 SSTORE POP PUSH1 0x0 ADDRESS PUSH20 0xFFFFFFFFFFFFFFFFFFFFFFFFFFFFFFFFFFFFFFFF AND PUSH4 0x70A08231 PUSH32 0x0 PUSH1 0x40 MLOAD DUP3 PUSH4 0xFFFFFFFF AND PUSH1 0xE0 SHL DUP2 MSTORE PUSH1 0x4 ADD PUSH2 0x404D SWAP2 SWAP1 PUSH2 0x4818 JUMP JUMPDEST PUSH1 0x20 PUSH1 0x40 MLOAD DUP1 DUP4 SUB DUP2 DUP7 GAS STATICCALL ISZERO DUP1 ISZERO PUSH2 0x406A JUMPI RETURNDATASIZE PUSH1 0x0 DUP1 RETURNDATACOPY RETURNDATASIZE PUSH1 0x0 REVERT JUMPDEST POP POP POP POP PUSH1 0x40 MLOAD RETURNDATASIZE PUSH1 0x1F NOT PUSH1 0x1F DUP3 ADD AND DUP3 ADD DUP1 PUSH1 0x40 MSTORE POP DUP2 ADD SWAP1 PUSH2 0x408E SWAP2 SWAP1 PUSH2 0x549F JUMP JUMPDEST SWAP1 POP PUSH1 0x0 PUSH2 0x40BB PUSH2 0x2710 PUSH2 0x40AD PUSH1 0xB SLOAD DUP6 PUSH2 0x3A60 SWAP1 SWAP2 SWAP1 PUSH4 0xFFFFFFFF AND JUMP JUMPDEST PUSH2 0x3A76 SWAP1 SWAP2 SWAP1 PUSH4 0xFFFFFFFF AND JUMP JUMPDEST SWAP1 POP PUSH1 0x0 DUP2 GT ISZERO PUSH2 0x40F4 JUMPI PUSH2 0x40F3 PUSH32 0x0 PUSH2 0xDEAD DUP4 PUSH2 0x3A8C JUMP JUMPDEST JUMPDEST PUSH1 0x0 PUSH32 0x0 SWAP1 POP DUP1 PUSH20 0xFFFFFFFFFFFFFFFFFFFFFFFFFFFFFFFFFFFFFFFF AND PUSH4 0xFFF6CAE9 PUSH1 0x40 MLOAD DUP2 PUSH4 0xFFFFFFFF AND PUSH1 0xE0 SHL DUP2 MSTORE PUSH1 0x4 ADD PUSH1 0x0 PUSH1 0x40 MLOAD DUP1 DUP4 SUB DUP2 PUSH1 0x0 DUP8 DUP1 EXTCODESIZE ISZERO DUP1 ISZERO PUSH2 0x4161 JUMPI PUSH1 0x0 DUP1 REVERT JUMPDEST POP GAS CALL ISZERO DUP1 ISZERO PUSH2 0x4175 JUMPI RETURNDATASIZE PUSH1 0x0 DUP1 RETURNDATACOPY RETURNDATASIZE PUSH1 0x0 REVERT JUMPDEST POP POP POP POP PUSH32 0x454C91AE84FCC766DDDA0DCB289F26B3D0176EFEACF4061FC219FA6CA8C3048D PUSH1 0x40 MLOAD PUSH1 0x40 MLOAD DUP1 SWAP2 SUB SWAP1 LOG1 PUSH1 0x1 SWAP4 POP POP POP POP SWAP1 JUMP JUMPDEST POP POP POP JUMP JUMPDEST POP POP POP JUMP JUMPDEST PUSH1 0x0 DUP2 DUP4 PUSH2 0x41C7 SWAP2 SWAP1 PUSH2 0x5AC6 JUMP JUMPDEST SWAP1 POP SWAP3 SWAP2 POP POP JUMP JUMPDEST PUSH1 0x0 PUSH1 0x2 PUSH8 0xFFFFFFFFFFFFFFFF DUP2 GT ISZERO PUSH2 0x41EC JUMPI PUSH2 0x41EB PUSH2 0x49EA JUMP JUMPDEST JUMPDEST PUSH1 0x40 MLOAD SWAP1 DUP1 DUP3 MSTORE DUP1 PUSH1 0x20 MUL PUSH1 0x20 ADD DUP3 ADD PUSH1 0x40 MSTORE DUP1 ISZERO PUSH2 0x421A JUMPI DUP2 PUSH1 0x20 ADD PUSH1 0x20 DUP3 MUL DUP1 CALLDATASIZE DUP4 CALLDATACOPY DUP1 DUP3 ADD SWAP2 POP POP SWAP1 POP JUMPDEST POP SWAP1 POP ADDRESS DUP2 PUSH1 0x0 DUP2 MLOAD DUP2 LT PUSH2 0x4232 JUMPI PUSH2 0x4231 PUSH2 0x51F1 JUMP JUMPDEST JUMPDEST PUSH1 0x20 MUL PUSH1 0x20 ADD ADD SWAP1 PUSH20 0xFFFFFFFFFFFFFFFFFFFFFFFFFFFFFFFFFFFFFFFF AND SWAP1 DUP2 PUSH20 0xFFFFFFFFFFFFFFFFFFFFFFFFFFFFFFFFFFFFFFFF AND DUP2 MSTORE POP POP PUSH32 0x0 PUSH20 0xFFFFFFFFFFFFFFFFFFFFFFFFFFFFFFFFFFFFFFFF AND PUSH4 0xAD5C4648 PUSH1 0x40 MLOAD DUP2 PUSH4 0xFFFFFFFF AND PUSH1 0xE0 SHL DUP2 MSTORE PUSH1 0x4 ADD PUSH1 0x20 PUSH1 0x40 MLOAD DUP1 DUP4 SUB DUP2 DUP7 GAS STATICCALL ISZERO DUP1 ISZERO PUSH2 0x42D7 JUMPI RETURNDATASIZE PUSH1 0x0 DUP1 RETURNDATACOPY RETURNDATASIZE PUSH1 0x0 REVERT JUMPDEST POP POP POP POP PUSH1 0x40 MLOAD RETURNDATASIZE PUSH1 0x1F NOT PUSH1 0x1F DUP3 ADD AND DUP3 ADD DUP1 PUSH1 0x40 MSTORE POP DUP2 ADD SWAP1 PUSH2 0x42FB SWAP2 SWAP1 PUSH2 0x5CB0 JUMP JUMPDEST DUP2 PUSH1 0x1 DUP2 MLOAD DUP2 LT PUSH2 0x430F JUMPI PUSH2 0x430E PUSH2 0x51F1 JUMP JUMPDEST JUMPDEST PUSH1 0x20 MUL PUSH1 0x20 ADD ADD SWAP1 PUSH20 0xFFFFFFFFFFFFFFFFFFFFFFFFFFFFFFFFFFFFFFFF AND SWAP1 DUP2 PUSH20 0xFFFFFFFFFFFFFFFFFFFFFFFFFFFFFFFFFFFFFFFF AND DUP2 MSTORE POP POP PUSH2 0x4374 ADDRESS PUSH32 0x0 DUP5 PUSH2 0x286A JUMP JUMPDEST PUSH32 0x0 PUSH20 0xFFFFFFFFFFFFFFFFFFFFFFFFFFFFFFFFFFFFFFFF AND PUSH4 0x791AC947 DUP4 PUSH1 0x0 DUP5 ADDRESS TIMESTAMP PUSH1 0x40 MLOAD DUP7 PUSH4 0xFFFFFFFF AND PUSH1 0xE0 SHL DUP2 MSTORE PUSH1 0x4 ADD PUSH2 0x43D6 SWAP6 SWAP5 SWAP4 SWAP3 SWAP2 SWAP1 PUSH2 0x5DD6 JUMP JUMPDEST PUSH1 0x0 PUSH1 0x40 MLOAD DUP1 DUP4 SUB DUP2 PUSH1 0x0 DUP8 DUP1 EXTCODESIZE ISZERO DUP1 ISZERO PUSH2 0x43F0 JUMPI PUSH1 0x0 DUP1 REVERT JUMPDEST POP GAS CALL ISZERO DUP1 ISZERO PUSH2 0x4404 JUMPI RETURNDATASIZE PUSH1 0x0 DUP1 RETURNDATACOPY RETURNDATASIZE PUSH1 0x0 REVERT JUMPDEST POP POP POP POP POP POP JUMP JUMPDEST PUSH2 0x4437 ADDRESS PUSH32 0x0 DUP5 PUSH2 0x286A JUMP JUMPDEST PUSH32 0x0 PUSH20 0xFFFFFFFFFFFFFFFFFFFFFFFFFFFFFFFFFFFFFFFF AND PUSH4 0xF305D719 DUP3 ADDRESS DUP6 PUSH1 0x0 DUP1 PUSH2 0xDEAD TIMESTAMP PUSH1 0x40 MLOAD DUP9 PUSH4 0xFFFFFFFF AND PUSH1 0xE0 SHL DUP2 MSTORE PUSH1 0x4 ADD PUSH2 0x449E SWAP7 SWAP6 SWAP5 SWAP4 SWAP3 SWAP2 SWAP1 PUSH2 0x5E30 JUMP JUMPDEST PUSH1 0x60 PUSH1 0x40 MLOAD DUP1 DUP4 SUB DUP2 DUP6 DUP9 GAS CALL ISZERO DUP1 ISZERO PUSH2 0x44BC JUMPI RETURNDATASIZE PUSH1 0x0 DUP1 RETURNDATACOPY RETURNDATASIZE PUSH1 0x0 REVERT JUMPDEST POP POP POP POP POP PUSH1 0x40 MLOAD RETURNDATASIZE PUSH1 0x1F NOT PUSH1 0x1F DUP3 ADD AND DUP3 ADD DUP1 PUSH1 0x40 MSTORE POP DUP2 ADD SWAP1 PUSH2 0x44E1 SWAP2 SWAP1 PUSH2 0x5E91 JUMP JUMPDEST POP POP POP POP POP JUMP JUMPDEST PUSH1 0x0 DUP2 MLOAD SWAP1 POP SWAP2 SWAP1 POP JUMP JUMPDEST PUSH1 0x0 DUP3 DUP3 MSTORE PUSH1 0x20 DUP3 ADD SWAP1 POP SWAP3 SWAP2 POP POP JUMP JUMPDEST PUSH1 0x0 JUMPDEST DUP4 DUP2 LT ISZERO PUSH2 0x4522 JUMPI DUP1 DUP3 ADD MLOAD DUP2 DUP5 ADD MSTORE PUSH1 0x20 DUP2 ADD SWAP1 POP PUSH2 0x4507 JUMP JUMPDEST PUSH1 0x0 DUP5 DUP5 ADD MSTORE POP POP POP POP JUMP JUMPDEST PUSH1 0x0 PUSH1 0x1F NOT PUSH1 0x1F DUP4 ADD AND SWAP1 POP SWAP2 SWAP1 POP JUMP JUMPDEST PUSH1 0x0 PUSH2 0x454A DUP3 PUSH2 0x44E8 JUMP JUMPDEST PUSH2 0x4554 DUP2 DUP6 PUSH2 0x44F3 JUMP JUMPDEST SWAP4 POP PUSH2 0x4564 DUP2 DUP6 PUSH1 0x20 DUP7 ADD PUSH2 0x4504 JUMP JUMPDEST PUSH2 0x456D DUP2 PUSH2 0x452E JUMP JUMPDEST DUP5 ADD SWAP2 POP POP SWAP3 SWAP2 POP POP JUMP JUMPDEST PUSH1 0x0 PUSH1 0x20 DUP3 ADD SWAP1 POP DUP2 DUP2 SUB PUSH1 0x0 DUP4 ADD MSTORE PUSH2 0x4592 DUP2 DUP5 PUSH2 0x453F JUMP JUMPDEST SWAP1 POP SWAP3 SWAP2 POP POP JUMP JUMPDEST PUSH1 0x0 PUSH1 0x40 MLOAD SWAP1 POP SWAP1 JUMP JUMPDEST PUSH1 0x0 DUP1 REVERT JUMPDEST PUSH1 0x0 DUP1 REVERT JUMPDEST PUSH1 0x0 PUSH20 0xFFFFFFFFFFFFFFFFFFFFFFFFFFFFFFFFFFFFFFFF DUP3 AND SWAP1 POP SWAP2 SWAP1 POP JUMP JUMPDEST PUSH1 0x0 PUSH2 0x45D9 DUP3 PUSH2 0x45AE JUMP JUMPDEST SWAP1 POP SWAP2 SWAP1 POP JUMP JUMPDEST PUSH2 0x45E9 DUP2 PUSH2 0x45CE JUMP JUMPDEST DUP2 EQ PUSH2 0x45F4 JUMPI PUSH1 0x0 DUP1 REVERT JUMPDEST POP JUMP JUMPDEST PUSH1 0x0 DUP2 CALLDATALOAD SWAP1 POP PUSH2 0x4606 DUP2 PUSH2 0x45E0 JUMP JUMPDEST SWAP3 SWAP2 POP POP JUMP JUMPDEST PUSH1 0x0 DUP2 SWAP1 POP SWAP2 SWAP1 POP JUMP JUMPDEST PUSH2 0x461F DUP2 PUSH2 0x460C JUMP JUMPDEST DUP2 EQ PUSH2 0x462A JUMPI PUSH1 0x0 DUP1 REVERT JUMPDEST POP JUMP JUMPDEST PUSH1 0x0 DUP2 CALLDATALOAD SWAP1 POP PUSH2 0x463C DUP2 PUSH2 0x4616 JUMP JUMPDEST SWAP3 SWAP2 POP POP JUMP JUMPDEST PUSH1 0x0 DUP1 PUSH1 0x40 DUP4 DUP6 SUB SLT ISZERO PUSH2 0x4659 JUMPI PUSH2 0x4658 PUSH2 0x45A4 JUMP JUMPDEST JUMPDEST PUSH1 0x0 PUSH2 0x4667 DUP6 DUP3 DUP7 ADD PUSH2 0x45F7 JUMP JUMPDEST SWAP3 POP POP PUSH1 0x20 PUSH2 0x4678 DUP6 DUP3 DUP7 ADD PUSH2 0x462D JUMP JUMPDEST SWAP2 POP POP SWAP3 POP SWAP3 SWAP1 POP JUMP JUMPDEST PUSH1 0x0 DUP2 ISZERO ISZERO SWAP1 POP SWAP2 SWAP1 POP JUMP JUMPDEST PUSH2 0x4697 DUP2 PUSH2 0x4682 JUMP JUMPDEST DUP3 MSTORE POP POP JUMP JUMPDEST PUSH1 0x0 PUSH1 0x20 DUP3 ADD SWAP1 POP PUSH2 0x46B2 PUSH1 0x0 DUP4 ADD DUP5 PUSH2 0x468E JUMP JUMPDEST SWAP3 SWAP2 POP POP JUMP JUMPDEST PUSH1 0x0 PUSH1 0x20 DUP3 DUP5 SUB SLT ISZERO PUSH2 0x46CE JUMPI PUSH2 0x46CD PUSH2 0x45A4 JUMP JUMPDEST JUMPDEST PUSH1 0x0 PUSH2 0x46DC DUP5 DUP3 DUP6 ADD PUSH2 0x45F7 JUMP JUMPDEST SWAP2 POP POP SWAP3 SWAP2 POP POP JUMP JUMPDEST PUSH1 0x0 DUP2 SWAP1 POP SWAP2 SWAP1 POP JUMP JUMPDEST PUSH1 0x0 PUSH2 0x470A PUSH2 0x4705 PUSH2 0x4700 DUP5 PUSH2 0x45AE JUMP JUMPDEST PUSH2 0x46E5 JUMP JUMPDEST PUSH2 0x45AE JUMP JUMPDEST SWAP1 POP SWAP2 SWAP1 POP JUMP JUMPDEST PUSH1 0x0 PUSH2 0x471C DUP3 PUSH2 0x46EF JUMP JUMPDEST SWAP1 POP SWAP2 SWAP1 POP JUMP JUMPDEST PUSH1 0x0 PUSH2 0x472E DUP3 PUSH2 0x4711 JUMP JUMPDEST SWAP1 POP SWAP2 SWAP1 POP JUMP JUMPDEST PUSH2 0x473E DUP2 PUSH2 0x4723 JUMP JUMPDEST DUP3 MSTORE POP POP JUMP JUMPDEST PUSH1 0x0 PUSH1 0x20 DUP3 ADD SWAP1 POP PUSH2 0x4759 PUSH1 0x0 DUP4 ADD DUP5 PUSH2 0x4735 JUMP JUMPDEST SWAP3 SWAP2 POP POP JUMP JUMPDEST PUSH2 0x4768 DUP2 PUSH2 0x460C JUMP JUMPDEST DUP3 MSTORE POP POP JUMP JUMPDEST PUSH1 0x0 PUSH1 0x20 DUP3 ADD SWAP1 POP PUSH2 0x4783 PUSH1 0x0 DUP4 ADD DUP5 PUSH2 0x475F JUMP JUMPDEST SWAP3 SWAP2 POP POP JUMP JUMPDEST PUSH1 0x0 PUSH1 0x20 DUP3 DUP5 SUB SLT ISZERO PUSH2 0x479F JUMPI PUSH2 0x479E PUSH2 0x45A4 JUMP JUMPDEST JUMPDEST PUSH1 0x0 PUSH2 0x47AD DUP5 DUP3 DUP6 ADD PUSH2 0x462D JUMP JUMPDEST SWAP2 POP POP SWAP3 SWAP2 POP POP JUMP JUMPDEST PUSH1 0x0 DUP1 PUSH1 0x0 PUSH1 0x60 DUP5 DUP7 SUB SLT ISZERO PUSH2 0x47CF JUMPI PUSH2 0x47CE PUSH2 0x45A4 JUMP JUMPDEST JUMPDEST PUSH1 0x0 PUSH2 0x47DD DUP7 DUP3 DUP8 ADD PUSH2 0x45F7 JUMP JUMPDEST SWAP4 POP POP PUSH1 0x20 PUSH2 0x47EE DUP7 DUP3 DUP8 ADD PUSH2 0x45F7 JUMP JUMPDEST SWAP3 POP POP PUSH1 0x40 PUSH2 0x47FF DUP7 DUP3 DUP8 ADD PUSH2 0x462D JUMP JUMPDEST SWAP2 POP POP SWAP3 POP SWAP3 POP SWAP3 JUMP JUMPDEST PUSH2 0x4812 DUP2 PUSH2 0x45CE JUMP JUMPDEST DUP3 MSTORE POP POP JUMP JUMPDEST PUSH1 0x0 PUSH1 0x20 DUP3 ADD SWAP1 POP PUSH2 0x482D PUSH1 0x0 DUP4 ADD DUP5 PUSH2 0x4809 JUMP JUMPDEST SWAP3 SWAP2 POP POP JUMP JUMPDEST PUSH1 0x0 PUSH1 0xFF DUP3 AND SWAP1 POP SWAP2 SWAP1 POP JUMP JUMPDEST PUSH2 0x4849 DUP2 PUSH2 0x4833 JUMP JUMPDEST DUP3 MSTORE POP POP JUMP JUMPDEST PUSH1 0x0 PUSH1 0x20 DUP3 ADD SWAP1 POP PUSH2 0x4864 PUSH1 0x0 DUP4 ADD DUP5 PUSH2 0x4840 JUMP JUMPDEST SWAP3 SWAP2 POP POP JUMP JUMPDEST PUSH2 0x4873 DUP2 PUSH2 0x4682 JUMP JUMPDEST DUP2 EQ PUSH2 0x487E JUMPI PUSH1 0x0 DUP1 REVERT JUMPDEST POP JUMP JUMPDEST PUSH1 0x0 DUP2 CALLDATALOAD SWAP1 POP PUSH2 0x4890 DUP2 PUSH2 0x486A JUMP JUMPDEST SWAP3 SWAP2 POP POP JUMP JUMPDEST PUSH1 0x0 DUP1 PUSH1 0x40 DUP4 DUP6 SUB SLT ISZERO PUSH2 0x48AD JUMPI PUSH2 0x48AC PUSH2 0x45A4 JUMP JUMPDEST JUMPDEST PUSH1 0x0 PUSH2 0x48BB DUP6 DUP3 DUP7 ADD PUSH2 0x45F7 JUMP JUMPDEST SWAP3 POP POP PUSH1 0x20 PUSH2 0x48CC DUP6 DUP3 DUP7 ADD PUSH2 0x4881 JUMP JUMPDEST SWAP2 POP POP SWAP3 POP SWAP3 SWAP1 POP JUMP JUMPDEST PUSH1 0x0 DUP1 PUSH1 0x0 PUSH1 0x60 DUP5 DUP7 SUB SLT ISZERO PUSH2 0x48EF JUMPI PUSH2 0x48EE PUSH2 0x45A4 JUMP JUMPDEST JUMPDEST PUSH1 0x0 PUSH2 0x48FD DUP7 DUP3 DUP8 ADD PUSH2 0x462D JUMP JUMPDEST SWAP4 POP POP PUSH1 0x20 PUSH2 0x490E DUP7 DUP3 DUP8 ADD PUSH2 0x462D JUMP JUMPDEST SWAP3 POP POP PUSH1 0x40 PUSH2 0x491F DUP7 DUP3 DUP8 ADD PUSH2 0x4881 JUMP JUMPDEST SWAP2 POP POP SWAP3 POP SWAP3 POP SWAP3 JUMP JUMPDEST PUSH1 0x0 DUP1 PUSH1 0x0 PUSH1 0x60 DUP5 DUP7 SUB SLT ISZERO PUSH2 0x4942 JUMPI PUSH2 0x4941 PUSH2 0x45A4 JUMP JUMPDEST JUMPDEST PUSH1 0x0 PUSH2 0x4950 DUP7 DUP3 DUP8 ADD PUSH2 0x462D JUMP JUMPDEST SWAP4 POP POP PUSH1 0x20 PUSH2 0x4961 DUP7 DUP3 DUP8 ADD PUSH2 0x462D JUMP JUMPDEST SWAP3 POP POP PUSH1 0x40 PUSH2 0x4972 DUP7 DUP3 DUP8 ADD PUSH2 0x462D JUMP JUMPDEST SWAP2 POP POP SWAP3 POP SWAP3 POP SWAP3 JUMP JUMPDEST PUSH1 0x0 PUSH2 0x4987 DUP3 PUSH2 0x45AE JUMP JUMPDEST SWAP1 POP SWAP2 SWAP1 POP JUMP JUMPDEST PUSH2 0x4997 DUP2 PUSH2 0x497C JUMP JUMPDEST DUP3 MSTORE POP POP JUMP JUMPDEST PUSH1 0x0 PUSH1 0x20 DUP3 ADD SWAP1 POP PUSH2 0x49B2 PUSH1 0x0 DUP4 ADD DUP5 PUSH2 0x498E JUMP JUMPDEST SWAP3 SWAP2 POP POP JUMP JUMPDEST PUSH1 0x0 PUSH1 0x20 DUP3 DUP5 SUB SLT ISZERO PUSH2 0x49CE JUMPI PUSH2 0x49CD PUSH2 0x45A4 JUMP JUMPDEST JUMPDEST PUSH1 0x0 PUSH2 0x49DC DUP5 DUP3 DUP6 ADD PUSH2 0x4881 JUMP JUMPDEST SWAP2 POP POP SWAP3 SWAP2 POP POP JUMP JUMPDEST PUSH1 0x0 DUP1 REVERT JUMPDEST PUSH32 0x4E487B7100000000000000000000000000000000000000000000000000000000 PUSH1 0x0 MSTORE PUSH1 0x41 PUSH1 0x4 MSTORE PUSH1 0x24 PUSH1 0x0 REVERT JUMPDEST PUSH2 0x4A22 DUP3 PUSH2 0x452E JUMP JUMPDEST DUP2 ADD DUP2 DUP2 LT PUSH8 0xFFFFFFFFFFFFFFFF DUP3 GT OR ISZERO PUSH2 0x4A41 JUMPI PUSH2 0x4A40 PUSH2 0x49EA JUMP JUMPDEST JUMPDEST DUP1 PUSH1 0x40 MSTORE POP POP POP JUMP JUMPDEST PUSH1 0x0 PUSH2 0x4A54 PUSH2 0x459A JUMP JUMPDEST SWAP1 POP PUSH2 0x4A60 DUP3 DUP3 PUSH2 0x4A19 JUMP JUMPDEST SWAP2 SWAP1 POP JUMP JUMPDEST PUSH1 0x0 PUSH8 0xFFFFFFFFFFFFFFFF DUP3 GT ISZERO PUSH2 0x4A80 JUMPI PUSH2 0x4A7F PUSH2 0x49EA JUMP JUMPDEST JUMPDEST PUSH1 0x20 DUP3 MUL SWAP1 POP PUSH1 0x20 DUP2 ADD SWAP1 POP SWAP2 SWAP1 POP JUMP JUMPDEST PUSH1 0x0 DUP1 REVERT JUMPDEST PUSH1 0x0 PUSH2 0x4AA9 PUSH2 0x4AA4 DUP5 PUSH2 0x4A65 JUMP JUMPDEST PUSH2 0x4A4A JUMP JUMPDEST SWAP1 POP DUP1 DUP4 DUP3 MSTORE PUSH1 0x20 DUP3 ADD SWAP1 POP PUSH1 0x20 DUP5 MUL DUP4 ADD DUP6 DUP2 GT ISZERO PUSH2 0x4ACC JUMPI PUSH2 0x4ACB PUSH2 0x4A91 JUMP JUMPDEST JUMPDEST DUP4 JUMPDEST DUP2 DUP2 LT ISZERO PUSH2 0x4AF5 JUMPI DUP1 PUSH2 0x4AE1 DUP9 DUP3 PUSH2 0x45F7 JUMP JUMPDEST DUP5 MSTORE PUSH1 0x20 DUP5 ADD SWAP4 POP POP PUSH1 0x20 DUP2 ADD SWAP1 POP PUSH2 0x4ACE JUMP JUMPDEST POP POP POP SWAP4 SWAP3 POP POP POP JUMP JUMPDEST PUSH1 0x0 DUP3 PUSH1 0x1F DUP4 ADD SLT PUSH2 0x4B14 JUMPI PUSH2 0x4B13 PUSH2 0x49E5 JUMP JUMPDEST JUMPDEST DUP2 CALLDATALOAD PUSH2 0x4B24 DUP5 DUP3 PUSH1 0x20 DUP7 ADD PUSH2 0x4A96 JUMP JUMPDEST SWAP2 POP POP SWAP3 SWAP2 POP POP JUMP JUMPDEST PUSH1 0x0 PUSH1 0x20 DUP3 DUP5 SUB SLT ISZERO PUSH2 0x4B43 JUMPI PUSH2 0x4B42 PUSH2 0x45A4 JUMP JUMPDEST JUMPDEST PUSH1 0x0 DUP3 ADD CALLDATALOAD PUSH8 0xFFFFFFFFFFFFFFFF DUP2 GT ISZERO PUSH2 0x4B61 JUMPI PUSH2 0x4B60 PUSH2 0x45A9 JUMP JUMPDEST JUMPDEST PUSH2 0x4B6D DUP5 DUP3 DUP6 ADD PUSH2 0x4AFF JUMP JUMPDEST SWAP2 POP POP SWAP3 SWAP2 POP POP JUMP JUMPDEST PUSH1 0x0 DUP1 PUSH1 0x40 DUP4 DUP6 SUB SLT ISZERO PUSH2 0x4B8D JUMPI PUSH2 0x4B8C PUSH2 0x45A4 JUMP JUMPDEST JUMPDEST PUSH1 0x0 PUSH2 0x4B9B DUP6 DUP3 DUP7 ADD PUSH2 0x45F7 JUMP JUMPDEST SWAP3 POP POP PUSH1 0x20 PUSH2 0x4BAC DUP6 DUP3 DUP7 ADD PUSH2 0x45F7 JUMP JUMPDEST SWAP2 POP POP SWAP3 POP SWAP3 SWAP1 POP JUMP JUMPDEST PUSH32 0x4E487B7100000000000000000000000000000000000000000000000000000000 PUSH1 0x0 MSTORE PUSH1 0x22 PUSH1 0x4 MSTORE PUSH1 0x24 PUSH1 0x0 REVERT JUMPDEST PUSH1 0x0 PUSH1 0x2 DUP3 DIV SWAP1 POP PUSH1 0x1 DUP3 AND DUP1 PUSH2 0x4BFD JUMPI PUSH1 0x7F DUP3 AND SWAP2 POP JUMPDEST PUSH1 0x20 DUP3 LT DUP2 SUB PUSH2 0x4C10 JUMPI PUSH2 0x4C0F PUSH2 0x4BB6 JUMP JUMPDEST JUMPDEST POP SWAP2 SWAP1 POP JUMP JUMPDEST PUSH32 0x4F6E6C7920746865206F776E65722063616E2063616C6C20746869732066756E PUSH1 0x0 DUP3 ADD MSTORE PUSH32 0x6374696F6E2E0000000000000000000000000000000000000000000000000000 PUSH1 0x20 DUP3 ADD MSTORE POP JUMP JUMPDEST PUSH1 0x0 PUSH2 0x4C72 PUSH1 0x26 DUP4 PUSH2 0x44F3 JUMP JUMPDEST SWAP2 POP PUSH2 0x4C7D DUP3 PUSH2 0x4C16 JUMP JUMPDEST PUSH1 0x40 DUP3 ADD SWAP1 POP SWAP2 SWAP1 POP JUMP JUMPDEST PUSH1 0x0 PUSH1 0x20 DUP3 ADD SWAP1 POP DUP2 DUP2 SUB PUSH1 0x0 DUP4 ADD MSTORE PUSH2 0x4CA1 DUP2 PUSH2 0x4C65 JUMP JUMPDEST SWAP1 POP SWAP2 SWAP1 POP JUMP JUMPDEST PUSH32 0x4E487B7100000000000000000000000000000000000000000000000000000000 PUSH1 0x0 MSTORE PUSH1 0x11 PUSH1 0x4 MSTORE PUSH1 0x24 PUSH1 0x0 REVERT JUMPDEST PUSH1 0x0 PUSH2 0x4CE2 DUP3 PUSH2 0x460C JUMP JUMPDEST SWAP2 POP PUSH2 0x4CED DUP4 PUSH2 0x460C JUMP JUMPDEST SWAP3 POP DUP3 DUP3 MUL PUSH2 0x4CFB DUP2 PUSH2 0x460C JUMP JUMPDEST SWAP2 POP DUP3 DUP3 DIV DUP5 EQ DUP4 ISZERO OR PUSH2 0x4D12 JUMPI PUSH2 0x4D11 PUSH2 0x4CA8 JUMP JUMPDEST JUMPDEST POP SWAP3 SWAP2 POP POP JUMP JUMPDEST PUSH32 0x4E487B7100000000000000000000000000000000000000000000000000000000 PUSH1 0x0 MSTORE PUSH1 0x12 PUSH1 0x4 MSTORE PUSH1 0x24 PUSH1 0x0 REVERT JUMPDEST PUSH1 0x0 PUSH2 0x4D53 DUP3 PUSH2 0x460C JUMP JUMPDEST SWAP2 POP PUSH2 0x4D5E DUP4 PUSH2 0x460C JUMP JUMPDEST SWAP3 POP DUP3 PUSH2 0x4D6E JUMPI PUSH2 0x4D6D PUSH2 0x4D19 JUMP JUMPDEST JUMPDEST DUP3 DUP3 DIV SWAP1 POP SWAP3 SWAP2 POP POP JUMP JUMPDEST PUSH32 0x43616E6E6F7420736574206D61785472616E73616374696F6E416D6F756E7420 PUSH1 0x0 DUP3 ADD MSTORE PUSH32 0x6C6F776572207468616E20302E31250000000000000000000000000000000000 PUSH1 0x20 DUP3 ADD MSTORE POP JUMP JUMPDEST PUSH1 0x0 PUSH2 0x4DD5 PUSH1 0x2F DUP4 PUSH2 0x44F3 JUMP JUMPDEST SWAP2 POP PUSH2 0x4DE0 DUP3 PUSH2 0x4D79 JUMP JUMPDEST PUSH1 0x40 DUP3 ADD SWAP1 POP SWAP2 SWAP1 POP JUMP JUMPDEST PUSH1 0x0 PUSH1 0x20 DUP3 ADD SWAP1 POP DUP2 DUP2 SUB PUSH1 0x0 DUP4 ADD MSTORE PUSH2 0x4E04 DUP2 PUSH2 0x4DC8 JUMP JUMPDEST SWAP1 POP SWAP2 SWAP1 POP JUMP JUMPDEST PUSH1 0x0 PUSH2 0x4E16 DUP3 PUSH2 0x460C JUMP JUMPDEST SWAP2 POP PUSH2 0x4E21 DUP4 PUSH2 0x460C JUMP JUMPDEST SWAP3 POP DUP3 DUP3 ADD SWAP1 POP DUP1 DUP3 GT ISZERO PUSH2 0x4E39 JUMPI PUSH2 0x4E38 PUSH2 0x4CA8 JUMP JUMPDEST JUMPDEST SWAP3 SWAP2 POP POP JUMP JUMPDEST PUSH32 0x63616E6E6F7420736574206275796261636B206D6F7265206F6674656E207468 PUSH1 0x0 DUP3 ADD MSTORE PUSH32 0x616E206576657279203130206D696E7574657300000000000000000000000000 PUSH1 0x20 DUP3 ADD MSTORE POP JUMP JUMPDEST PUSH1 0x0 PUSH2 0x4E9B PUSH1 0x33 DUP4 PUSH2 0x44F3 JUMP JUMPDEST SWAP2 POP PUSH2 0x4EA6 DUP3 PUSH2 0x4E3F JUMP JUMPDEST PUSH1 0x40 DUP3 ADD SWAP1 POP SWAP2 SWAP1 POP JUMP JUMPDEST PUSH1 0x0 PUSH1 0x20 DUP3 ADD SWAP1 POP DUP2 DUP2 SUB PUSH1 0x0 DUP4 ADD MSTORE PUSH2 0x4ECA DUP2 PUSH2 0x4E8E JUMP JUMPDEST SWAP1 POP SWAP2 SWAP1 POP JUMP JUMPDEST PUSH32 0x4D75737420736574206175746F204C50206275726E2070657263656E74206265 PUSH1 0x0 DUP3 ADD MSTORE PUSH32 0x747765656E20302520616E642031302500000000000000000000000000000000 PUSH1 0x20 DUP3 ADD MSTORE POP JUMP JUMPDEST PUSH1 0x0 PUSH2 0x4F2D PUSH1 0x30 DUP4 PUSH2 0x44F3 JUMP JUMPDEST SWAP2 POP PUSH2 0x4F38 DUP3 PUSH2 0x4ED1 JUMP JUMPDEST PUSH1 0x40 DUP3 ADD SWAP1 POP SWAP2 SWAP1 POP JUMP JUMPDEST PUSH1 0x0 PUSH1 0x20 DUP3 ADD SWAP1 POP DUP2 DUP2 SUB PUSH1 0x0 DUP4 ADD MSTORE PUSH2 0x4F5C DUP2 PUSH2 0x4F20 JUMP JUMPDEST SWAP1 POP SWAP2 SWAP1 POP JUMP JUMPDEST PUSH32 0x4D757374206B656570206665657320617420333525206F72206C657373000000 PUSH1 0x0 DUP3 ADD MSTORE POP JUMP JUMPDEST PUSH1 0x0 PUSH2 0x4F99 PUSH1 0x1D DUP4 PUSH2 0x44F3 JUMP JUMPDEST SWAP2 POP PUSH2 0x4FA4 DUP3 PUSH2 0x4F63 JUMP JUMPDEST PUSH1 0x20 DUP3 ADD SWAP1 POP SWAP2 SWAP1 POP JUMP JUMPDEST PUSH1 0x0 PUSH1 0x20 DUP3 ADD SWAP1 POP DUP2 DUP2 SUB PUSH1 0x0 DUP4 ADD MSTORE PUSH2 0x4FC8 DUP2 PUSH2 0x4F8C JUMP JUMPDEST SWAP1 POP SWAP2 SWAP1 POP JUMP JUMPDEST PUSH32 0x54686520706169722063616E6E6F742062652072656D6F7665642066726F6D20 PUSH1 0x0 DUP3 ADD MSTORE PUSH32 0x6175746F6D617465644D61726B65744D616B6572506169727300000000000000 PUSH1 0x20 DUP3 ADD MSTORE POP JUMP JUMPDEST PUSH1 0x0 PUSH2 0x502B PUSH1 0x39 DUP4 PUSH2 0x44F3 JUMP JUMPDEST SWAP2 POP PUSH2 0x5036 DUP3 PUSH2 0x4FCF JUMP JUMPDEST PUSH1 0x40 DUP3 ADD SWAP1 POP SWAP2 SWAP1 POP JUMP JUMPDEST PUSH1 0x0 PUSH1 0x20 DUP3 ADD SWAP1 POP DUP2 DUP2 SUB PUSH1 0x0 DUP4 ADD MSTORE PUSH2 0x505A DUP2 PUSH2 0x501E JUMP JUMPDEST SWAP1 POP SWAP2 SWAP1 POP JUMP JUMPDEST PUSH32 0x45524332303A2064656372656173656420616C6C6F77616E63652062656C6F77 PUSH1 0x0 DUP3 ADD MSTORE PUSH32 0x207A65726F000000000000000000000000000000000000000000000000000000 PUSH1 0x20 DUP3 ADD MSTORE POP JUMP JUMPDEST PUSH1 0x0 PUSH2 0x50BD PUSH1 0x25 DUP4 PUSH2 0x44F3 JUMP JUMPDEST SWAP2 POP PUSH2 0x50C8 DUP3 PUSH2 0x5061 JUMP JUMPDEST PUSH1 0x40 DUP3 ADD SWAP1 POP SWAP2 SWAP1 POP JUMP JUMPDEST PUSH1 0x0 PUSH1 0x20 DUP3 ADD SWAP1 POP DUP2 DUP2 SUB PUSH1 0x0 DUP4 ADD MSTORE PUSH2 0x50EC DUP2 PUSH2 0x50B0 JUMP JUMPDEST SWAP1 POP SWAP2 SWAP1 POP JUMP JUMPDEST PUSH32 0x4D757374206B656570206665657320617420343025206F72206C657373000000 PUSH1 0x0 DUP3 ADD MSTORE POP JUMP JUMPDEST PUSH1 0x0 PUSH2 0x5129 PUSH1 0x1D DUP4 PUSH2 0x44F3 JUMP JUMPDEST SWAP2 POP PUSH2 0x5134 DUP3 PUSH2 0x50F3 JUMP JUMPDEST PUSH1 0x20 DUP3 ADD SWAP1 POP SWAP2 SWAP1 POP JUMP JUMPDEST PUSH1 0x0 PUSH1 0x20 DUP3 ADD SWAP1 POP DUP2 DUP2 SUB PUSH1 0x0 DUP4 ADD MSTORE PUSH2 0x5158 DUP2 PUSH2 0x511C JUMP JUMPDEST SWAP1 POP SWAP2 SWAP1 POP JUMP JUMPDEST PUSH32 0x43616E6E6F7420736574206D617857616C6C6574206C6F776572207468616E20 PUSH1 0x0 DUP3 ADD MSTORE PUSH32 0x302E352500000000000000000000000000000000000000000000000000000000 PUSH1 0x20 DUP3 ADD MSTORE POP JUMP JUMPDEST PUSH1 0x0 PUSH2 0x51BB PUSH1 0x24 DUP4 PUSH2 0x44F3 JUMP JUMPDEST SWAP2 POP PUSH2 0x51C6 DUP3 PUSH2 0x515F JUMP JUMPDEST PUSH1 0x40 DUP3 ADD SWAP1 POP SWAP2 SWAP1 POP JUMP JUMPDEST PUSH1 0x0 PUSH1 0x20 DUP3 ADD SWAP1 POP DUP2 DUP2 SUB PUSH1 0x0 DUP4 ADD MSTORE PUSH2 0x51EA DUP2 PUSH2 0x51AE JUMP JUMPDEST SWAP1 POP SWAP2 SWAP1 POP JUMP JUMPDEST PUSH32 0x4E487B7100000000000000000000000000000000000000000000000000000000 PUSH1 0x0 MSTORE PUSH1 0x32 PUSH1 0x4 MSTORE PUSH1 0x24 PUSH1 0x0 REVERT JUMPDEST PUSH1 0x0 PUSH2 0x522B DUP3 PUSH2 0x460C JUMP JUMPDEST SWAP2 POP PUSH32 0xFFFFFFFFFFFFFFFFFFFFFFFFFFFFFFFFFFFFFFFFFFFFFFFFFFFFFFFFFFFFFFFF DUP3 SUB PUSH2 0x525D JUMPI PUSH2 0x525C PUSH2 0x4CA8 JUMP JUMPDEST JUMPDEST PUSH1 0x1 DUP3 ADD SWAP1 POP SWAP2 SWAP1 POP JUMP JUMPDEST PUSH32 0x5377617020616D6F756E742063616E6E6F74206265206C6F776572207468616E PUSH1 0x0 DUP3 ADD MSTORE PUSH32 0x20302E3030312520746F74616C20737570706C792E0000000000000000000000 PUSH1 0x20 DUP3 ADD MSTORE POP JUMP JUMPDEST PUSH1 0x0 PUSH2 0x52C4 PUSH1 0x35 DUP4 PUSH2 0x44F3 JUMP JUMPDEST SWAP2 POP PUSH2 0x52CF DUP3 PUSH2 0x5268 JUMP JUMPDEST PUSH1 0x40 DUP3 ADD SWAP1 POP SWAP2 SWAP1 POP JUMP JUMPDEST PUSH1 0x0 PUSH1 0x20 DUP3 ADD SWAP1 POP DUP2 DUP2 SUB PUSH1 0x0 DUP4 ADD MSTORE PUSH2 0x52F3 DUP2 PUSH2 0x52B7 JUMP JUMPDEST SWAP1 POP SWAP2 SWAP1 POP JUMP JUMPDEST PUSH32 0x5377617020616D6F756E742063616E6E6F742062652068696768657220746861 PUSH1 0x0 DUP3 ADD MSTORE PUSH32 0x6E20302E352520746F74616C20737570706C792E000000000000000000000000 PUSH1 0x20 DUP3 ADD MSTORE POP JUMP JUMPDEST PUSH1 0x0 PUSH2 0x5356 PUSH1 0x34 DUP4 PUSH2 0x44F3 JUMP JUMPDEST SWAP2 POP PUSH2 0x5361 DUP3 PUSH2 0x52FA JUMP JUMPDEST PUSH1 0x40 DUP3 ADD SWAP1 POP SWAP2 SWAP1 POP JUMP JUMPDEST PUSH1 0x0 PUSH1 0x20 DUP3 ADD SWAP1 POP DUP2 DUP2 SUB PUSH1 0x0 DUP4 ADD MSTORE PUSH2 0x5385 DUP2 PUSH2 0x5349 JUMP JUMPDEST SWAP1 POP SWAP2 SWAP1 POP JUMP JUMPDEST PUSH32 0x4D757374207761697420666F7220636F6F6C646F776E20746F2066696E697368 PUSH1 0x0 DUP3 ADD MSTORE POP JUMP JUMPDEST PUSH1 0x0 PUSH2 0x53C2 PUSH1 0x20 DUP4 PUSH2 0x44F3 JUMP JUMPDEST SWAP2 POP PUSH2 0x53CD DUP3 PUSH2 0x538C JUMP JUMPDEST PUSH1 0x20 DUP3 ADD SWAP1 POP SWAP2 SWAP1 POP JUMP JUMPDEST PUSH1 0x0 PUSH1 0x20 DUP3 ADD SWAP1 POP DUP2 DUP2 SUB PUSH1 0x0 DUP4 ADD MSTORE PUSH2 0x53F1 DUP2 PUSH2 0x53B5 JUMP JUMPDEST SWAP1 POP SWAP2 SWAP1 POP JUMP JUMPDEST PUSH32 0x4D6179206E6F74206E756B65206D6F7265207468616E20313025206F6620746F PUSH1 0x0 DUP3 ADD MSTORE PUSH32 0x6B656E7320696E204C5000000000000000000000000000000000000000000000 PUSH1 0x20 DUP3 ADD MSTORE POP JUMP JUMPDEST PUSH1 0x0 PUSH2 0x5454 PUSH1 0x2A DUP4 PUSH2 0x44F3 JUMP JUMPDEST SWAP2 POP PUSH2 0x545F DUP3 PUSH2 0x53F8 JUMP JUMPDEST PUSH1 0x40 DUP3 ADD SWAP1 POP SWAP2 SWAP1 POP JUMP JUMPDEST PUSH1 0x0 PUSH1 0x20 DUP3 ADD SWAP1 POP DUP2 DUP2 SUB PUSH1 0x0 DUP4 ADD MSTORE PUSH2 0x5483 DUP2 PUSH2 0x5447 JUMP JUMPDEST SWAP1 POP SWAP2 SWAP1 POP JUMP JUMPDEST PUSH1 0x0 DUP2 MLOAD SWAP1 POP PUSH2 0x5499 DUP2 PUSH2 0x4616 JUMP JUMPDEST SWAP3 SWAP2 POP POP JUMP JUMPDEST PUSH1 0x0 PUSH1 0x20 DUP3 DUP5 SUB SLT ISZERO PUSH2 0x54B5 JUMPI PUSH2 0x54B4 PUSH2 0x45A4 JUMP JUMPDEST JUMPDEST PUSH1 0x0 PUSH2 0x54C3 DUP5 DUP3 DUP6 ADD PUSH2 0x548A JUMP JUMPDEST SWAP2 POP POP SWAP3 SWAP2 POP POP JUMP JUMPDEST PUSH32 0x45524332303A20617070726F76652066726F6D20746865207A65726F20616464 PUSH1 0x0 DUP3 ADD MSTORE PUSH32 0x7265737300000000000000000000000000000000000000000000000000000000 PUSH1 0x20 DUP3 ADD MSTORE POP JUMP JUMPDEST PUSH1 0x0 PUSH2 0x5528 PUSH1 0x24 DUP4 PUSH2 0x44F3 JUMP JUMPDEST SWAP2 POP PUSH2 0x5533 DUP3 PUSH2 0x54CC JUMP JUMPDEST PUSH1 0x40 DUP3 ADD SWAP1 POP SWAP2 SWAP1 POP JUMP JUMPDEST PUSH1 0x0 PUSH1 0x20 DUP3 ADD SWAP1 POP DUP2 DUP2 SUB PUSH1 0x0 DUP4 ADD MSTORE PUSH2 0x5557 DUP2 PUSH2 0x551B JUMP JUMPDEST SWAP1 POP SWAP2 SWAP1 POP JUMP JUMPDEST PUSH32 0x45524332303A20617070726F766520746F20746865207A65726F206164647265 PUSH1 0x0 DUP3 ADD MSTORE PUSH32 0x7373000000000000000000000000000000000000000000000000000000000000 PUSH1 0x20 DUP3 ADD MSTORE POP JUMP JUMPDEST PUSH1 0x0 PUSH2 0x55BA PUSH1 0x22 DUP4 PUSH2 0x44F3 JUMP JUMPDEST SWAP2 POP PUSH2 0x55C5 DUP3 PUSH2 0x555E JUMP JUMPDEST PUSH1 0x40 DUP3 ADD SWAP1 POP SWAP2 SWAP1 POP JUMP JUMPDEST PUSH1 0x0 PUSH1 0x20 DUP3 ADD SWAP1 POP DUP2 DUP2 SUB PUSH1 0x0 DUP4 ADD MSTORE PUSH2 0x55E9 DUP2 PUSH2 0x55AD JUMP JUMPDEST SWAP1 POP SWAP2 SWAP1 POP JUMP JUMPDEST PUSH32 0x45524332303A20696E73756666696369656E7420616C6C6F77616E6365000000 PUSH1 0x0 DUP3 ADD MSTORE POP JUMP JUMPDEST PUSH1 0x0 PUSH2 0x5626 PUSH1 0x1D DUP4 PUSH2 0x44F3 JUMP JUMPDEST SWAP2 POP PUSH2 0x5631 DUP3 PUSH2 0x55F0 JUMP JUMPDEST PUSH1 0x20 DUP3 ADD SWAP1 POP SWAP2 SWAP1 POP JUMP JUMPDEST PUSH1 0x0 PUSH1 0x20 DUP3 ADD SWAP1 POP DUP2 DUP2 SUB PUSH1 0x0 DUP4 ADD MSTORE PUSH2 0x5655 DUP2 PUSH2 0x5619 JUMP JUMPDEST SWAP1 POP SWAP2 SWAP1 POP JUMP JUMPDEST PUSH32 0x45524332303A207472616E736665722066726F6D20746865207A65726F206164 PUSH1 0x0 DUP3 ADD MSTORE PUSH32 0x6472657373000000000000000000000000000000000000000000000000000000 PUSH1 0x20 DUP3 ADD MSTORE POP JUMP JUMPDEST PUSH1 0x0 PUSH2 0x56B8 PUSH1 0x25 DUP4 PUSH2 0x44F3 JUMP JUMPDEST SWAP2 POP PUSH2 0x56C3 DUP3 PUSH2 0x565C JUMP JUMPDEST PUSH1 0x40 DUP3 ADD SWAP1 POP SWAP2 SWAP1 POP JUMP JUMPDEST PUSH1 0x0 PUSH1 0x20 DUP3 ADD SWAP1 POP DUP2 DUP2 SUB PUSH1 0x0 DUP4 ADD MSTORE PUSH2 0x56E7 DUP2 PUSH2 0x56AB JUMP JUMPDEST SWAP1 POP SWAP2 SWAP1 POP JUMP JUMPDEST PUSH32 0x45524332303A207472616E7366657220746F2074686520626C61636B4C697374 PUSH1 0x0 DUP3 ADD MSTORE PUSH32 0x6564206164647265737300000000000000000000000000000000000000000000 PUSH1 0x20 DUP3 ADD MSTORE POP JUMP JUMPDEST PUSH1 0x0 PUSH2 0x574A PUSH1 0x2A DUP4 PUSH2 0x44F3 JUMP JUMPDEST SWAP2 POP PUSH2 0x5755 DUP3 PUSH2 0x56EE JUMP JUMPDEST PUSH1 0x40 DUP3 ADD SWAP1 POP SWAP2 SWAP1 POP JUMP JUMPDEST PUSH1 0x0 PUSH1 0x20 DUP3 ADD SWAP1 POP DUP2 DUP2 SUB PUSH1 0x0 DUP4 ADD MSTORE PUSH2 0x5779 DUP2 PUSH2 0x573D JUMP JUMPDEST SWAP1 POP SWAP2 SWAP1 POP JUMP JUMPDEST PUSH32 0x45524332303A207472616E736665722066726F6D2074686520626C61636B4C69 PUSH1 0x0 DUP3 ADD MSTORE PUSH32 0x7374656420616464726573730000000000000000000000000000000000000000 PUSH1 0x20 DUP3 ADD MSTORE POP JUMP JUMPDEST PUSH1 0x0 PUSH2 0x57DC PUSH1 0x2C DUP4 PUSH2 0x44F3 JUMP JUMPDEST SWAP2 POP PUSH2 0x57E7 DUP3 PUSH2 0x5780 JUMP JUMPDEST PUSH1 0x40 DUP3 ADD SWAP1 POP SWAP2 SWAP1 POP JUMP JUMPDEST PUSH1 0x0 PUSH1 0x20 DUP3 ADD SWAP1 POP DUP2 DUP2 SUB PUSH1 0x0 DUP4 ADD MSTORE PUSH2 0x580B DUP2 PUSH2 0x57CF JUMP JUMPDEST SWAP1 POP SWAP2 SWAP1 POP JUMP JUMPDEST PUSH32 0x54726164696E67206973206E6F74206163746976652E00000000000000000000 PUSH1 0x0 DUP3 ADD MSTORE POP JUMP JUMPDEST PUSH1 0x0 PUSH2 0x5848 PUSH1 0x16 DUP4 PUSH2 0x44F3 JUMP JUMPDEST SWAP2 POP PUSH2 0x5853 DUP3 PUSH2 0x5812 JUMP JUMPDEST PUSH1 0x20 DUP3 ADD SWAP1 POP SWAP2 SWAP1 POP JUMP JUMPDEST PUSH1 0x0 PUSH1 0x20 DUP3 ADD SWAP1 POP DUP2 DUP2 SUB PUSH1 0x0 DUP4 ADD MSTORE PUSH2 0x5877 DUP2 PUSH2 0x583B JUMP JUMPDEST SWAP1 POP SWAP2 SWAP1 POP JUMP JUMPDEST PUSH32 0x5F7472616E736665723A3A205472616E736665722044656C617920656E61626C PUSH1 0x0 DUP3 ADD MSTORE PUSH32 0x65642E20204F6E6C79206F6E652070757263686173652070657220626C6F636B PUSH1 0x20 DUP3 ADD MSTORE PUSH32 0x20616C6C6F7765642E0000000000000000000000000000000000000000000000 PUSH1 0x40 DUP3 ADD MSTORE POP JUMP JUMPDEST PUSH1 0x0 PUSH2 0x5900 PUSH1 0x49 DUP4 PUSH2 0x44F3 JUMP JUMPDEST SWAP2 POP PUSH2 0x590B DUP3 PUSH2 0x587E JUMP JUMPDEST PUSH1 0x60 DUP3 ADD SWAP1 POP SWAP2 SWAP1 POP JUMP JUMPDEST PUSH1 0x0 PUSH1 0x20 DUP3 ADD SWAP1 POP DUP2 DUP2 SUB PUSH1 0x0 DUP4 ADD MSTORE PUSH2 0x592F DUP2 PUSH2 0x58F3 JUMP JUMPDEST SWAP1 POP SWAP2 SWAP1 POP JUMP JUMPDEST PUSH32 0x427579207472616E7366657220616D6F756E7420657863656564732074686520 PUSH1 0x0 DUP3 ADD MSTORE PUSH32 0x6D61785472616E73616374696F6E416D6F756E742E0000000000000000000000 PUSH1 0x20 DUP3 ADD MSTORE POP JUMP JUMPDEST PUSH1 0x0 PUSH2 0x5992 PUSH1 0x35 DUP4 PUSH2 0x44F3 JUMP JUMPDEST SWAP2 POP PUSH2 0x599D DUP3 PUSH2 0x5936 JUMP JUMPDEST PUSH1 0x40 DUP3 ADD SWAP1 POP SWAP2 SWAP1 POP JUMP JUMPDEST PUSH1 0x0 PUSH1 0x20 DUP3 ADD SWAP1 POP DUP2 DUP2 SUB PUSH1 0x0 DUP4 ADD MSTORE PUSH2 0x59C1 DUP2 PUSH2 0x5985 JUMP JUMPDEST SWAP1 POP SWAP2 SWAP1 POP JUMP JUMPDEST PUSH32 0x4D61782077616C6C657420657863656564656400000000000000000000000000 PUSH1 0x0 DUP3 ADD MSTORE POP JUMP JUMPDEST PUSH1 0x0 PUSH2 0x59FE PUSH1 0x13 DUP4 PUSH2 0x44F3 JUMP JUMPDEST SWAP2 POP PUSH2 0x5A09 DUP3 PUSH2 0x59C8 JUMP JUMPDEST PUSH1 0x20 DUP3 ADD SWAP1 POP SWAP2 SWAP1 POP JUMP JUMPDEST PUSH1 0x0 PUSH1 0x20 DUP3 ADD SWAP1 POP DUP2 DUP2 SUB PUSH1 0x0 DUP4 ADD MSTORE PUSH2 0x5A2D DUP2 PUSH2 0x59F1 JUMP JUMPDEST SWAP1 POP SWAP2 SWAP1 POP JUMP JUMPDEST PUSH32 0x53656C6C207472616E7366657220616D6F756E74206578636565647320746865 PUSH1 0x0 DUP3 ADD MSTORE PUSH32 0x206D61785472616E73616374696F6E416D6F756E742E00000000000000000000 PUSH1 0x20 DUP3 ADD MSTORE POP JUMP JUMPDEST PUSH1 0x0 PUSH2 0x5A90 PUSH1 0x36 DUP4 PUSH2 0x44F3 JUMP JUMPDEST SWAP2 POP PUSH2 0x5A9B DUP3 PUSH2 0x5A34 JUMP JUMPDEST PUSH1 0x40 DUP3 ADD SWAP1 POP SWAP2 SWAP1 POP JUMP JUMPDEST PUSH1 0x0 PUSH1 0x20 DUP3 ADD SWAP1 POP DUP2 DUP2 SUB PUSH1 0x0 DUP4 ADD MSTORE PUSH2 0x5ABF DUP2 PUSH2 0x5A83 JUMP JUMPDEST SWAP1 POP SWAP2 SWAP1 POP JUMP JUMPDEST PUSH1 0x0 PUSH2 0x5AD1 DUP3 PUSH2 0x460C JUMP JUMPDEST SWAP2 POP PUSH2 0x5ADC DUP4 PUSH2 0x460C JUMP JUMPDEST SWAP3 POP DUP3 DUP3 SUB SWAP1 POP DUP2 DUP2 GT ISZERO PUSH2 0x5AF4 JUMPI PUSH2 0x5AF3 PUSH2 0x4CA8 JUMP JUMPDEST JUMPDEST SWAP3 SWAP2 POP POP JUMP JUMPDEST PUSH32 0x45524332303A207472616E7366657220746F20746865207A65726F2061646472 PUSH1 0x0 DUP3 ADD MSTORE PUSH32 0x6573730000000000000000000000000000000000000000000000000000000000 PUSH1 0x20 DUP3 ADD MSTORE POP JUMP JUMPDEST PUSH1 0x0 PUSH2 0x5B56 PUSH1 0x23 DUP4 PUSH2 0x44F3 JUMP JUMPDEST SWAP2 POP PUSH2 0x5B61 DUP3 PUSH2 0x5AFA JUMP JUMPDEST PUSH1 0x40 DUP3 ADD SWAP1 POP SWAP2 SWAP1 POP JUMP JUMPDEST PUSH1 0x0 PUSH1 0x20 DUP3 ADD SWAP1 POP DUP2 DUP2 SUB PUSH1 0x0 DUP4 ADD MSTORE PUSH2 0x5B85 DUP2 PUSH2 0x5B49 JUMP JUMPDEST SWAP1 POP SWAP2 SWAP1 POP JUMP JUMPDEST PUSH32 0x45524332303A207472616E7366657220616D6F756E7420657863656564732062 PUSH1 0x0 DUP3 ADD MSTORE PUSH32 0x616C616E63650000000000000000000000000000000000000000000000000000 PUSH1 0x20 DUP3 ADD MSTORE POP JUMP JUMPDEST PUSH1 0x0 PUSH2 0x5BE8 PUSH1 0x26 DUP4 PUSH2 0x44F3 JUMP JUMPDEST SWAP2 POP PUSH2 0x5BF3 DUP3 PUSH2 0x5B8C JUMP JUMPDEST PUSH1 0x40 DUP3 ADD SWAP1 POP SWAP2 SWAP1 POP JUMP JUMPDEST PUSH1 0x0 PUSH1 0x20 DUP3 ADD SWAP1 POP DUP2 DUP2 SUB PUSH1 0x0 DUP4 ADD MSTORE PUSH2 0x5C17 DUP2 PUSH2 0x5BDB JUMP JUMPDEST SWAP1 POP SWAP2 SWAP1 POP JUMP JUMPDEST PUSH1 0x0 DUP2 SWAP1 POP SWAP3 SWAP2 POP POP JUMP JUMPDEST POP JUMP JUMPDEST PUSH1 0x0 PUSH2 0x5C39 PUSH1 0x0 DUP4 PUSH2 0x5C1E JUMP JUMPDEST SWAP2 POP PUSH2 0x5C44 DUP3 PUSH2 0x5C29 JUMP JUMPDEST PUSH1 0x0 DUP3 ADD SWAP1 POP SWAP2 SWAP1 POP JUMP JUMPDEST PUSH1 0x0 PUSH2 0x5C5A DUP3 PUSH2 0x5C2C JUMP JUMPDEST SWAP2 POP DUP2 SWAP1 POP SWAP2 SWAP1 POP JUMP JUMPDEST PUSH1 0x0 PUSH1 0x60 DUP3 ADD SWAP1 POP PUSH2 0x5C79 PUSH1 0x0 DUP4 ADD DUP7 PUSH2 0x475F JUMP JUMPDEST PUSH2 0x5C86 PUSH1 0x20 DUP4 ADD DUP6 PUSH2 0x475F JUMP JUMPDEST PUSH2 0x5C93 PUSH1 0x40 DUP4 ADD DUP5 PUSH2 0x475F JUMP JUMPDEST SWAP5 SWAP4 POP POP POP POP JUMP JUMPDEST PUSH1 0x0 DUP2 MLOAD SWAP1 POP PUSH2 0x5CAA DUP2 PUSH2 0x45E0 JUMP JUMPDEST SWAP3 SWAP2 POP POP JUMP JUMPDEST PUSH1 0x0 PUSH1 0x20 DUP3 DUP5 SUB SLT ISZERO PUSH2 0x5CC6 JUMPI PUSH2 0x5CC5 PUSH2 0x45A4 JUMP JUMPDEST JUMPDEST PUSH1 0x0 PUSH2 0x5CD4 DUP5 DUP3 DUP6 ADD PUSH2 0x5C9B JUMP JUMPDEST SWAP2 POP POP SWAP3 SWAP2 POP POP JUMP JUMPDEST PUSH1 0x0 DUP2 SWAP1 POP SWAP2 SWAP1 POP JUMP JUMPDEST PUSH1 0x0 PUSH2 0x5D02 PUSH2 0x5CFD PUSH2 0x5CF8 DUP5 PUSH2 0x5CDD JUMP JUMPDEST PUSH2 0x46E5 JUMP JUMPDEST PUSH2 0x460C JUMP JUMPDEST SWAP1 POP SWAP2 SWAP1 POP JUMP JUMPDEST PUSH2 0x5D12 DUP2 PUSH2 0x5CE7 JUMP JUMPDEST DUP3 MSTORE POP POP JUMP JUMPDEST PUSH1 0x0 DUP2 MLOAD SWAP1 POP SWAP2 SWAP1 POP JUMP JUMPDEST PUSH1 0x0 DUP3 DUP3 MSTORE PUSH1 0x20 DUP3 ADD SWAP1 POP SWAP3 SWAP2 POP POP JUMP JUMPDEST PUSH1 0x0 DUP2 SWAP1 POP PUSH1 0x20 DUP3 ADD SWAP1 POP SWAP2 SWAP1 POP JUMP JUMPDEST PUSH2 0x5D4D DUP2 PUSH2 0x45CE JUMP JUMPDEST DUP3 MSTORE POP POP JUMP JUMPDEST PUSH1 0x0 PUSH2 0x5D5F DUP4 DUP4 PUSH2 0x5D44 JUMP JUMPDEST PUSH1 0x20 DUP4 ADD SWAP1 POP SWAP3 SWAP2 POP POP JUMP JUMPDEST PUSH1 0x0 PUSH1 0x20 DUP3 ADD SWAP1 POP SWAP2 SWAP1 POP JUMP JUMPDEST PUSH1 0x0 PUSH2 0x5D83 DUP3 PUSH2 0x5D18 JUMP JUMPDEST PUSH2 0x5D8D DUP2 DUP6 PUSH2 0x5D23 JUMP JUMPDEST SWAP4 POP PUSH2 0x5D98 DUP4 PUSH2 0x5D34 JUMP JUMPDEST DUP1 PUSH1 0x0 JUMPDEST DUP4 DUP2 LT ISZERO PUSH2 0x5DC9 JUMPI DUP2 MLOAD PUSH2 0x5DB0 DUP9 DUP3 PUSH2 0x5D53 JUMP JUMPDEST SWAP8 POP PUSH2 0x5DBB DUP4 PUSH2 0x5D6B JUMP JUMPDEST SWAP3 POP POP PUSH1 0x1 DUP2 ADD SWAP1 POP PUSH2 0x5D9C JUMP JUMPDEST POP DUP6 SWAP4 POP POP POP POP SWAP3 SWAP2 POP POP JUMP JUMPDEST PUSH1 0x0 PUSH1 0xA0 DUP3 ADD SWAP1 POP PUSH2 0x5DEB PUSH1 0x0 DUP4 ADD DUP9 PUSH2 0x475F JUMP JUMPDEST PUSH2 0x5DF8 PUSH1 0x20 DUP4 ADD DUP8 PUSH2 0x5D09 JUMP JUMPDEST DUP2 DUP2 SUB PUSH1 0x40 DUP4 ADD MSTORE PUSH2 0x5E0A DUP2 DUP7 PUSH2 0x5D78 JUMP JUMPDEST SWAP1 POP PUSH2 0x5E19 PUSH1 0x60 DUP4 ADD DUP6 PUSH2 0x4809 JUMP JUMPDEST PUSH2 0x5E26 PUSH1 0x80 DUP4 ADD DUP5 PUSH2 0x475F JUMP JUMPDEST SWAP7 SWAP6 POP POP POP POP POP POP JUMP JUMPDEST PUSH1 0x0 PUSH1 0xC0 DUP3 ADD SWAP1 POP PUSH2 0x5E45 PUSH1 0x0 DUP4 ADD DUP10 PUSH2 0x4809 JUMP JUMPDEST PUSH2 0x5E52 PUSH1 0x20 DUP4 ADD DUP9 PUSH2 0x475F JUMP JUMPDEST PUSH2 0x5E5F PUSH1 0x40 DUP4 ADD DUP8 PUSH2 0x5D09 JUMP JUMPDEST PUSH2 0x5E6C PUSH1 0x60 DUP4 ADD DUP7 PUSH2 0x5D09 JUMP JUMPDEST PUSH2 0x5E79 PUSH1 0x80 DUP4 ADD DUP6 PUSH2 0x4809 JUMP JUMPDEST PUSH2 0x5E86 PUSH1 0xA0 DUP4 ADD DUP5 PUSH2 0x475F JUMP JUMPDEST SWAP8 SWAP7 POP POP POP POP POP POP POP JUMP JUMPDEST PUSH1 0x0 DUP1 PUSH1 0x0 PUSH1 0x60 DUP5 DUP7 SUB SLT ISZERO PUSH2 0x5EAA JUMPI PUSH2 0x5EA9 PUSH2 0x45A4 JUMP JUMPDEST JUMPDEST PUSH1 0x0 PUSH2 0x5EB8 DUP7 DUP3 DUP8 ADD PUSH2 0x548A JUMP JUMPDEST SWAP4 POP POP PUSH1 0x20 PUSH2 0x5EC9 DUP7 DUP3 DUP8 ADD PUSH2 0x548A JUMP JUMPDEST SWAP3 POP POP PUSH1 0x40 PUSH2 0x5EDA DUP7 DUP3 DUP8 ADD PUSH2 0x548A JUMP JUMPDEST SWAP2 POP POP SWAP3 POP SWAP3 POP SWAP3 JUMP INVALID LOG2 PUSH5 0x6970667358 0x22 SLT KECCAK256 0x2D 0xE9 CALLVALUE DUP3 MULMOD 0xC9 0xBD CALL 0x4A DUP13 CALLVALUE BASEFEE SWAP15 0xC9 CODESIZE 0xE3 LOG1 CALLDATACOPY 0xCA OR 0xE5 0xCF DUP6 0xD7 SWAP4 0xCE 0x2F DUP7 0xAC LOG4 SAR 0x2A PUSH5 0x736F6C6343 STOP ADDMOD SGT STOP CALLER "},"methodIdentifiers":{"_isExcludedMaxTransactionAmount(address)":"10d5de53","allowance(address,address)":"dd62ed3e","approve(address,uint256)":"095ea7b3","automatedMarketMakerPairs(address)":"b62496f5","balanceOf(address)":"70a08231","blacklistAddress(address,bool)":"455a4396","blacklistAddressMultiple(address[])":"cbf24c06","buyDevelopmentFee()":"b2041411","buyLiquidityFee()":"f11a24d3","buyMarketingFee()":"7bce5a04","buyTotalFees()":"d85ba063","deadAddress()":"27c8f835","decimals()":"313ce567","decreaseAllowance(address,uint256)":"a457c2d7","disableTransferDelay()":"e884f260","enableTrading()":"8a8c523c","excludeFromFees(address,bool)":"c0246668","excludeFromMaxTransaction(address,bool)":"7571336a","increaseAllowance(address,uint256)":"39509351","isExcludedFromFees(address)":"4fbee193","lastLpBurnTime()":"a4c82a00","lastManualLpBurnTime()":"9ec22c0e","limitsInEffect()":"4a62bb65","lpBurnEnabled()":"2e82f1a0","lpBurnFrequency()":"2c3e486c","manualBurnFrequency()":"184c16c5","manualBurnLiquidityPairTokens(uint256)":"fe72b27a","maxTransactionAmount()":"c8c8ebe4","maxWallet()":"f8b45b05","name()":"06fdde03","owner()":"8da5cb5b","percentForLPBurn()":"199ffc72","removeLimits()":"751039fc","sellDevelopmentFee()":"18a94cf1","sellLiquidityFee()":"f6374342","sellMarketingFee()":"92136913","sellTotalFees()":"6a486a8e","setAutoLPBurnSettings(uint256,uint256,bool)":"730c1888","setAutomatedMarketMakerPair(address,bool)":"9a7a23d6","swapEnabled()":"6ddd1713","swapTokensAtAmount()":"e2f45605","symbol()":"95d89b41","tokensForDev()":"9fccce32","tokensForLiquidity()":"1a8145bb","tokensForMarketing()":"1f3fed8f","totalSupply()":"18160ddd","tradingActive()":"bbc0c742","transfer(address,uint256)":"a9059cbb","transferDelayEnabled()":"c876d0b9","transferFrom(address,address,uint256)":"23b872dd","uniswapV2Pair()":"49bd5a5e","uniswapV2Router()":"1694505e","updateBuyFees(uint256,uint256,uint256)":"8095d564","updateDevelopmentWalletInfo(address)":"535e02d8","updateMarketingWalletInfo(address)":"7d831a8b","updateMaxTxnAmount(uint256)":"203e727e","updateMaxWalletAmount(uint256)":"c18bc195","updateSellFees(uint256,uint256,uint256)":"c17b5b8c","updateSwapEnabled(bool)":"924de9b7","updateSwapTokensAtAmount(uint256)":"d257b34f"}}}}}